:020000040800F2
:10000000F808002061020008052B0008F123000811
:10001000D129000859040008592F000800000000E9
:10002000000000000000000000000000952B000808
:100030000908000800000000092B0008992B00089F
:100040007B0200087B0200087B0200087B0200089C
:100050007B0200087B0200087B0200087B0200088C
:100060007B0200087B0200087B0200087B0200087C
:100070007B0200087B0200087B0200087B0200086C
:100080007B0200087B0200087B02000800000000E1
:100090000000000000000000000000007B020008DB
:1000A0007B020008552C00087B0200087B02000838
:1000B0007B0200087B0200087B0200087B0200082C
:1000C0007B0200087B0200087B0200087B0200081C
:1000D0007B0200084D2F00087B0200080000000092
:1000E0000D0800087B0200087B02000800000000E9
:1000F0000000000000000000000000007B0200087B
:10010000000000007B0200087B0200087B02000860
:1001100000000000000000000000000000000000DF
:100120007B0200087B0200087B0200087B020008BB
:100130007B0200080000000000000000000000003A
:100140000000000000000000000000007B0200082A
:100150007B0200087B0200087B0200087B0200088B
:100160007B0200087B020008000000000000000085
:10017000000000000000000000000000000000007F
:10018000000000007B0200080000000000000000EA
:100190007B02000800F002F800F052F814A696E87E
:1001A000000CB244B344DA4501D100F049F8BAE892
:1001B0000F000FA696E83000A5EB040504EB060738
:1001C000AAEB0704A7F101074FEA15154FEA34140B
:1001D000A4F10104AC4201D300F032F813F0010F96
:1001E00018BFFB1A43F0010300F001F8DBE71847E2
:1001F000702E0000902E0000103A24BF78C878C1FD
:10020000FAD8520724BF30C830C144BF04680C601C
:1002100070470000704700000023002400250026DE
:10022000103A28BF78C1FBD8520728BF30C148BF59
:100230000B6070471FB502F0FAFE1FBD10B510BD70
:1002400000F0D0F81146FFF7F5FF02F087FE00F04E
:10025000EEF803B4FFF7F2FF03BC00F0F5F800007E
:100260000948804709480047FEE7FEE7FEE7FEE74A
:10027000FEE7FEE7FEE7FEE7FEE7FEE70448054986
:10028000054A064B70470000412C00089501000804
:10029000F8020020F8080020F8040020F8040020EC
:1002A00053EA020C00F069802DE9F04B4FF0000694
:1002B000002B1FBFB3FA83F503FA05F424FA05F601
:1002C0005E4012BF1643B2FA82F502FA05F4C5F198
:1002D00020051EBF22FA05FC44EA0C04203556EA2C
:1002E000044C4FEA144418BF641C4FF000084FF050
:1002F0000009904271EB030C39D3002919BFB1FA00
:1003000081F701FA07F6B0FA80F700FA07F6C7F1AD
:1003100020071EBF20FA07FC46EA0C062037B6FB72
:10032000F4FCA7EB0507103F07F01F0BCBF12006ED
:100330002CFA06F60CFA0BFB44BFB3460026202F1E
:10034000A4BF5E464FF0000B5BEA060C08BF4FF0FF
:10035000010B19EB0B0948EB0608ABFB027C06FB13
:1003600002CC0BFB03CCC01B71EB0C01C1E70B46AD
:10037000024641464846BDE8F08B13B5084318BF16
:100380004FF0FF300146AFF30080BDE81C407047DE
:100390004FF0000200B5134694469646203922BF1E
:1003A000A0E80C50A0E80C50B1F12001BFF4F7AF69
:1003B000090728BFA0E80C5048BF0CC05DF804EB4B
:1003C000890028BF40F8042B08BF704748BF20F8B9
:1003D000022B11F0804F18BF00F8012B70477047B7
:1003E00070477047754600F02BF8AE460500694629
:1003F000534620F00700854618B020B5FFF73EFFB2
:10040000BDE820404FF000064FF000074FF0000815
:100410004FF0000BAC46ACE8C009ACE8C009ACE852
:10042000C009ACE8C00921F007018D46704710B53E
:100430000446AFF300802046BDE81040FFF709BF37
:10044000004870474800002001491820ABBEFEE775
:100450002600020070470000FEE7000070B540F281
:10046000200C040CC2F2000C8CF806400C0C0D0A97
:100470008CF80A40140C4FEA102E8CF80950150A1B
:100480008CF80E401C0C8CF805E08CF80D501D0A01
:100490008CF812409CF800E09CF801408CF8115058
:1004A0009CF802507444254474442C4410352C4468
:1004B00005442C4405EB10252C4405EB1045060E95
:1004C0008CF804002C4405EB1060044408440444F8
:1004D00000EB1120044400EB1140044400EB1160D8
:1004E0008CF807600E0E8CF80810011910440144B6
:1004F00000EB1220014400EB1240014400EB1260BB
:1005000001441844014400EB1320014400EB134064
:100510008CF80B60160E014400EB13608CF80F6032
:100520001E0E01448CF8140041F200008CF8136098
:100530001026C4F201008CF803608CF80C208CF8B3
:1005400010308CF815100168490609D40168490675
:100550005CBF01685FEA416102D401684906F2D5D7
:10056000C0F804E00168490609D4016849065CBF87
:1005700001685FEA416102D401684906F2D59CF83E
:10058000011041600168490609D4016849065CBF51
:1005900001685FEA416102D401684906F2D59CF81E
:1005A000021041600168490609D4016849065CBF30
:1005B00001685FEA416102D401684906F2D59CF8FE
:1005C000031041600168490609D4016849065CBF0F
:1005D00001685FEA416102D401684906F2D59CF8DE
:1005E000041041600168490609D4016849065CBFEE
:1005F00001685FEA416102D401684906F2D59CF8BE
:10060000051041600168490609D4016849065CBFCC
:1006100001685FEA416102D401684906F2D59CF89D
:10062000061041600168490609D4016849065CBFAB
:1006300001685FEA416102D401684906F2D59CF87D
:10064000071041600168490609D4016849065CBF8A
:1006500001685FEA416102D401684906F2D59CF85D
:10066000081041600168490609D4016849065CBF69
:1006700001685FEA416102D401684906F2D59CF83D
:10068000091041600168490609D4016849065CBF48
:1006900001685FEA416102D401684906F2D59CF81D
:1006A0000A1041600168490609D4016849065CBF27
:1006B00001685FEA416102D401684906F2D59CF8FD
:1006C0000B1041600168490609D4016849065CBF06
:1006D00001685FEA416102D401684906F2D59CF8DD
:1006E0000C1041600168490609D4016849065CBFE5
:1006F00001685FEA416102D401684906F2D59CF8BD
:100700000D1041600168490609D4016849065CBFC3
:1007100001685FEA416102D401684906F2D59CF89C
:100720000E1041600168490609D4016849065CBFA2
:1007300001685FEA416102D401684906F2D59CF87C
:100740000F1041600168490609D4016849065CBF81
:1007500001685FEA416102D401684906F2D59CF85C
:10076000101041600168490609D4016849065CBF60
:1007700001685FEA416102D401684906F2D59CF83C
:10078000111041600168490609D4016849065CBF3F
:1007900001685FEA416102D401684906F2D59CF81C
:1007A000121041600168490609D4016849065CBF1E
:1007B00001685FEA416102D401684906F2D59CF8FC
:1007C000131041600168490609D4016849065CBFFD
:1007D00001685FEA416102D401684906F2D59CF8DC
:1007E000141041600168490609D4016849065CBFDC
:1007F00001685FEA416102D401684906F2D59CF8BC
:100800001510416070BD0000704700004FF480502B
:1008100000F060B872B600BFFEE7000070B5866DEC
:10082000044600F039F994F83510022928D105461C
:100830002068216C026822F016020260426922F0F0
:100840008002426109B9A16C19B1016821F0080167
:100850000160016821F00101016000BF20680068AB
:10086000C00715D000F018F9401B0628F6D3202049
:100870006065032084F83500002184F8341070BDD1
:10088000802060650120002184F8341070BD00BF15
:10089000E06D3F2101FA00F0B060012084F83500DE
:1008A0000020002184F8341070BD000090F835104D
:1008B000022909D1052180F835100068016821F06E
:1008C00001010160002070478021416501207047CF
:1008D0007047000043F61441C4F201010A68024265
:1008E00014BF08607047FFF7F3BF00002DE9F04F19
:1008F00083B000F1200200F13E4741F20005009272
:1009000007F1FF77C4F2020507224FEAB726A84293
:1009100008BF042200254FF000084FF00009042E04
:1009200038BF4FEAB72201920AE000BF09F101097E
:1009300008F10208B9F1100F05F1040500F0A280DA
:100940000F68012202FA09FE17EA0E0AEED0D1F86A
:1009500004C003220CF003077E1E02FA08F4012EE5
:100960006FEA040B12D88468CE6804EA0B0406FA16
:1009700008F634438460446824EA0E06CCF300147D
:1009800004FA09F42643466004E000BF032F01D1B6
:1009900003271EE0C6688C6806EA0B0604FA08F412
:1009A0002643022FC66014D16FF00302009E02EAB4
:1009B000590756F807C005F01C040F220B69A24026
:1009C0002CEA0202A3401A43F251D1F804C00CF001
:1009D0000307026807FA08F302EA0B021A431CF441
:1009E000403F0260A2D0002243F644030292C4F2C8
:1009F00002031A6843F6004442F480421A601A68FF
:100A0000C4F2010402F480420292029A29F0030225
:100A10004FF6084C2244CFF6FF7C52F80C3005F01C
:100A20000C070F26BE40B343019E06FA07F73B436F
:100A300042F80C30A2684B6842EA0A0743F60C4CB5
:100A4000DE0258BF22EA0A07A760C4F2010CDCF8F4
:100A500000209E0242EA0A0758BF22EA0A07CCF8A1
:100A6000007062689E0342EA0A0758BF22EA0A073A
:100A700067602268DB0342EA0A0758BF22EA0A07D6
:100A8000276053E703B0BDE8F08F0000002A08BFDD
:100A9000090481617047000040F2F020C2F20000BA
:100AA0000068704740F2000040F2F021C2F20000FE
:100AB000C2F2000100780A68104408607047000024
:100AC00080B543F60040C4F20200016841F40071B1
:100AD0000160016841F480610160016841F4807146
:100AE0000160032000F086F80F2000F005F800F008
:100AF00027F8002080BD000070B540F20006C2F269
:100B0000000640F240013278C2F200014FF47A73DD
:100B10000968B3FBF2F20446B1FBF2F1084600F0BB
:100B200061FB0F2C4FF0010508D838B94FF0FF30AA
:100B300021460022002500F031F87460284670BD7F
:100B400082B0002043F640010190C4F202014A68DD
:100B500042F480424A604A6802F480420192019A5B
:100B60000090086840F080500860086800F08050ED
:100B70000090009802B07047002848BF704700F00E
:100B80001F01012202FA01F11C2202EAD0004EF2FA
:100B90000012CEF2000281507047000010B54EF6F0
:100BA0000C5CCEF2000CDCF80030C3F3022E8EF0A9
:100BB0000704042C28BF0424BEF103034FF0FF3EBA
:100BC0000EFA04F438BF0023A14399400EFA03F350
:100BD0009A43114300F00F0200F160430901043A07
:100BE00003F564436244002848BF02F10C03197006
:100BF00010BD00004EF60C51CEF200010A684FF60F
:100C0000FF031A4060F30A2242F0806040F0FD705A
:100C100008607047002804BF012070472DE9F041AB
:100C200043F60808C4F202080446D8F8F8030D4653
:100C300000F00700814207D988F8F853D8F8F80384
:100C400000F00700A84277D12068810717D5410737
:100C500005D5D8F8001041F4E051C8F8001001079C
:100C600005D5D8F8001041F46041C8F80010D8F854
:100C70000010A26821F0F0011143C8F80010C0076D
:100C800040D1D8F8F80300F00700854207D288F871
:100C9000F853D8F8F80300F00700A8424CD12068B8
:100CA000410707D5D8F80010E26821F4E05111435C
:100CB000C8F80010000708D5D8F80000216920F412
:100CC000604040EAC100C8F8000000F07DF8D8F8A4
:100CD000001043F24802C1F30311C0F60002515C58
:100CE00040F2400220FA01F140F20400C2F200009A
:100CF0000068C2F200021160FFF7FEFE0020BDE8AE
:100D0000F08100BF6068811E022907D258F8081CD4
:100D100089015CBF0120BDE8F08111E0012807D105
:100D200058F8081C89035CBF0120BDE8F08107E08A
:100D300058F8081C890703D40120BDE8F08100BFE2
:100D4000D8F8001021F003010843C8F80000FFF7AD
:100D5000A3FE064641F28837D8F80000616800F02B
:100D60000C00B0EB810F8CD0FFF796FE801BB842D1
:100D7000F2D90320BDE8F08140F2400043F60801BB
:100D8000C2F20000C4F202010068096843F258028E
:100D9000C1F38221C0F60002515CC84070470000D8
:100DA00040F2400043F60801C2F20000C4F2020122
:100DB0000068096843F25802C1F34231C0F60002EC
:100DC000515CC8407047000010B543F60404C4F2FB
:100DD00002046168C1F3810142F20040C0F2F400F4
:100DE000DFE801F002040A0210BD00BF47F6400030
:100DF000C0F27D1010BD00BF206821682368490241
:100E000047F64001C0F27D1100F03F02C3F38810A5
:100E10005CBF42F20041C0F2F401A1FB00010023DB
:100E2000FFF73EFA21680222C1F3014102EB4101C2
:100E3000B0FBF1F010BD0000002804BF0120704796
:100E40002DE9F04182B00446007843F60006C00761
:100E5000C4F202060CD0B06800F00C00042840F088
:100E600081803068800303D56068002800F06881C5
:100E7000207880071BD5B06810F00C0F09D0B0683F
:100E800000F00C00082840F087807068400200F1F4
:100E900083803068800703D5E068012840F05081E6
:100EA0003068216920F0F80040EAC1003060207805
:100EB000000713D4207840072AD4A569002D00F03C
:100EC0003A81B06800F00C00082840F0A580012DA0
:100ED00040F00E81012002B0BDE8F0816069002879
:100EE00000F082800020C4F247200121C0F8801E5B
:100EF000FFF7D2FD054600BF706F8007DAD4FFF719
:100F0000CBFD401B0228F7D9032002B0BDE8F081D9
:100F1000306C5FEAC0080AD400200190306C40F0C9
:100F200080503064306C00F080500190019847F29E
:100F30000007C4F200073868C00547D4386840F499
:100F400080703860FFF7A8FD054600BF3868C0050F
:100F50003CD4FFF7A1FD401B0228F7D9032002B0C3
:100F6000BDE8F081B06800F00C00082803D170687B
:100F700040023FF576AF61683068B1F5803F07D039
:100F8000B1F5A02F40F09A8040F4802030603068A6
:100F900040F4803030609AE0E068002840F20000C1
:100FA000C4F247205CD001210160FFF775FD0546C2
:100FB000306880073FF574AFFFF76EFD401B0228D5
:100FC000F6D9032002B0BDE8F08100BFA168306F00
:100FD000012905D0052955D140F004003067306F54
:100FE00040F00100306756E00020C4F247200021A5
:100FF000C0F8801EFFF750FD054600BF706F8007E8
:101000007FF558AFFFF748FD401B0228F6D90320B3
:1010100002B0BDE8F08100BF0027C4F247270020DE
:101020003866FFF739FD022D05460DD13068800185
:1010300040F18A80FFF730FD401B02284FF003008B
:10104000F4D902B0BDE8F0813068800173D5FFF7B4
:1010500023FD401B02284FF00300F5D9F1E700BF44
:1010600000210160FFF718FD054600BF30688007CA
:101070007FF51DAFFFF710FD401B02284FF0030066
:10108000F4D9DEE720F001003067306F002920F04E
:10109000040030677AD0FFF7FFFC054641F288373D
:1010A000306F800700F18480FFF7F6FC401BB842E8
:1010B000F6D9032002B0BDE8F08100BF20F48030F3
:1010C00030603068002920F4802030607AD0FFF74B
:1010D000E3FC0546306880033FF5CAAEFFF7DCFC51
:1010E000401B6428F6D9032002B0BDE8F08100BFA0
:1010F0007068E16900F480028A4221D1216A00F01F
:101100003F028A421CD147F6C071626A0140B1EBCE
:10111000821F15D1A16A4FF6FF73C903994300F4EA
:101120004032A1F580318A420AD1E16A00F0706054
:10113000B0EB016F04D1002002B0BDE8F08100BF28
:10114000012002B0BDE8F08104F11C052FCD084359
:1011500040EA8210D9034FF6FF729143A1F5803126
:1011600040EA05600843706001203866FFF794FC90
:10117000044600BF30688001DDD4FFF78DFC001B02
:1011800002284FF00300F5D95BE700BFFFF784FCAE
:10119000054641F2883700BF306F800708D5FFF75A
:1011A0007BFC401BB8424FF00300F5D949E700BF74
:1011B000B8F1000F3FF581AE306C20F08050306404
:1011C0007BE600BFFFF768FC054600BF3068800380
:1011D0007FF54EAEFFF760FC401B64284FF0030024
:1011E000F4D92EE7411E0020B0EB116F1CBF012087
:1011F00070474EF21002CEF2000251604EF62351BB
:10120000CEF20001F0230B7007219060116070474F
:10121000704700007047000090F83C20012A04BF8E
:1012200002207047B0B501F108053CCDD1E900CEF0
:1012300023F47C5322F470521A432EF4F0431A43E1
:101240002CF4E0431A4324F4C0431A432A43C969E7
:1012500022F48042036811435964002180F83C1055
:101260000020B0BD90F83C20012A4FF0020241D08E
:1012700010B580F83D200268D2F804E0D2F808C02A
:101280000C682EF07003234340F6FF34C4F20004D0
:10129000A242536010DCB2F1804F1ED040F20043F6
:1012A000C4F200039A4218D040F60003C4F20003CF
:1012B0009A4212D016E000BF40F60043C4F2000389
:1012C0009A420AD044F20003C4F201039A4204D0C5
:1012D0000023C4F201039A4204D149682CF0800330
:1012E000194391600121002280F83D1080F83C20D4
:1012F000BDE810401046704790F83D1001291CBF12
:1013000001207047022180F83D10006840F6FF324E
:10131000C168C4F20002904241F00101C1600FDCDB
:10132000B0F1804F1DD040F20041C4F2000188426C
:1013300017D040F60001C4F20001884211D017E036
:1013400040F60041C4F2000188420AD044F2000194
:10135000C4F20101884204D00021C4F20101884294
:1013600006D1816801F00701062904BF00207047FB
:10137000016841F00101016000207047002804BFAE
:10138000012070472DE9F047044690F83D000D46D6
:1013900028B9002084F83C00204600F049F80220DB
:1013A00084F83D00206844F207028168914381601F
:1013B000211D01F055FC20684FF6FF788168826995
:1013C000D0F820C0D5E9003ED5E9026A43EA010918
:1013D000AB6922EA080246EA03234FF6FC46B34310
:1013E000D5E9076742EA0A0229691A4342EA062256
:1013F00042EA01112CF0AA026B6942EA0E0241EAAC
:10140000073142EA0312C0F80890816102620120AC
:1014100084F8460084F83E0084F83F0084F84200D7
:1014200084F8430084F83D000020BDE8F087000008
:10143000F0B587B00068002100F140404FEAB020CD
:1014400003280691CDE904110391029100F2AD80C9
:10145000DFE800F00284405C002443F63000019491
:10146000C4F20200016940F2004741F0010101614C
:101470000169C4F2020701F001010191019901948F
:101480000168022541F0010101600168012601F0B7
:101490000101019101990194016841F0020101608B
:1014A000006802A900F00200019001984FF400408A
:1014B0000290A7F58060CDE9035405940696FFF7E6
:1014C00015FA08213846CDE90215CDE904440696FF
:1014D00068E000BF002043F630010190C4F2020131
:1014E0000A6942F004020A610A6902F004020192E8
:1014F000019A01900A6842F002020A60096801F04C
:10150000020101910199C02142E000BF002043F691
:1015100030010190C4F202010A6942F008020A6136
:101520000A6902F008020192019A01900A6842F0E9
:1015300001020A60096801F001010191019903218A
:1015400002910221CDE90310CDE9050140F20040EE
:10155000C4F20200A0F5806024E000BF002043F642
:1015600030010190C4F202010A6942F002020A61EC
:101570000A6902F002020192019A01900A6842F09F
:1015800002020A60096801F002010191019930210B
:10159000029102210490059040F2004003910691CF
:1015A000C4F2020002A9FFF7A1F907B0F0BD0000E4
:1015B00080B590F83E2090F83F3090F842E090F8E7
:1015C00043C004290AD0B9B9012A4FF0010208BF6B
:1015D000BEF1010F34D0104680BD00BF012B4FF08B
:1015E000010208BFBCF1010FF5D1022180F83F10C4
:1015F00080F8431000681EE0012A4FF0010208BF86
:10160000012BE8D1BEF1010FE5D1BCF1010FE2D110
:10161000022280F83E2080F83F2080F8422080F8A7
:10162000432091B10068016A21F001010162016A61
:1016300041F00101016210216FF0100209E000BFCA
:10164000022180F83E1080F84210006801216FF0FE
:101650000102036A1A400262026A114301620168D0
:10166000002241F001010160104680BD704700007A
:1016700070B504460068C5680669B10716D515F04F
:10168000020113D06FF0020101610121217780690D
:10169000800703D02046FFF7E9FF05E0204600F071
:1016A0008FF8204600F0F4F900202077700719D554
:1016B00015F0040016D020686FF0040101610221CA
:1016C0002177806910F4407F04D02046FFF7CEFFD9
:1016D00006E000BF204600F073F8204600F0D8F97D
:1016E00000202077300717D515F0080014D02068A7
:1016F0006FF00801016104212177C069800703D0E0
:101700002046FFF7B3FF05E0204600F059F82046D9
:1017100000F0BEF900202077F00619D515F0100072
:1017200016D020686FF01001016108212177C0698F
:1017300010F4407F04D02046FFF798FF06E000BF7A
:10174000204600F03DF8204600F0A2F90020207766
:10175000F00718BF15F0010002D1300609D412E0DD
:1017600020686FF001010161204600F00BFA30069D
:1017700009D515F0800006D020686FF08001016166
:101780002046FFF745FD700609D515F0400006D04C
:1017900020686FF040010161204600F0E1FAB006D8
:1017A00058BF70BD15F0200008D021686FF02002EE
:1017B00020460A61BDE87040FFF72CBD70BD0000F7
:1017C0007047000090F83C30012B04BF02207047A6
:1017D0004FEAB202032A00F2ED802DE9F043DFE880
:1017E00002F003A3397300BF036800261D6A1A6A5A
:1017F000C4F2010622F001021A621A465C6852F82D
:1018000018CFB3428E68D1F800E025F0020545EA12
:1018100006050CD1CE68D1E9057824F4407425F092
:101820000C0526F004063C43354344EA08042CF03A
:10183000730747EA0E075C609F614F6809695F6341
:101840001D629F6947F008079F619F6927F00407A1
:101850009F61A4E0036800261D6A1A6AC4F20106AB
:1018600022F480721A621A46D3F804C052F81CEFB0
:10187000B3428E680C6825F4007545EA06250FD141
:10188000CE68D1E90598360240F2FF4725F440655D
:10189000BE4335432CF4405748EA090647EA061C84
:1018A0002EF073072743C3F804C0DF614F6809694E
:1018B000DF631D62DF6947F00807DF61DF6927F03A
:1018C0000407DF616BE000BF03680027D3F820C086
:1018D0001A6AC4F2010722F480521A621A465C683E
:1018E00052F81C5FD1F800E08E68BB4204D14F690A
:1018F00024F4804444EA87142CF4005747EA06375E
:1019000025F4E64646EA0E265C60DE614E6809690B
:101910001E641F62DF6947F40067DF61DF6927F437
:101920008067DF613AE000BF036800261D6A1A6A1B
:10193000C4F2010622F010021A621A46D3F804C05B
:1019400052F8184FB3428E68D1F800E025F0200518
:1019500045EA06150FD1CE68D1E905986FF040072A
:1019600025F0C00507EA061635432CF4406748EA1F
:10197000090647EA860C24F4E64444EA0E27C3F835
:1019800004C09F614F6809699F631D629F6947F4A6
:1019900000679F619F6927F480679F610902136850
:1019A000194311600021BDE8F043002280F83C207B
:1019B000084670470121002280F83C200846704705
:1019C000002804BF0120704710B5044690F83D0080
:1019D00028B9002084F83C00204600F01FF80220BF
:1019E00084F83D002068211D01F03AF9012084F8B7
:1019F000460084F83E0084F83F0084F8400084F8F4
:101A0000410084F8420084F8430084F8440084F8DC
:101A1000450084F83D00002010BD000080B582B074
:101A2000006844F20001C4F2010188421ED0002186
:101A3000C4F20101884228D10020019043F64400FD
:101A4000C4F202000168002241F001010160006857
:101A5000002100F00100019001981920FFF79EF885
:101A6000192002B0BDE88040FFF786B80020009042
:101A700043F64400C4F20200016841F48031016081
:101A8000006800F480300090009802B080BD000033
:101A900070470000C1B1042908D0082914BF4122B1
:101AA0004022825C012A05D016E000BF3F22825C02
:101AB000012A11D10222082910D0042914BF80F86C
:101AC000412080F83F200BE090F83E20012A03D10E
:101AD000022280F83E2003E00120704780F8402079
:101AE000006801F01F010122036A8A4023EA020113
:101AF0000162036A4421C4F201011A43A1F14403C3
:101B00009842026216D040F6FF31C4F200018842CA
:101B10001ADCB0F1804F28D040F20041C4F200013D
:101B2000884222D040F60001C4F2000188421CD055
:101B300022E000BF0A6842F400420A6040F6FF312A
:101B4000C4F200018842E4DD40F60041C4F2000125
:101B500088420AD044F20001C4F20101884204D054
:101B60000021C4F20101884206D1816801F0070119
:101B7000062904BF00207047016841F0010101609F
:101B8000002070472DE9F04381B040F2F801C2F225
:101B9000000140F2A80940F244088842C2F200095C
:101BA000C2F2000840F0CF8099F80000012811D15E
:101BB000002000210122002600F0A8FF00200021C3
:101BC000012200F017FC40F2C800C2F200000660DB
:101BD00089F8006040F24010C2F20000006840F254
:101BE0008812D0F824C0C2F200021268A9F802C01C
:101BF00040F2D016536AC2F200063668A9F80430E3
:101C000040F21827756AC2F200073F68A9F806502B
:101C10007C6A0021A9F8084041625162CCF10000C1
:101C20001AB271627962A9F80A00694202FA80F078
:101C300000FA81F000FA84F000EB9070A9F80E1021
:101C40008110D9F81820A9F81210D8F8001002EB6A
:101C5000A000421AA9F80C30A9F81040C9F81800E1
:101C600048BF5242312A0FD8002000F0B3FE0020B6
:101C700000F0D8FE002000F0FDFE002000F01EFF66
:101C8000012089F800005EE0002200F03FFF00EE36
:101C9000100AB8EEC00ABDEEC00A4FF6095110EEA8
:101CA000100ACFF6FF718842C8BF014640F2F72004
:101CB0008142A8BF014600EE101AB8EEC00A89EDB5
:101CC000070AB9F91200BDEEC00A10EE101A002280
:101CD00000F090FB00EE100AB8EEC00ABDEEC00A9C
:101CE0004FF6A85110EE100ACFF6FF7110F5167FCF
:101CF000C8BF0146B1F5167FA8BF4FF4167100EEBC
:101D0000101AB8EEC00A89ED050ABDEEC00A10EE41
:101D1000100A00F05FFE99ED050ABDEEC00A10EE54
:101D2000100A00F07FFE99ED050ABDEEC00A10EE24
:101D3000100A00F09FFE99ED050ABDEEC00A10EEF4
:101D4000100A00F0BBFED9F81820D8F80000B9F945
:101D50001210134601B0BDE8F043FEF77FBB000050
:101D6000704700007047000070470000B0B582B0B7
:101D700001680A68CC684B6902F02F05202D04F039
:101D8000200505D125B102B0BDE8B04000F0EABFA2
:101D90005FEA027C1EBF03F0010E04F4907313EBA4
:101DA0000E0341D1036BD50618D5012B16D114F0C3
:101DB000100313D0002201920A6801924A6801922E
:101DC000019A496949064BD4818DC28DC38D002B80
:101DD00018BF914240F0068202B0B0BD13062DD567
:101DE00014F080032AD090F84120212AF4D182688F
:101DF000B2F5805F03D10269002A00F07982026A9D
:101E0000531C036212784A60C28C013A1304C284E4
:101E1000E2D1C86820F08000C860C86840F0400087
:101E2000C86002B0B0BD00BFD30718BF14F4807300
:101E300040F0E280530700F1E580EAE05206CBD59E
:101E400014F04002C8D0CA6822F04002CA602021C3
:101E500080F8411002B0BDE8B04000F0C7BA00BF42
:101E6000C26B11684B68858D99B2002900F0B4806F
:101E7000A94280F0B180C385D169B1F5807F00F0BF
:101E8000A080016851E8031F026821F4807142E8D4
:101E90000313DBB1016851E8031F026821F480716C
:101EA00042E8031393B1016851E8031F026821F46B
:101EB000807142E803134BB1016851E8031F0268C7
:101EC00021F4807142E80313002BDAD1016851E854
:101ED000051F026821F0010142E80513BBB3016848
:101EE00051E8051F026821F0010142E8051373B3B0
:101EF000016851E8051F026821F0010142E805135D
:101F00002BB3016851E8051F026821F0010142E886
:101F10000513002BDAD11AE0016851E8051F0268A9
:101F200021F0400142E80513DBB1016851E8051FCB
:101F3000026821F0400142E8051393B1016851E8BD
:101F4000051F026821F0400142E805134BB101680A
:101F500051E8051F026821F0400142E80513002BFB
:101F6000DAD1202180F8421000210163016851E894
:101F7000031F026821F0100142E80313DBB101687E
:101F800051E8031F026821F0100142E8031393B1E6
:101F9000016851E8031F026821F0100142E80313B1
:101FA0004BB1016851E8031F026821F0100142E8BB
:101FB0000313002BDAD1C16B04460846FEF72EFC52
:101FC000204602214163818DC28D891A89B202B0F7
:101FD000BDE8B040FFF7C6BE8D427FF4FDAED269CA
:101FE000B2F5807F7FF4F8AE0222426302B0BDE812
:101FF000B040FFF7B7BE00BF436C43F0010343643A
:10200000530706D5BEF1000F03D0436C43F0020323
:102010004364930706D5BEF1000F03D0436C43F031
:1020200004034364BCF1000F06D55EEA050303D048
:10203000436C43F008034364436C002B3FF4CCAE85
:10204000920605D525B1044600F08CFE2168204695
:102050004969426C01F0400102F00802891800F061
:10206000B98000BF016851E8031F026821F4907134
:1020700042E80313BBB3016851E8031F026821F46F
:10208000907142E8031373B3016851E8031F0268BB
:1020900021F4907142E803132BB3016851E8031F48
:1020A000026821F4907142E80313002BDAD11AE0A0
:1020B000016851E8051F026821F0010142E805139B
:1020C000DBB1016851E8051F026821F0010142E817
:1020D000051393B1016851E8051F026821F0010161
:1020E00042E805134BB1016851E8051F026821F071
:1020F000010142E80513002BDAD1016B012924D13B
:10210000016851E8031F026821F0100142E803133F
:10211000DBB1016851E8031F026821F0100142E8B9
:10212000031393B1016851E8031F026821F0100105
:1021300042E803134BB1016851E8031F026821F024
:10214000100142E80313002BDAD1202180F842105D
:102150000021016301684969490640F1C3800168B3
:1021600051E8051F026821F0400142E80513DBB188
:10217000016851E8051F026821F0400142E805139B
:1021800093B1016851E8051F026821F0400142E85F
:1021900005134BB1016851E8051F026821F04001A9
:1021A00042E80513002BDAD1C16B002900F09A80B8
:1021B00042F65952C0F60002044608460A65FEF788
:1021C00075FB00283FF408AEE06B016D02B0BDE87E
:1021D000B04008470446FFF7C7FD0020606402B026
:1021E000B0BD00BF891A00BF026852E8032F036820
:1021F00022F4907243E80325BDB3026852E8032F2E
:10220000036822F4907243E8032575B3026852E82C
:10221000032F036822F4907243E803252DB302686C
:1022200052E8032F036822F4907243E80325002D3F
:10223000DAD11AE0026852E8052F036822F00102A1
:1022400043E80525DDB1026852E8052F036822F056
:10225000010243E8052595B1026852E8052F03689D
:1022600022F0010243E805254DB1026852E8052F2E
:10227000036822F0010243E80525002DDAD120226F
:1022800080F8422000220263026852E8032F0368AC
:1022900022F0100243E80325DDB1026852E8032F63
:1022A000036822F0100243E8032595B1026852E862
:1022B000032F036822F0100243E803254DB10268A2
:1022C00052E8032F036822F0100243E80325002D93
:1022D000DAD1022289B2426302B0BDE8B040FFF712
:1022E00041BD00BF02B0BDE8B040FFF73DBD00BF3B
:1022F000026A32F8023B6FF35F234B60026283E5B0
:10230000002804BF0120704710B5044690F8410032
:1023100028B9002084F84000204600F021F824204D
:1023200084F841002068C16821F40051C160204652
:1023300000F098FD2068016921F490410161416934
:1023400021F02A014161C16841F40051C1600020BF
:102350002021606484F8411084F84210606310BD4D
:1023600080B586B041F200010068C4F2010100228C
:1023700088420592CDE903220292019202D006B072
:1023800080BD00BF43F630000092C4F202004369F2
:1023900043F010034361436903F010030093009B73
:1023A0000092036843F001030360006800F001003D
:1023B000009000984FF4C06001900220CDE9020225
:1023C000032004900720059001F5704001A9FEF755
:1023D0008DFA252000210022FEF7E0FB2520FEF7E4
:1023E000CBFB06B080BD00007047000070470000C6
:1023F000FEE70000012A40F2C802C2F2000207D143
:102400009FED1E2A0020B0EE420AB0EE421A2CE0E8
:10241000081A00EE100A40F20800C2F2000092ED25
:10242000031AB8EEC00A90ED035A30EE414A92ED1D
:10243000042A90ED046A25EE044A31EE015A90ED2B
:10244000057A30EE455A26EE006A35EE022A92ED04
:102450000A3A34EE064A27EE022A32EE042A33EE16
:10246000022ABDEEC23A13EE100A82ED0A2A82ED6C
:10247000020A82ED030A82ED041A70470000000090
:102480002DE9F04387B0002443F630000694CDE9EF
:102490000444CDE902440194C4F20200016840F210
:1024A000000841F0040101600168C4F2020801F073
:1024B0000401019101990194016808F5006541F05A
:1024C000800101600168002201F080010191019901
:1024D000019401684FF4005741F001010160016867
:1024E00001F00101019101990194016841F002019B
:1024F000016000684FF4005100F002000190019863
:102500002846FEF7C3FA404650210022FEF7BEFAE5
:102510004046A02101224FF00109FEF7B7FA08F565
:10252000806630464FF4A0410022FEF7AFFA3046F5
:102530004FF420410122FEF7A9FACDE9027902AF5A
:1025400028463946CDE90444FEF7D0F9F020CDE91C
:10255000020940463946CDE90444FEF7C7F94FF475
:102560007040CDE9020930463946CDE90444FEF712
:10257000BDF94FF4805002904FF48810CDE9030963
:1025800040463946FEF7B2F9282000210022FEF726
:1025900005FB2820FEF7F0FA07B0BDE8F083000045
:1025A00070B598B0002540F2F800C4F20105002192
:1025B000C2F2000040F2473240F2E7331191CDE918
:1025C0000F11CDE90D11CDE90B11CDE90911CDE9BF
:1025D0000711CDE90511CDE90311CDE90111C0E9DC
:1025E0000052C0E90213C0E904118161FFF7E8F964
:1025F000002818BFFEF70EF940F2F800C2F2000002
:1026000010A9FEF72FFE002818BFFEF703F960207F
:1026100009900020CDE90A00CDE90C00CDE90E00BB
:1026200040F2F800C2F2000009A90022FFF7CAF840
:10263000002818BFFEF7EEF840F2F800C2F20000E2
:1026400009A90C22FFF7BEF8002818BFFEF7E2F830
:1026500040F2F8044FF40050C2F200040026069045
:1026600001A920460596CDE90366CDE901660896E5
:10267000FEF7D2FD002818BFFEF7CCF8206844F220
:102680000001C4F2010188421796CDE91566CDE933
:10269000136615D0A84230D10020129043F63000C6
:1026A000C4F20200016841F00101016000684FF4CA
:1026B000106100F0010012901298012011E000BF9B
:1026C0000020129043F63000C4F20200016841F08D
:1026D0000101016000680C2100F0010012901298C5
:1026E00003201391022114910021CDE915111790B7
:1026F00005F5803013A9FEF7F9F818B070BD000099
:1027000080B58CB040F240100021C2F200004FF0C2
:102710008042C0E9002103224FF0FF33CDE90321BD
:102720000122CDE90011C0E9021301618161CDE907
:102730000521CDE90711CDE909210B9103A9FEF788
:102740001DFE002818BFFEF765F840F24010C2F2E7
:1027500000006946FEF786FD002818BFFEF75AF80C
:102760000CB080BD80B58CB040F2881040F20042C1
:102770000021C2F20000C4F20002C0E900210322DD
:102780004FF6FF73CDE903210122CDE90011C0E925
:10279000021301618161CDE90521CDE90711CDE980
:1027A00009210B9103A9FEF7E9FD002818BFFEF7E8
:1027B00031F840F28810C2F200006946FEF752FD7F
:1027C000002818BFFEF726F80CB080BD80B58CB08D
:1027D00040F2D01040F600020021C2F20000C4F224
:1027E0000002C0E9002103224FF6FF73CDE9032167
:1027F0000122CDE90011C0E9021301618161CDE937
:102800000521CDE90711CDE909210B9103A9FEF7B7
:10281000B5FD002818BFFDF7FDFF40F2D010C2F251
:1028200000006946FEF71EFD002818BFFDF7F2FF05
:102830000CB080BD80B58CB040F2182040F600424C
:102840000021C2F20000C4F20002C0E9002103220C
:102850004FF0FF33CDE903210122CDE90011C0E99A
:10286000021301618161CDE90521CDE90711CDE9AF
:1028700009210B9103A9FEF781FD002818BFFDF780
:10288000C9FF40F21820C2F200006946FEF7EAFCD8
:10289000002818BFFDF7BEFF0CB080BDB0B58EB0EC
:1028A00044F2000540F26020C4F201050024C2F2A7
:1028B000000040F2473140F2E732CDE90644CDE96D
:1028C0000444C0E90051C0E9024204618461FFF799
:1028D00077F8002818BFFDF79DFF6020CDE90104BF
:1028E00040F26020C2F2000001A900220394059486
:1028F000FEF768FF002818BFFDF78CFF40F2602448
:10290000C2F2000401A920460422FEF75BFF002862
:1029100018BFFDF77FFF21680020A9420D90CDE987
:102920000B000A90099017D00020C4F201008142E8
:102930002ED10020089043F63000C4F20200016856
:1029400041F00101016000684FF4106100F00100E6
:102950000890089801200FE0089043F63000C4F278
:102960000200016841F00101016000680C2100F0E3
:102970000100089008980320099102210A91002182
:10298000CDE90B110D9005F5404009A9FDF7AEFF0B
:102990000EB0B0BD80B540F2A82041F20001C2F2F5
:1029A0000000C4F2010100234FF00C0C4FF4E1329F
:1029B00080E80E00C0E90333C0E905C3C361FFF737
:1029C0009FFC002808BF80BDBDE88040FDF722BF06
:1029D000FEE70000B0B540F20045C4F2020504462F
:1029E000002828464FF480410AD40122FEF74EF811
:1029F00028464FF400410022FEF748F80AE000BFE5
:102A00000022FEF743F828464FF400410122FEF76A
:102A10003DF8644240F2F800C2F2000000684463EE
:102A2000B0BD0000B0B540F20045C4F20205044656
:102A3000002828464FF400510AD40122FEF726F858
:102A400028464FF480510022FEF720F80AE000BF2C
:102A50000022FEF71BF828464FF480510122FEF7B2
:102A600015F8644240F2F800C2F200000068046405
:102A7000B0BD0000B0B50025C4F202050446002830
:102A800028464FF0200109D40022FDF7FFFF284619
:102A900010210122FDF7FAFF09E000BF0122FDF736
:102AA000F5FF284610210022FDF7F0FF644240F2B6
:102AB0006020C2F2000000684463B0BDB0B50025DC
:102AC000C4F202050446002828464FF0400109D40C
:102AD0000122FDF7DBFF284680210022FDF7D6FF0B
:102AE00009E000BF0022FDF7D1FF28468021012226
:102AF000FDF7CCFF644240F26020C2F200000068A3
:102B00008463B0BDFEE7000070470000012A40F278
:102B1000C802C2F2000203D10021002011627047F6
:102B2000091A106841F288330844D2F820C098424C
:102B3000B8BF03464EF67840CFF6FF708342D8BF49
:102B4000034640F20800C2F2000000EE101A01EE47
:102B5000103A90ED002A90ED013AB8EEC00AB8EEB6
:102B6000C11A90ED024A23EE011A22EE000AA1EBEF
:102B70000C0030EE010A01EE100AB8EEC11A24EE84
:102B8000011A31EE000ABDEEC00A10EE100A136001
:102B90001162704770470000FDF784BF70B592B0B6
:102BA00006AC20463021FDF7F3FB002543F640003C
:102BB0000595CDE90355CDE901550095C4F2020014
:102BC0000168022641F080510160006800F08050E9
:102BD0000090009847F200000095C4F200000168E0
:102BE00066F38F310160006800F440400090009867
:102BF0000120099010200A9008200E905420CDE961
:102C00000F060420119020460696CDE90C65FEF7CC
:102C100013F918B172B600BFFEE700BF0F20CDE96F
:102C200001064FF48050CDE9040501A80221039567
:102C3000FDF7F0FF10B172B6FEE700BF12B070BD35
:102C40004EF68850CEF20000016841F47001016038
:102C50007047000040F2F800C2F20000FEF708BD25
:102C6000B0B540F2FF7E0568C4F2000E40F2000CE1
:102C70007045C4F2010C1DDD40F60003C4F20003F0
:102C8000984220D060451ED040F60043C4F20003B5
:102C9000984218D04FF6FF73C4F2000398421DDC2F
:102CA000704527DCB0F1804F3CD040F20043C4F2C5
:102CB000000335E0B0F1804F05D040F20043C4F28C
:102CC00000039842E6D14B6825F0700243EA020502
:102CD0004FF6FF73C4F200039842E1DD44F2FF3384
:102CE000C4F20103984211DC60451BD044F200039A
:102CF00014E000BF40F60003C4F20003984211D074
:102D000040F60043C4F200030AE000BF44F60003AB
:102D1000C4F20103984205D044F20043C4F2010317
:102D2000984204D1CB6825F4407243EA02050A6850
:102D30008C684B696045C462826202D10969CCF833
:102D40003010026825F0800142F00402194302604D
:102D5000012242610160B0BD806B0021C185FFF797
:102D600003B8000081B090F84210222921D1836875
:102D70000246B3F5805F09D152F8281F52F8183C7B
:102D8000002B63D003685B680AE000BF52F8281F7D
:102D900013B90369002BF5D003685B6803F07F0368
:102DA0000B70116801311160C18D01390A04C185B0
:102DB00002D001B0704700BF0168CA6822F020024B
:102DC000CA60CA6822F48072CA604A6922F00102AD
:102DD0004A61202180F8421000214163026B012AE0
:102DE0003CD10163016851E8031F026821F0100122
:102DF00042E80313DBB1016851E8031F026821F0C8
:102E0000100142E8031393B1016851E8031F0268FF
:102E100021F0100142E803134BB1016851E8031F90
:102E2000026821F0100142E80313002BDAD1016897
:102E30000A68D20606D5002200920A680092496804
:102E400000910099818D01B0FEF78CBF0268526835
:102E50006FF35F2221F8022B8162A5E701B0FFF733
:102E6000C3BA0000B0B50446006804F108030ECBF5
:102E70000569194325F440552A4302616269E369F3
:102E80001143C268194349F20C639A431143C1606C
:102E90004169A26921F4407141F20043114340F4B9
:102EA0008062C4F201039A42416103D1FDF778FFC9
:102EB00002E000BFFDF760FFE1694FF69C756368B3
:102EC0001922C0F6FF75B1F5004FA0FB02011FD11A
:102ED0005A00DB0FFDF7E4F948F21F51C5F2EB1180
:102EE000A0FB01235A0905F1805302FB03003223A2
:102EF00003EBC000A0FB01014FF4F87000EA1110D1
:102F000000EB0210C1F34211084421688860B0BD93
:102F10009A009B0FFDF7C4F948F21F51C5F2EB115F
:102F2000A0FB01235A0902FB0500322303EB00102A
:102F3000A0FB0101F02000EA511000EB0210C1F3E8
:102F40004311084421688860B0BD000040F2A82009
:102F5000C2F20000FEF70ABFFEE70000FDF7B0FD79
:102F6000FFF71CFEFFF78CFAFFF71AFBFFF7C8FB11
:102F7000FFF7F8FBFFF72AFCFFF75CFCFFF78EFC7E
:102F8000FFF708FD40F24018C2F2000840463C211D
:102F9000FEF70EFB40F28819C2F2000948463C21B8
:102FA000FEF706FB40F2D016C2F2000630463C2186
:102FB000FEF7FEFA40F21827C2F2000738463C211D
:102FC000FEF7F6FA40F2F804C2F2000420460021AF
:102FD000FEF760FD20460C21FEF75CFD40F2602507
:102FE000C2F2000528460021FEF754FD28460421C0
:102FF000FEF750FD2846FEF77FF94046FEF77CF9C4
:103000004846FEF779F93046FEF776F93846FEF77E
:1030100073F92046FEF770F940F2A820C2F20000D2
:103020000068C16841F02001C16000BFFEE7F1EE19
:10303000100A4FF6FF71C0F2C03120EA010040F0E3
:103040004070E1EE100A7047000000000000000030
:10305000010203040607080900000000010203043E
:10306000803000080000002048000000F80100083F
:10307000C830000848000020B0080000180200080E
:103080000100000010000000CDCC4C3E6666663F9B
:1030900014AE073F0000B04031084040CDCCCC3EDC
:1030A000AAFFF10000000000000000000000000086
:1030B0000000000000000000000000000000000010
:0830C0000024F400F03C0000C4
:040000050800019559
:00000001FF
