:020000040800F2
:10000000F0070020A9010008814100081D36000802
:10001000B53F0008BD02000829520008000000009A
:1000200000000000000000000000000091450008F2
:10003000C903000800000000414200081146000802
:10004000C3010008C3010008C3010008C301000880
:10005000C3010008C3010008C3010008C301000870
:10006000C3010008C3010008C3010008C301000860
:10007000C3010008C3010008C3010008C301000850
:10008000C3010008C3010008C3010008000000000C
:10009000000000000000000000000000C301000894
:1000A000C301000801470008C3010008C30100089C
:1000B000C3010008C3010008C3010008C301000810
:1000C000C3010008C3010008C3010008C301000800
:1000D000C301000819520008C30100080000000015
:1000E000C3010008C3010008C301000800000000AC
:1000F000000000000000000000000000C301000834
:1001000000000000C3010008C3010008C30100088B
:1001100000000000000000000000000000000000DF
:10012000C3010008C3010008C3010008C30100089F
:10013000C3010008000000000000000000000000F3
:10014000000000000000000000000000C3010008E3
:10015000C3010008C3010008C3010008C30100086F
:10016000C3010008C30100080000000000000000F7
:10017000000000000000000000000000000000007F
:1001800000000000C30100080000000000000000A3
:10019000C3010008DFF80CD000F07EF800480047EB
:1001A000C1530008F0070020064880470648004772
:1001B000FEE7FEE7FEE7FEE7FEE7FEE7FEE7FEE717
:1001C000FEE7FEE7ED460008950100082DE9F05F27
:1001D0000546002092469B468846064681464024B6
:1001E0001BE0284641464746224600F045F8534664
:1001F0005A46C01A914110D311461846224600F0C3
:100200002CF82D1A67EB01084F46224601200021E9
:1002100000F023F817EB00094E41201EA4F1010461
:10022000DFDC484631462A464346BDE8F09F0028B9
:1002300000DA40427047D2B201E000F8012B491EBB
:10024000FBD270470022F6E710B513460A46044673
:100250001946FFF7F0FF204610BD202A04DB203AA4
:1002600000FA02F1002070479140C2F1200320FA09
:1002700003F3194390407047202A04DB203A21FA07
:1002800002F00021704721FA02F3D040C2F12002AF
:100290009140084319467047064C074D06E0E06858
:1002A00040F0010394E8070098471034AC42F6D3BD
:1002B000FFF774FFC4570008E4570008FFE7FEE7A4
:1002C00083B001468DF80B0040F26000C2F20000DE
:1002D00000680028009106D1FFE79DF80B00552823
:1002E00001D0FFE76DE09DF80B0040F26001C2F223
:1002F00000010A68531C0B6040F25403C2F2000371
:10030000985408680A2801DCFFE75AE000208DF8BD
:100310000A000190FFE70198092810DCFFE7019827
:1003200040F25401C2F20001085C9DF80A10084432
:100330008DF80A00FFE7019801300190EBE79DF886
:100340000A0040F25401C2F20001897A884231D198
:10035000FFE740F25400C2F200004078532829D150
:10036000FFE740F2AC30C2F20000017801310170C9
:1003700040F25401C2F200018A78CB7842EA0322AB
:1003800040F2A433C2F200031A800A7991F805C042
:1003900042EA0C225A808A7991F807C042EA0C227C
:1003A0009A800A7A497A42EA0121D980017801319A
:1003B0000170FFE740F26000C2F20000002101601E
:1003C000FFE703B0704700007047000072B6FFE718
:1003D000FEE7000080B586B0014604900498806D69
:1003E0000390019100F090FA0290049890F8350083
:1003F00002280DD0FFE7049880214165FFE70498AB
:10040000002180F83410FFE701208DF817005BE031
:1004100004980068016821F01601016004980068E2
:10042000416921F0800141610498006C002805D1E8
:10043000FFE70498806C002807D0FFE70498006865
:10044000016821F008010160FFE704980068016875
:1004500021F001010160FFE704980068006810F0D6
:10046000010F1BD0FFE700F04FFADDF808E0A0EB2A
:100470000E00062811D3FFE7049820214165049857
:10048000032180F83510FFE70498002180F834102C
:10049000FFE703208DF8170016E0DDE70498C06D34
:1004A0003F2101FA00F0039988600498012180F847
:1004B0003510FFE70498002180F83410FFE7FFE7CC
:1004C00000208DF81700FFE79DF8170006B080BDEB
:1004D00083B001460190019890F835000228009100
:1004E00007D0FFE701988021416501208DF80B00BE
:1004F0000EE00198052180F8351001980068016828
:1005000021F001010160FFE700208DF80B00FFE7FB
:100510009DF80B0003B070478EB00A4603460D905D
:100520000C9100200A90099008900B900692059378
:10053000FFE70B980F2800F2AB81FFE70B98012132
:1005400001FA00F00A900C9800680A990840099096
:1005500009980A99884240F09681FFE70C98406814
:1005600000F00300012807D0FFE70C98406800F076
:10057000030002282FD1FFE70D98806808900B98A0
:100580004000032101FA00F0089921EA00000890D8
:100590000C98C0680B994900884008990843089056
:1005A00008980D9988600D98406808900B98012173
:1005B00001FA00F0089921EA000008900C984068C0
:1005C000C0F300100B9988400899084308900898D8
:1005D0000D994860FFE70C98406800F0030003287D
:1005E00018D0FFE70D98C06808900B9840000321D1
:1005F00001FA00F0089921EA000008900C98806840
:100600000B994900884008990843089008980D996B
:10061000C860FFE70C98406800F00300022828D16A
:10062000FFE70D980B994FF6FC72C7F6FF7202EACE
:1006300051010844006A08900B9800F00700800000
:100640000F2101FA00F0089921EA000008900C98A7
:1006500000690B9901F00701890088400899084357
:10066000089008980D990B9B02EA53021144086206
:10067000FFE70D98006808900B984000032101FAED
:1006800000F0089921EA000008900C98406800F0FA
:1006900003000B994900884008990843089008987E
:1006A0000D9908600C9880798007002800F0EA8096
:1006B000FFE7FFE70020079043F64400C4F2020082
:1006C000016841F480410160006800F480400790B7
:1006D00007980490FFE70B9820F0030043F6080109
:1006E000C4F20101405808900B9800F0030080000C
:1006F0000F2101FA00F0089921EA000008900D98F6
:100700000021C4F20201884203D1FFE700200390D8
:1007100034E00D9840F20041C4F20201884203D156
:10072000FFE70120029026E00D9840F60001C4F298
:100730000201884203D1FFE70220019018E00D98E2
:1007400040F60041C4F20201884203D1FFE70320D2
:1007500000900AE00D9841F20001C4F20201072264
:10076000884208BF04220092FFE700980190FFE74B
:1007700001980290FFE702980390FFE70398C0B248
:100780000B9901F0030189008840089908430890FB
:1007900008980B9921F0030143F60802C4F2010204
:1007A000885043F60840C4F2010000680890099898
:1007B000089921EA000008900C988079C00600286A
:1007C00005D5FFE70998089908430890FFE70898BE
:1007D00043F60841C4F20101086043F60C40C4F23C
:1007E0000100006808900998089921EA0000089023
:1007F0000C9880798006002805D5FFE709980899AC
:1008000008430890FFE7089843F60C41C4F2010141
:10081000086043F60440C4F201000068089009989B
:10082000089921EA000008900C9880798007002838
:1008300005D5FFE70998089908430890FFE708984D
:1008400043F60441C4F20101086043F60040C4F2DB
:100850000100006808900998089921EA00000890B2
:100860000C988079C007002805D0FFE709980899FF
:1008700008430890FFE7089843F60041C4F20101DD
:100880000860FFE7FFE7FFE70B9801300B9050E6A9
:100890000EB0704785B00A4603460490ADF80E10BE
:1008A0000498406902900298BDF80E1000EA010C0D
:1008B00021EA000040EA0C4004998861019200930B
:1008C00005B0704780B585B013468C4686460490C7
:1008D000ADF80E108DF80D209DF80D000028029344
:1008E000CDF804C0CDF800E005D0FFE7BDF80E005C
:1008F0000499886105E0BDF80E0000040499886140
:10090000FFE705B080BD000040F2D830C2F2000021
:100910000068704740F24000C2F20000007840F2E8
:10092000D831C2F200010A68104408607047000024
:1009300080B582B043F60040C4F20200016841F481
:1009400000710160016841F480610160016841F457
:1009500080710160032000F09DF80F2000F006F880
:10096000019000F03FF8002002B080BD80B584B057
:100970000146029040F23000C2F20000006840F2EE
:100980004002C2F2000212784FF47A73B3FBF2F223
:10099000B0FBF2F0019100F0E5FD002804D0FFE784
:1009A00001208DF80F0018E002980F280DD8FFE7FE
:1009B00002994FF0FF30002200F048F8029840F210
:1009C0004401C2F20001086003E001208DF80F002D
:1009D00003E000208DF80F00FFE79DF80F0004B042
:1009E00080BD000084B0FFE70020039043F6440080
:1009F000C4F20200016841F480410160006800F423
:100A00008040039003980190FFE7FFE700200290E9
:100A100043F64000C4F20200016841F080510160D9
:100A2000006800F08050029002980090FFE704B048
:100A30007047000080B582B001468DF807009DF92F
:100A40000700009104F00EFC02B080BD80B58AB0B2
:100A500013468C4686468DF82700089107920020A1
:100A600006900593CDF810C0CDF80CE004F016FC0C
:100A7000069006980899079A9DF92730029303F08B
:100A800081FB029901900846019904F00FFC0AB01D
:100A900080BD000080B582B00146019001980091B0
:100AA00004F02AFC02B080BD80B588B00A46034637
:100AB00006900591069800280392029304D1FFE75F
:100AC00001208DF81F0026E1059843F60041C4F28D
:100AD0000201096801F00701884212D9FFE7059871
:100AE00043F60041C4F202010870086800F00700F4
:100AF0000599884204D0FFE701208DF81F000AE124
:100B0000FFE706980068800700282AD5FFE70698C7
:100B100000684007002809D5FFE743F60800C4F243
:100B20000200016841F4E0510160FFE706980068A7
:100B30000007002809D5FFE743F60800C4F20200C9
:100B4000016841F460410160FFE743F60800C4F228
:100B50000200016821F0F001069A926811430160D9
:100B6000FFE706980068C007002870D0FFE70698E6
:100B70004068012811D1FFE743F60000C4F20200EB
:100B8000006800F400300021B1EB504F04D1FFE7C2
:100B900001208DF81F00BEE02CE006984068022876
:100BA00005D0FFE706984068032811D1FFE743F618
:100BB0000000C4F20200006800F000700021B1EBF8
:100BC000506F04D1FFE701208DF81F00A3E010E073
:100BD00043F60000C4F20200006800F002000021A9
:100BE000B1EB500F04D1FFE701208DF81F0092E018
:100BF000FFE7FFE743F60800C4F20200016821F0B6
:100C00000301069A526811430160FFF77DFE0490CC
:100C1000FFE743F60800C4F20200006800F00C0091
:100C200006994968B0EB810F10D0FFE7FFF76CFE23
:100C3000DDF810E0A0EB0E0041F2893E704504D3D0
:100C4000FFE703208DF81F0065E0E2E7FFE7059866
:100C500043F60041C4F20201096801F0070188422D
:100C600012D2FFE7059843F60041C4F20201087072
:100C7000086800F007000599884204D0FFE70120CA
:100C80008DF81F0047E0FFE706980068400700283E
:100C90000CD5FFE743F60800C4F20200016821F416
:100CA000E051069AD26811430160FFE70698006898
:100CB000000700280DD5FFE743F60800C4F2020044
:100CC000016821F46041069A126941EAC20101609B
:100CD000FFE700F053F843F6080EC4F2020EDEF808
:100CE00000E0CEF3031E45F28E71C0F6000111F84C
:100CF0000E10C84040F23001C2F20001086040F21C
:100D00004400C2F200000068FFF730FE00218DF8B9
:100D10001F100190FFE79DF81F0008B080BD000084
:100D200040F23000C2F200000068704780B5FFF763
:100D3000F7FF43F6080EC4F2020EDEF800E0CEF331
:100D4000822E45F29E71C0F6000111F80E10C840C7
:100D500080BD000080B5FFF7E3FF43F6080EC4F244
:100D6000020EDEF800E0CEF3423E45F29E71C0F680
:100D7000000111F80E10C84080BD000080B586B09B
:100D80000020059004900390029043F60800C4F2FE
:100D90000200006800F00C0001460028019108D014
:100DA000FFE7019804280AD0FFE7019808280CD033
:100DB0004FE042F20040C0F2F40002904FE047F6EC
:100DC0004000C0F27D10029049E043F60400C4F2F6
:100DD0000200016801F03F010591006810F4800FE6
:100DE00013D0FFE743F60400C4F202000068C0F32A
:100DF000881047F64001C0F27D11A0FB0101059A61
:100E00000023FFF7E3F9049012E043F60400C4F274
:100E100002000068C0F3881042F20041C0F2F40101
:100E2000A0FB0101059A0023FFF7D0F90490FFE72A
:100E300043F60400C4F20200006800F440300221CE
:100E400001EBD030039004980399B0FBF1F00290CD
:100E500005E042F20040C0F2F4000290FFE7029881
:100E600006B080BD80B588B001460690069800287F
:100E7000019104D1FFE701208DF81F006EE3069871
:100E80000068C007002800F0AB80FFE743F60800C9
:100E9000C4F20200006800F00C00042813D0FFE741
:100EA00043F60800C4F20200006800F00C000828B5
:100EB0001FD1FFE743F60400C4F20200006810F4FB
:100EC000800F16D0FFE743F60000C4F2020000686E
:100ED00000F400300021B1EB504F09D0FFE7069835
:100EE0004068002804D1FFE701208DF81F0035E39A
:100EF00075E0FFE706984068B0F5803F09D1FFE74D
:100F000043F60000C4F20200016841F48031016040
:100F100020E006984068B0F5A02F0DD1FFE743F61A
:100F20000000C4F20200016841F480210160016800
:100F300041F4803101600CE043F60000C4F202008D
:100F4000016821F480310160016821F48021016091
:100F5000FFE7FFE7FFE70698406800281FD0FFE79C
:100F6000FFF7D2FC0590FFE743F60000C4F2020051
:100F7000006800F400300021B1EB504F0ED1FFE7C4
:100F8000FFF7C2FCDDF814E0A0EB0E00652804D3E7
:100F9000FFE703208DF81F00E0E2E5E71EE0FFF722
:100FA000B3FC0590FFE743F60000C4F202000068BE
:100FB00000F400300021B1EB504F0ED0FFE7FFF7F7
:100FC000A3FCDDF814E0A0EB0E00652804D3FFE7D6
:100FD00003208DF81F00C1E2E5E7FFE7FFE7FFE729
:100FE000069800688007002840F19B80FFE743F6E1
:100FF0000800C4F20200006810F00C0F13D0FFE7E5
:1010000043F60800C4F20200006800F00C00082853
:101010002CD1FFE743F60400C4F20200006810F48C
:10102000800F23D1FFE743F60000C4F202000068FE
:1010300000F002000021B1EB500F09D0FFE7069845
:10104000C068012804D0FFE701208DF81F0085E269
:1010500043F60000C4F20200016821F0F801069A8C
:10106000126941EAC2010160FFE759E00698C068D1
:10107000002830D0FFE70020C4F2472001210160A2
:10108000FFF742FC0590FFE743F60000C4F20200C0
:10109000006800F002000021B1EB500F0ED1FFE715
:1010A000FFF732FCDDF814E0A0EB0E00032804D3B8
:1010B000FFE703208DF81F0050E2E5E743F600004C
:1010C000C4F20200016821F0F801069A126941EAAF
:1010D000C201016023E00020C4F24720002101602A
:1010E000FFF712FC0590FFE743F60000C4F2020090
:1010F000006800F002000021B1EB500F0ED0FFE7B6
:10110000FFF702FCDDF814E0A0EB0E00032804D387
:10111000FFE703208DF81F0020E2E5E7FFE7FFE788
:10112000FFE7069800680007002850D5FFE70698FB
:101130004069002825D0FFE740F68060C4F24720D0
:1011400001210160FFF7E0FB0590FFE743F6740023
:10115000C4F20200006800F002000021B1EB500F61
:101160000ED1FFE7FFF7D0FBDDF814E0A0EB0E0097
:10117000032804D3FFE703208DF81F00EEE1E5E725
:1011800024E040F68060C4F2472000210160FFF7B0
:10119000BBFB0590FFE743F67400C4F20200006851
:1011A00000F002000021B1EB500F0ED0FFE7FFF777
:1011B000ABFBDDF814E0A0EB0E00032804D3FFE73F
:1011C00003208DF81F00C9E1E5E7FFE7FFE7069878
:1011D00000684007002840F1D680FFE700208DF826
:1011E0000F0043F64000C4F20200006810F0805F78
:1011F00016D1FFE7FFE70020029043F64000C4F25B
:101200000200016841F080510160006800F08050E8
:10121000029002980090FFE701208DF80F00FFE791
:1012200047F20000C4F20000006810F4807F24D16F
:10123000FFE747F20000C4F20000016841F480714A
:101240000160FFF761FB0590FFE747F20000C4F281
:101250000000006810F4807F0ED1FFE7FFF754FB19
:10126000DDF814E0A0EB0E00032804D3FFE7032011
:101270008DF81F0072E1E8E7FFE7FFE70698806856
:10128000012809D1FFE743F67000C4F202000168AB
:1012900041F0010101601FE00698806805280DD12A
:1012A000FFE743F67000C4F20200016841F0040158
:1012B0000160016841F0010101600CE043F670003B
:1012C000C4F20200016821F001010160016821F00F
:1012D00004010160FFE7FFE7FFE706988068002848
:1012E00021D0FFE7FFF710FB0590FFE743F6700002
:1012F000C4F20200006800F002000021B1EB500FC0
:1013000010D1FFE7FFF700FBDDF814E0A0EB0E00C3
:1013100041F2893E704504D3FFE703208DF81F009A
:101320001CE1E3E720E0FFF7EFFA0590FFE743F663
:101330007000C4F20200006800F002000021B1EB6E
:10134000500F10D0FFE7FFF7DFFADDF814E0A0EB55
:101350000E0041F2893E704504D3FFE703208DF86B
:101360001F00FBE0E3E7FFE79DF80F00012809D12C
:10137000FFE743F64000C4F20200016821F080510B
:101380000160FFE7FFE706988069002800F0E2802F
:10139000FFE743F60800C4F20200006800F00C000A
:1013A000082800F08B80FFE706988069022860D14A
:1013B000FFE76020C4F2472000210160FFF7A4FA94
:1013C0000590FFE743F60000C4F20200006800F059
:1013D00000700021B1EB506F0ED0FFE7FFF794FAD9
:1013E000DDF814E0A0EB0E00032804D3FFE7032090
:1013F0008DF81F00B2E0E5E70698C169026A436A0A
:10140000D0F828C0114341EA83114FEACC324FF69D
:10141000FF739A43A2F580321143C06A41EA00602B
:1014200043F60401C4F2020108606020C4F24720C0
:1014300001210160FFF768FA0590FFE743F600001D
:10144000C4F20200006800F000700021B1EB506FA0
:101450000ED1FFE7FFF758FADDF814E0A0EB0E001D
:10146000032804D3FFE703208DF81F0076E0E5E7AB
:1014700023E06020C4F2472000210160FFF744FA16
:101480000590FFE743F60000C4F20200006800F098
:1014900000700021B1EB506F0ED0FFE7FFF734FA78
:1014A000DDF814E0A0EB0E00032804D3FFE70320CF
:1014B0008DF81F0052E0E5E7FFE74AE006988069F3
:1014C000012804D1FFE701208DF81F0046E043F614
:1014D0000400C4F2020000680490069880690128A4
:1014E00031D0FFE7049800F480000699C96988426A
:1014F00029D1FFE7049800F03F000699096A884265
:1015000021D1FFE7049847F6C07108400699496A5F
:10151000B0EB811F17D1FFE7049800F44030069923
:10152000896AC9034FF6FF729143A1F58031884261
:1015300009D1FFE7049800F070600699C96AB0EB22
:10154000016F04D0FFE701208DF81F0006E0FFE7E0
:10155000FFE7FFE700208DF81F00FFE79DF81F0061
:1015600008B080BD80B582B001460190019800911D
:1015700003F020F802B080BD82B0014601900091D6
:1015800002B0704782B001460190009102B07047EE
:1015900086B00A460346049003910020029001920F
:1015A0000093FFE7049890F83C00012804D1FFE77E
:1015B00002208DF8170044E00498012180F83C10C7
:1015C000FFE7FFE7029820F0FF000399C96808438E
:1015D0000290029820F440700399896808430290B1
:1015E000029820F4806003994968084302900298A9
:1015F00020F400600399096808430290029820F4DF
:1016000080500399096908430290029820F4005021
:101610000399496908430290029820F48040039995
:10162000C969084302900298049909684864FFE771
:101630000498002180F83C10FFE700208DF8170087
:10164000FFE79DF8170006B07047000087B00A4614
:1016500003460590049101920093FFE7059890F8E6
:101660003C00012804D1FFE702208DF81B006CE04C
:101670000598012180F83C10FFE7FFE7059802215B
:1016800080F83D1005980068406803900598006850
:1016900080680290039820F070000390049800681E
:1016A00003990843039003980599096848600598D1
:1016B00000680021C4F2010188422AD0FFE70598A2
:1016C0000068B0F1804F24D0FFE70598006840F231
:1016D0000041C4F2000188421BD0FFE70598006872
:1016E00040F60001C4F20001884212D0FFE70598DD
:1016F000006840F60041C4F20001884209D0FFE7CB
:101700000598006844F20001C4F2010188420ED13C
:10171000FFE7029820F08000029004984068029948
:10172000084302900298059909688860FFE70598C8
:10173000012180F83D10FFE70598002180F83C105A
:10174000FFE700208DF81B00FFE79DF81B0007B0A6
:101750007047000080B584B00146029002980028CE
:10176000019104D1FFE701208DF80F0043E00298BA
:1017700090F83D00002808D1FFE70298002180F88A
:101780003C10029800F03CF8FFE70298022180F834
:101790003D10029850F8041B00900846009902F092
:1017A000B7FF0298012180F84610FFE70298012157
:1017B00080F83E10029880F83F10029880F84010A0
:1017C000029880F84110FFE7FFE70298012180F8B6
:1017D0004210029880F84310029880F84410029852
:1017E00080F84510FFE70298012180F83D100020A5
:1017F0008DF80F00FFE79DF80F0004B080BD0000DA
:1018000080B588B001460790079800680022C4F2AE
:101810000102904204911CD1FFE7FFE700200690EF
:1018200043F64400C4F20200016841F00101016086
:10183000006800F00100069006980390FFE7192069
:10184000012100220290FFF701F90298FFF7F2F858
:101850001CE00798006844F20001C4F201018842CC
:1018600013D1FFE7FFE70020059043F64400C4F2E0
:101870000200016841F480310160006800F48030AA
:10188000059005980190FFE7FFE7FFE708B080BDEE
:1018900084B001460290029890F83D000128009122
:1018A00004D0FFE701208DF80F0058E002980221D4
:1018B00080F83D1002980068C16841F00101C160E4
:1018C000029800680021C4F2010188422AD0FFE793
:1018D00002980068B0F1804F24D0FFE702980068BA
:1018E00040F20041C4F2000188421BD0FFE7029899
:1018F000006840F60001C4F20001884212D0FFE700
:101900000298006840F60041C4F20001884209D004
:10191000FFE70298006844F20001C4F20101884226
:1019200012D1FFE702980068806800F0070001907C
:101930000198062807D0FFE702980068016841F087
:1019400001010160FFE706E002980068016841F0CC
:1019500001010160FFE700208DF80F00FFE79DF80F
:101960000F0004B07047000080B58EB00A460346F1
:101970000C900B9100208DF82B0008920793FFE745
:101980000C9890F83C00012804D1FFE702208DF864
:101990003700BBE00C98012180F83C10FFE7FFE71F
:1019A0000C98022180F83D100C980068806809901E
:1019B000099820F077000990099820F47F40099059
:1019C00009980C99096888600B98006800280690AF
:1019D00000F08280FFE7069810287DD0FFE7069888
:1019E000202879D0FFE70698302875D0FFE70698C1
:1019F000402861D0FFE7069850283DD0FFE70698C1
:101A0000602849D0FFE7069870280BD0FFE70698BA
:101A1000B0F5805F05D0FFE70698B0F5005F19D0FC
:101A200061E064E00C9800680B994A688B68C968AB
:101A300005911946059B02F037FF0C9800688068F5
:101A40000990099840F07700099009980C99096865
:101A500088604CE00C9800680B994A688B68C968EC
:101A600004911946049B02F01FFF0C9800688168DE
:101A700041F4804181603AE00C9800680B994A6813
:101A8000C96803911146039A03F0E2F80C980068C4
:101A9000502102F02FFF2AE00C9800680B994A6849
:101AA000C96802911146029A03F004F90C98006883
:101AB000602102F01FFF1AE00C9800680B994A6839
:101AC000C96801911146019A03F0C2F80C980068A8
:101AD000402102F00FFF0AE00C9800680B9909689A
:101AE00002F008FF03E001208DF82B00FFE70C98BF
:101AF000012180F83D10FFE70C98002180F83C1090
:101B0000FFE79DF82B008DF83700FFE79DF83700C1
:101B10000EB080BD80B58AB00A4603460890079192
:101B2000089800280392029304D1FFE701208DF862
:101B300027008CE0089890F83D00002808D1FFE7C6
:101B40000898002180F83C10089800F085F8FFE71D
:101B50000898022180F83D1008980068816844F2D6
:101B6000070291438160089850F8041B01900846D1
:101B7000019902F0CDFD08980068806806900898E9
:101B800000688069059008980068006A04900798CA
:101B90000068069908430690059840F2033188438F
:101BA000059007988168806941EA002005990843FB
:101BB0000590059840F60C418843059005984FF232
:101BC000F001884305900798C168C06941EA002088
:101BD00005990843059007980169006A090141EADF
:101BE0000030059908430590049820F022000490E5
:101BF000049820F08800049007984168406941EA01
:101C000000100499084304900698089909688860B0
:101C10000598089909688861049808990968086214
:101C20000898012180F84610089880F83E1008981E
:101C300080F83F10089880F84210089880F8431008
:101C4000089880F83D1000208DF82700FFE79DF8E8
:101C500027000AB080BD000080B59EB001461D90EF
:101C600000201C901B901A90199018901D980068E5
:101C7000B0F1804F0E915FD1FFE7FFE70020179092
:101C800043F64000C4F20200016841F00101016026
:101C9000006800F00100179017980D90FFE7FFE72C
:101CA0000020169043F63000C4F20200016841F0B3
:101CB00001010160006800F00100169016980C9078
:101CC000FFE7FFE70020159043F63000C4F2020062
:101CD000016841F002010160006800F00200159007
:101CE00015980B90FFE74FF40040189002201990D0
:101CF00000211A911B9101221C920023C4F20203BD
:101D00000DF1600C0A90184609916146CDF820C08B
:101D10000792FEF701FC082018900A98199009997B
:101D20001A911B91079A1C9240F20040C4F20200E3
:101D30000899FEF7F1FBB8E01D98006840F20041F9
:101D4000C4F20001884234D1FFE7FFE7002014907D
:101D500043F64000C4F20200016841F00201016054
:101D6000006800F00200149014980690FFE7FFE767
:101D70000020139043F63000C4F20200016841F0E5
:101D800002010160006800F00200139013980590B2
:101D9000FFE7302018900220199000211A911B9122
:101DA0001C9040F20040C4F2020018A9FEF7B4FBF8
:101DB0007AE01D98006840F60001C4F200018842F4
:101DC00034D1FFE7FFE70020129043F64000C4F251
:101DD0000200016841F004010160006800F00400A5
:101DE000129012980490FFE7FFE70020119043F64D
:101DF0003000C4F20200016841F002010160006895
:101E000000F00200119011980390FFE7C020189095
:101E10000220199000211A911B911C9040F2004061
:101E2000C4F2020018A9FEF777FB3CE01D98006899
:101E300040F60041C4F20001884233D1FFE7FFE7DA
:101E40000020109043F64000C4F20200016841F007
:101E500008010160006800F00800109010980290DE
:101E6000FFE7FFE700200F9043F63000C4F20200C6
:101E7000016841F001010160006800F001000F906D
:101E80000F980190FFE7032018900220199000217D
:101E90001A911B911C900020C4F2020018A9FEF7B1
:101EA0003BFBFFE7FFE7FFE7FFE71EB080BD000059
:101EB00080B588B00A46034606900591069890F8CA
:101EC0003E008DF81300069890F83F008DF8120040
:101ED000069890F842008DF81100069890F843009B
:101EE0008DF81000059800280392029317D1FFE7A0
:101EF0009DF81300012805D1FFE79DF81100012886
:101F000004D0FFE701208DF81F007AE00698022137
:101F100080F83E10069880F84210FFE742E00598EE
:101F2000042817D1FFE79DF81200012805D1FFE72B
:101F30009DF81000012804D0FFE701208DF81F0054
:101F40005FE00698022180F83F10069880F8431061
:101F5000FFE726E09DF8130001280FD1FFE79DF869
:101F6000120001280AD1FFE79DF81100012805D1D0
:101F7000FFE79DF81000012804D0FFE701208DF84D
:101F80001F003EE00698022180F83E10069880F877
:101F90003F10069880F84210069880F84310FFE73B
:101FA000FFE7FFE705980028019004D0FFE70198BC
:101FB000042807D00DE0069800680021012202F0F5
:101FC0004DFC14E0069800680421012202F046FC52
:101FD0000DE00698006800210122009202F03EFC0C
:101FE000069800680421009A02F038FCFFE7069882
:101FF0000068016841F00101016000208DF81F00B8
:10200000FFE79DF81F0008B080BD000082B00146C8
:102010000190009102B0704780B584B001460390F2
:1020200003980068C06802900398006800690190F6
:10203000019880070028009124D5FFE702988007C7
:1020400000281ED5FFE7039800686FF002010161C8
:1020500003980121017703980068806910F0030F4D
:1020600004D0FFE70398FFF7D1FF06E0039800F0E4
:102070003BF9039800F04AFAFFE703980021017743
:10208000FFE7FFE701984007002824D5FFE7029803
:10209000400700281ED5FFE7039800686FF0040191
:1020A000016103980221017703980068806910F4A8
:1020B000407F04D0FFE70398FFF7A8FF06E00398EE
:1020C00000F012F9039800F021FAFFE703980021CD
:1020D0000177FFE7FFE701980007002824D5FFE715
:1020E0000298000700281ED5FFE7039800686FF0EC
:1020F0000801016103980421017703980068C06911
:1021000010F0030F04D0FFE70398FFF77FFF06E00E
:10211000039800F0E9F8039800F0F8F9FFE7039856
:1021200000210177FFE7FFE70198C006002824D5CA
:10213000FFE70298C00600281ED5FFE70398006855
:102140006FF010010161039808210177039800687E
:10215000C06910F4407F04D0FFE70398FFF756FFF3
:1021600006E0039800F0C0F8039800F0CFF9FFE70D
:10217000039800210177FFE7FFE70198C0070028D7
:102180000FD0FFE70298C007002809D0FFE70398A7
:1021900000686FF001010161039800F085FAFFE724
:1021A000FFE70198000600280FD5FFE70298000618
:1021B000002809D5FFE7039800686FF080010161EE
:1021C0000398FFF7D9F9FFE7FFE7019840060028D9
:1021D0000FD5FFE702984006002809D5FFE70398CE
:1021E00000686FF040010161039800F0A7FEFFE76F
:1021F000FFE70198800600280FD5FFE702988006C8
:10220000002809D5FFE7039800686FF020010161FD
:102210000398FFF7B7F9FFE7FFE704B080BD0000C0
:1022200080B58CB001460B9000200A900990089070
:10223000079006900B9800680022C4F201029042B9
:10224000039123D1FFE7FFE70020059043F630001C
:10225000C4F20200016841F001010160006800F071
:102260000100059005980290FFE74FF4106006907A
:102270000220079000200890099001200A90002079
:10228000C4F2020006A9FEF747F92BE00B9800689C
:1022900044F20001C4F20101884222D1FFE7FFE7C6
:1022A0000020049043F63000C4F20200016841F0BF
:1022B00001010160006800F00100049004980190A1
:1022C000FFE70C200690022007900020089009905C
:1022D00003200A900020C4F2020006A9FEF71CF9B0
:1022E000FFE7FFE70CB080BD82B00146019000918E
:1022F00002B0704780B58AB013468C468646089077
:102300000791069200208DF817000493CDF80CC0B9
:10231000CDF808E0FFE7089890F83C00012804D1C8
:10232000FFE702208DF827008FE00898012180F850
:102330003C10FFE7FFE706980C28019000F276803A
:102340000199DFE801F007737373227373733D73B0
:102350007373580008980068079902F0E5FA089826
:102360000068816941F0080181610898006881690D
:1023700021F0040181610798006908990968D1F882
:1023800018E040EA0E00886154E008980068079958
:1023900002F034FB08980068816941F400618161B2
:1023A00008980068816921F480618161079800695B
:1023B00008990968D1F818E04EEA0020886139E0F0
:1023C00008980068079902F087FB08980068C169BF
:1023D00041F00801C16108980068C16921F0040159
:1023E000C1610798006908990968D1F81CE040EAC2
:1023F0000E00C8611EE008980068079902F0DAFB39
:1024000008980068C16941F40061C16108980068DA
:10241000C16921F48061C161079800690899096860
:10242000D1F81CE04EEA0020C86103E001208DF8DD
:102430001700FFE7FFE70898002180F83C10FFE74E
:102440009DF817008DF82700FFE79DF827000AB0D8
:1024500080BD000080B584B001460290029800283B
:10246000019104D1FFE701208DF80F0043E00298AD
:1024700090F83D00002808D1FFE70298002180F87D
:102480003C10029800F03CF8FFE70298022180F827
:102490003D10029850F8041B00900846009902F085
:1024A00037F90298012180F84610FFE702980121D0
:1024B00080F83E10029880F83F10029880F8401093
:1024C000029880F84110FFE7FFE70298012180F8A9
:1024D0004210029880F84310029880F84410029845
:1024E00080F84510FFE70298012180F83D10002098
:1024F0008DF80F00FFE79DF80F0004B080BD0000CD
:1025000082B001460190009102B0704782B001464E
:102510000190009102B0704780B58CB00A46034626
:102520000A900991099800280792069305D1FFE7C0
:102530000A9890F83E0005901CE00998042805D1FF
:10254000FFE70A9890F83F00049010E009980828E7
:1025500005D1FFE70A9890F84000039004E00A983C
:1025600090F841000390FFE703980490FFE7049878
:102570000590FFE70598012804D0FFE701208DF8BA
:102580002F008CE00998002805D1FFE70A98022166
:1025900080F83E101FE00998042806D1FFE70A984A
:1025A000022180F83F10029112E00998082806D114
:1025B000FFE70A98022180F84010019105E00A988F
:1025C000022180F841100191FFE701980290FFE796
:1025D00002980090FFE70A9800680999012202F02A
:1025E0003DF90A9800680021C4F20101884207D130
:1025F000FFE70A980068416C41F400414164FFE73D
:102600000A9800680021C4F2010188422AD0FFE73D
:102610000A980068B0F1804F24D0FFE70A9800685C
:1026200040F20041C4F2000188421BD0FFE70A9843
:10263000006840F60001C4F20001884212D0FFE7B2
:102640000A98006840F60041C4F20001884209D0AF
:10265000FFE70A98006844F20001C4F201018842D1
:1026600012D1FFE70A980068806800F00700089020
:102670000898062807D0FFE70A980068016841F02B
:1026800001010160FFE706E00A980068016841F077
:1026900001010160FFE700208DF82F00FFE79DF8A2
:1026A0002F000CB080BD0000F0B5B5B001463490ED
:1026B0003498006844F20042C4F20102904233911F
:1026C00003D1FFE7FEF726F9FFE7349840F2F00167
:1026D000C2F20001884240F02C84FFE740F2800003
:1026E000C2F2000001680131016065290FD3FFE7E4
:1026F00040F60000C4F202004FF40051FEF7CAF8A1
:1027000040F28000C2F2000000210160FFE740F2C9
:102710003C00C2F2000090ED000A01F019FF40F207
:10272000E00EC2F2000ECEF8000040F23800C2F215
:10273000000090ED000A01F0F5FE40F2DC0EC2F25E
:10274000000ECEF8000040F26C00C2F200000078EB
:1027500000283DD0FFE7002001213290329A3191CC
:102760001146319A01F09EFD329930900846319A17
:1027700001F038FE32992F900846319A00F050FF50
:1027800032992E900846319A00F0C8FF9FEDA20AB8
:102790008DED2D0ADDED2D0A31992C90084601F0C2
:1027A0003BF840F2EC31C2F20001329A0A6040F28A
:1027B000FC21C2F200010A6040F20031C2F20001C5
:1027C0000A6040F26C01C2F200010A702B90FFE730
:1027D00040F2A430C2F20000B0F9040000EE100A8A
:1027E000B8EEC00A9FED8D1A80EE010A9FED8C1A9B
:1027F00020EE010A40F2EC00C2F2000080ED000A77
:1028000090ED000A40F2C030C2F20000D0ED000AA4
:1028100000202A9001F000F800EE100AB8EEC00A7D
:1028200040F2EC30C2F2000080ED000A90ED000AA8
:10283000BDEEC00A10EE10EA28212990704602F081
:10284000F5FC00EE100AB8EEC00A299880ED000AE7
:1028500040F23811C2F20001D1F800E0DEF824E0C5
:1028600040F2A802C2F20002A2F800E040F2801E8C
:10287000C2F2000EDEF800305B6A40F2AA0CC2F22F
:10288000000CACF8003040F2C813C2F200031C6820
:10289000646A40F2AC05C2F200052C8040F21024BC
:1028A000C2F200042668766A40F2AE07C2F2000760
:1028B0003E8009682A9E4E62DEF800104E6219685A
:1028C0004E6221684E621188494240F26402C2F2AF
:1028D00000021180BCF8001040F26603C2F200034F
:1028E00019802988494240F2680CC2F2000CACF809
:1028F0000010398840F26A0EC2F2000EAEF80010E5
:10290000B2F9001040F2EC22C2F200021468214435
:102910001160B3F9001040F2F023C2F200031C680A
:1029200021441960BCF9001040F2F42CC2F2000CF2
:10293000DCF800402144CCF80010BEF9001040F251
:10294000F82EC2F2000EDEF800402144CEF800104E
:102950001968DEF800E0714401EBD171491040F2D2
:10296000FC2EC2F2000ECEF800101168DCF800C098
:10297000614401EBD171491040F2003CC2F2000CFD
:10298000CCF800101868CDF8A0E0279201F03AFCCE
:1029900040F2D000C2F2000080ED000A27980068E3
:1029A00001F030FC40F2D400C2F2000080ED000AD9
:1029B0002898016840F2DC02C2F200021268881A0C
:1029C000FDF735FC13282DDCFFE740F20030C2F2A2
:1029D0000000006840F2DC01C2F200010968401A00
:1029E000FDF725FC13281DDCFFE70020269001F0F1
:1029F000E3FA269801F01CFB269801F055FB269877
:102A000001F088FB40F26C00C2F200004FF0010EB2
:102A100080F800E08CE200BF0000000000000047EA
:102A20000000344340F2FC20C2F20000016840F292
:102A3000DC02C2F2000213684FF0000C2590084639
:102A4000194624926246CDF88CC001F02BFC00EEB2
:102A5000100AB8EEC00A40F2B030C2F2000080EDB9
:102A6000000A25990A68249B196822901046239A27
:102A700001F018FC00EE100AB8EEC00A40F2B430C3
:102A8000C2F2000080ED000A40F20031C2F2000103
:102A90000A68249BD3F800C021901046209161461B
:102AA000239A01F09FFC00EE100AB8EEC00A40F233
:102AB000B830C2F2000080ED000A20990A68249B19
:102AC00019681F901046239A01F08CFC00EE100A42
:102AD000B8EEC00A40F2BC30C2F2000080ED000A3D
:102AE000229991ED000ABDEEC00A10EE102A40F2C4
:102AF0003C03C2F2000393ED000A1E901D921C934A
:102B000001F026FD1D991B9008461B9902F08EFBD3
:102B100000EE100AB8EEC00A229880ED000A219952
:102B200091ED000ABDEEC00A10EE102A1C9B93ED39
:102B3000000A1A9201F00CFD1A9919900846199989
:102B400002F074FB00EE100AB8EEC00A219880ED86
:102B5000000A1F9991ED000ABDEEC00A10EE102A7E
:102B60001C9B93ED000A189201F0F2FC1899179043
:102B70000846179902F05AFB00EE100AB8EEC00A98
:102B80001F9880ED000A1E9991ED000ABDEEC00A63
:102B900010EE102A1C9B93ED000A169201F0D8FC4F
:102BA000169915900846159902F040FB00EE100AA0
:102BB000B8EEC00A1E9880ED000A229991ED000A35
:102BC000BDEEC00A10EE102A9FEDDB0A8DED140A4F
:102BD000139201F0BDFC139912900846129902F06D
:102BE00025FB00EE100AB8EEC00A229880ED000A1C
:102BF000219991ED000ABDEEC00A10EE102A9DED5C
:102C0000140A119201F0A4FC119910900846109931
:102C100002F00CFB00EE100AB8EEC00A219880ED1D
:102C2000000A1F9991ED000ABDEEC00A10EE102AAD
:102C30009DED140A0F9201F08BFC0F990E9008463F
:102C40000E9902F0F3FA00EE100AB8EEC00A1F98CF
:102C500080ED000A1E9991ED000ABDEEC00A10EE4B
:102C6000102A9DED140A0D9201F072FC0D990C9042
:102C700008460C9902F0DAFA00EE100AB8EEC00A23
:102C80001E9880ED000A40F27001C2F2000191ED41
:102C9000000A229AD2ED000AB0EE081A8DED0B1A46
:102CA0000A9102F049FB229880ED000A40F274017B
:102CB000C2F2000191ED000AD0ED000A9DED0B1A61
:102CC000099102F039FB219880ED000A40F2780169
:102CD000C2F2000191ED000A1F9AD2ED000A9DEDAB
:102CE0000B1A089102F028FB1F9880ED000A40F2B1
:102CF0007C01C2F2000191ED000AD0ED000A9DEDC9
:102D00000B1A079102F018FB1E9880ED000A229919
:102D10000A680A9B1A60219AD2F800C0DDF824E004
:102D2000CEF800C0DDF87CC0DCF80040089D2C60C7
:102D30000468079E346040F26604C2F20004B4F9ED
:102D4000000091ED000ABDEEC00A10EE104A2146C7
:102D5000239A00F065FC00EE100AB8EEC00A40F2BB
:102D60009430C2F2000080ED000A40F26A01C2F223
:102D70000001B1F90010219A92ED000ABDEEC00ADF
:102D800010EE103A069008461946239A00F048FCC7
:102D900000EE100AB8EEC00A40F29830C2F200000D
:102DA00080ED000A40F26401C2F20001B1F90010A6
:102DB0001F9A92ED000ABDEEC00A10EE103A05907F
:102DC00008461946239A00F0A9FC00EE100AB8EE56
:102DD000C00A40F29C30C2F2000080ED000A40F2CE
:102DE0006801C2F20001B1F900101E9A92ED000ACA
:102DF000BDEEC00A10EE103A049008461946239A18
:102E000000F08CFC00EE100AB8EEC00A40F2A030D0
:102E1000C2F2000080ED000A069991ED000ABDEEB5
:102E2000C00A10EE102A632303901046194602933D
:102E300002F0FCF900EE100AB8EEC00A069880ED28
:102E4000000A059991ED000ABDEEC00A10EE102AA5
:102E50001046029902F0EAF900EE100AB8EEC00A34
:102E6000059880ED000A049991ED000ABDEEC00AB4
:102E700010EE102A1046029902F0D8F900EE100A5E
:102E8000B8EEC00A049880ED000A039991ED000A9B
:102E9000BDEEC00A10EE102A1046029902F0C6F9E3
:102EA00000EE100AB8EEC00A039880ED000A0499FB
:102EB00091ED000A40F2EC32C2F2000292ED001AEB
:102EC00030EE010ABDEEC00A10EE103A184601922B
:102ED00001F072F8069890ED000A019991ED001A40
:102EE00030EE410ABDEEC00A10EE102A104601F085
:102EF0009FF8039890ED000A019991ED001A30EEC9
:102F0000010ABDEEC00A10EE102A104601F0CCF8FE
:102F1000059890ED000A019991ED001A30EE410AF2
:102F2000BDEEC00A10EE102A104601F0F3F8FFE7DC
:102F3000FFE735B0F0BD00BF00002D4382B0014671
:102F40000190009102B0704784B00A460346039096
:102F5000ADF80A100192009304B0704782B00146A8
:102F60000190009102B0704780B598B0014617906B
:102F7000179800680068169017980068C068159048
:102F800017980068406914900020139012901698CA
:102F900000F00F00139013980028069112D1FFE75C
:102FA0009DF85800800600280BD5FFE79DF85400D7
:102FB0008006002805D5FFE7179801F031FF05903E
:102FC00011E2FFE71398002800F0CD80FFE79DF89D
:102FD0005000C007002807D1FFE7BDF8540010F4E7
:102FE000907F00F0C080FFE79DF85800C0070028E0
:102FF0000CD0FFE79DF85500C007002806D0FFE77A
:103000001798416C41F001014164FFE79DF85800B9
:10301000400700280CD5FFE79DF85000C0070028A6
:1030200006D0FFE71798416C41F002014164FFE7C9
:103030009DF85800800700280CD5FFE79DF8500048
:10304000C007002806D0FFE71798416C41F0040143
:103050004164FFE79DF858000007002812D5FFE7FC
:103060009DF854008006002806D4FFE79DF8500024
:10307000C007002806D0FFE71798416C41F008010F
:103080004164FFE71798406C00286BD0FFE79DF87C
:103090005800800600280BD5FFE79DF854008006F5
:1030A000002805D5FFE7179801F0BAFE0490FFE766
:1030B000179800684069C0F3801012901798406C10
:1030C00010F0080F04D1FFE71298002840D0FFE766
:1030D000179801F031FE17980068406910F0400F12
:1030E00031D0FFE7FFE7FFE71798006850E8050FCA
:1030F00020F040001190FFE711981799096841E806
:103100000502002AF0D1FFE7FFE71798C06B0028FF
:1031100014D0FFE71798C06B44F61951C0F60001B0
:1031200001651798C06BFDF7D3F9002805D0FFE7BC
:103130001798C06B016D8847FFE703E01798FFF70A
:103140000DFFFFE703E01798FFF708FFFFE708E030
:103150001798FFF703FF17984FF0000EC0F844E0F0
:10316000FFE7FFE73FE11798006B012840F0198166
:10317000FFE79DF85800C006002840F11281FFE7E4
:103180009DF85400C006002840F10B81FFE7FFE7DF
:103190000020109017980068006810901798006839
:1031A0004068109010980390FFE7179800684069F6
:1031B00010F0400F00F09B80FFE71798C06B00688D
:1031C0004068ADF83E00BDF83E00002876D0FFE72D
:1031D000BDF83E001799898D88426FDAFFE7BDF888
:1031E0003E001799C8851798C06BC069B0F5807FFD
:1031F00059D0FFE7FFE7FFE71798006850E8030F93
:1032000020F480700E90FFE70E981799096841E846
:103210000302002AF0D1FFE7FFE7FFE7FFE7179877
:10322000006850E8050F20F001000D90FFE70D98B1
:103230001799096841E80502002AF0D1FFE7FFE786
:10324000FFE7FFE71798006850E8050F20F04000FF
:103250000C90FFE70C981799096841E80502002ACD
:10326000F0D1FFE7FFE71798202180F84210179868
:1032700000210163FFE7FFE71798006850E8030F9C
:1032800020F010000B90FFE70B981799096841E8B0
:103290000302002AF0D1FFE7FFE71798C06BFDF7A4
:1032A00099F80290FFE71798022141631798818DE2
:1032B000C28D891A89B2FFF747FE17E0BDF83E00BC
:1032C0001799898D884210D1FFE71798C06BC069A4
:1032D000B0F5807F08D1FFE7179802214163179866
:1032E000818DFFF731FEFFE7FFE7FFE77BE01798EF
:1032F000818DC08D081AADF82A001798C08D00285E
:103300004ED0FFE7BDF82A00002849D0FFE7FFE7CD
:10331000FFE71798006850E8030F20F490700990B9
:10332000FFE709981799096841E80302002AF0D1DC
:10333000FFE7FFE7FFE7FFE71798006850E8050F92
:1033400020F001000890FFE708981799096841E804
:103350000502002AF0D1FFE7FFE71798202180F847
:103360004210179800210163FFE7FFE717980068F4
:1033700050E8030F20F010000790FFE70798179917
:10338000096841E80302002AF0D1FFE7FFE7179838
:10339000022141631798BDF82A10FFF7D5FDFFE71A
:1033A00021E09DF85800000600280BD5FFE79DF8A6
:1033B00054000006002805D5FFE7179801F0DCFE51
:1033C000019010E09DF85800400600280BD5FFE75B
:1033D0009DF854004006002805D5FFE7179801F036
:1033E000F7FC0090FFE718B080BD000080B584B006
:1033F0000146029002980028019104D1FFE70120C4
:103400008DF80F0043E002988069002801D0FFE7A3
:1034100000E0FFE7029890F84100002808D1FFE79C
:103420000298002180F84010029800F035F8FFE77C
:103430000298242180F8411002980068C16821F4A4
:103440000051C160029801F0A7FD0298006801696F
:1034500021F49041016102980068416921F02A013C
:10346000416102980068C16841F40051C16002984E
:103470000021416402984FF0200E80F841E002984C
:1034800080F842E0029841638DF80F10FFE79DF845
:103490000F0004B080BD000080B58EB001460D90D5
:1034A00000200C900B900A90099008900D980068ED
:1034B00041F20002C4F201029042059142D1FFE7BD
:1034C000FFE70020079043F64400C4F202000168C1
:1034D00041F010010160006800F0100007900798AB
:1034E0000490FFE7FFE70020069043F63000C4F2A7
:1034F0000200016841F001010160006800F0010074
:10350000069006980390FFE74FF4C06008900220F1
:10351000099000200A9003210B9107210C910021B2
:10352000C4F2020108AA029008461146FCF7F4FF13
:10353000252001210190029AFDF788FA0198FDF7F4
:1035400079FAFFE70EB080BD80B588B013468C468F
:10355000864606900591ADF81220069890F8420034
:1035600020280393CDF808C0CDF804E019D1FFE777
:103570000598002805D0FFE7BDF81200002804D107
:10358000FFE701208DF81F000FE00698002101637E
:1035900006980599BDF8122001F0B2FD8DF81F00C4
:1035A00003E002208DF81F00FFE79DF81F0008B020
:1035B00080BD000080B588B001460790079800687C
:1035C00041F20002C4F20102904206911DD1FFE7D0
:1035D00040F2A020C2F2000040F2D801C2F2000185
:1035E0000122059004910392FFF7AEFF04990A7837
:1035F0000290104601F0C8FF059901900846049911
:10360000039AFFF7A1FF0090FFE708B080BD00001C
:1036100082B001460190009102B07047FFE7FEE7DB
:1036200080B587B013468C46864605900491039278
:10363000039801280293CDF804C0CDF800E017D11B
:10364000FFE740F28400C2F200000021016040F276
:103650004800C2F20000016040F29C00C2F200008B
:10366000016040F2C800C2F200000160069151E022
:1036700004980599401A00EE100AB8EEC00A40F20C
:103680004800C2F2000080ED000A40F21001C2F2D0
:10369000000191ED000A90ED001A40F29C01C2F287
:1036A000000191ED002A31EE423A40F20802C2F2E6
:1036B000000292ED004A24EE014A00EE034A40F275
:1036C0000002C2F2000292ED000A32EE022A31EE4E
:1036D000421A40F2C802C2F2000292ED002A31EE14
:1036E000021A00EE014A40F28403C2F2000393ED95
:1036F000000A30EE040A83ED000AD1F800C0C2F8D7
:1037000000C00068086093ED000ABDEEC00A8DEDB0
:10371000060AFFE7069807B080BD000080B587B0B5
:1037200013468C468646059004910392039801281F
:103730000293CDF804C0CDF800E017D1FFE740F2C6
:103740008800C2F200000021016040F24C00C2F289
:103750000000016040F2A000C2F20000016040F2EF
:10376000CC00C2F200000160069151E00498059976
:10377000401A00EE100AB8EEC00A40F24C00C2F245
:10378000000080ED000A40F21401C2F2000191ED48
:10379000000A90ED001A40F2A001C2F2000191ED82
:1037A000002A31EE423A40F20C02C2F2000292EDDF
:1037B000004A24EE014A00EE034A40F20402C2F23B
:1037C000000292ED000A32EE022A31EE421A40F275
:1037D000CC02C2F2000292ED002A31EE021A00EE93
:1037E000014A40F28803C2F2000393ED000A30EE72
:1037F000040A83ED000AD1F800C0C2F800C00068D6
:10380000086093ED000ABDEEC00A8DED060AFFE7E1
:10381000069807B080BD000087B00146B0EE601A80
:10382000B0EE402A8DED050ACDED040A0390039811
:10383000012802918DED011A8DED002A17D1FFE7C5
:1038400040F25000C2F200000021016040F2A400EA
:10385000C2F20000016040F29800C2F20000016074
:1038600040F29400C2F2000001600691B2E09DEDCA
:10387000040A9DED051A30EE410A40F25000C2F2F2
:10388000000080ED000A90ED000A9FED541AB4EE9E
:10389000C10AF1EE10FA0DDDFFE740F25000C2F26E
:1038A000000090ED000A9FED4E1A30EE010A80ED07
:1038B000000AFFE740F25000C2F2000090ED000A5B
:1038C0009FED481AB4EEC10AF1EE10FA0DDAFFE7E7
:1038D00040F25000C2F2000090ED000A9FED421A43
:1038E00030EE010A80ED000AFFE740F25000C2F21C
:1038F000000090ED000A40F29400C2F2000090ED4A
:10390000001AB8EEC11A31EE000ABDEEC00A80ED11
:10391000000A006840F2DD51884208DBFFE740F210
:103920009400C2F2000040F2DC510160FFE740F277
:103930009400C2F2000000684FF62321CFF6FF7119
:1039400088420ADCFFE740F29400C2F200004FF622
:103950002421CFF6FF710160FFE740F23400C2F28C
:10396000000090ED000A40F25000C2F2000090ED1D
:10397000001A40F2E801C2F2000191ED002A40F283
:103980009401C2F2000191ED003AB8EEC33A22EE82
:10399000032A00EE012A40F2E401C2F2000191ED97
:1039A000000A40F2A401C2F2000191ED003A31EEAA
:1039B000431A00EE012A40F29802C2F2000282EDA0
:1039C000002A0068086092ED000ABDEEC00A8DED85
:1039D000060AFFE7069807B0704700BF00003443AF
:1039E0000000B4C3000034C30000B44380B596B0F7
:1039F000002015901490139012901190FFE7002072
:103A0000109043F63000C4F20200016841F0040156
:103A10000160006800F00400109010980C90FFE71F
:103A2000FFE700200F9043F63000C4F20200016867
:103A300041F080010160006800F080000F900F9855
:103A40000B90FFE7FFE700200E9043F63000C4F232
:103A50000200016841F001010160006800F001000E
:103A60000E900E980A90FFE7FFE700200D9043F6B6
:103A70003000C4F20200016841F0020101600068F8
:103A800000F002000D900D980990FFE740F600004D
:103A9000C4F202004FF400510022089007910692F0
:103AA000FCF710FF0020C4F20200F0210590049101
:103AB000069AFCF707FF40F20040C4F202004FF400
:103AC000704103900291069AFCF7FCFE0798119052
:103AD00001211291069A139214920DF1440E089846
:103AE00001917146CDF800E0FCF716FD04981190A5
:103AF00001991291069A1392149205980099FCF775
:103B00000BFD0298119001991291069A139214924A
:103B100003980099FCF700FD16B080BD80B596B003
:103B200000201590149013901290119010900F9007
:103B30000E900D900C900B900A90099008900790B1
:103B400006900590049003900290019040F2F001DD
:103B5000C2F200010022C4F201020A6042F2CF0266
:103B60004A6088606322CA60086148618020886179
:103B70000846FDF7EFFD002803D0FFE7FCF726FC21
:103B8000FFE74FF48050129040F2F000C2F20000C4
:103B900012A9FDF7E9FE002803D0FFE7FCF716FCA9
:103BA000FFE740F2F000C2F20000FEF753FC0028ED
:103BB00003D0FFE7FCF70AFCFFE70020109011900C
:103BC00040F2F000C2F2000010A9FDF73FFD00280E
:103BD00003D0FFE7FCF7FAFBFFE760200990002025
:103BE0000A900B900C900D900E900F9040F2F00107
:103BF000C2F2000109AA009008461146009AFEF799
:103C000079FB002803D0FFE7FCF7E0FBFFE740F279
:103C1000F000C2F2000009A90C22FEF76BFB00289D
:103C200003D0FFE7FCF7D2FBFFE7002001900290F2
:103C30000390049005904FF400510691089040F2D3
:103C4000F000C2F2000001A9FDF7A2FC002803D099
:103C5000FFE7FCF7BBFBFFE740F2F000C2F2000019
:103C6000FEF7DEFA16B080BD80B58CB003A8242123
:103C70000090FCF7E7FA00200290019040F2381122
:103C8000C2F200014FF0804EC1F800E04860886049
:103C90004FF0FF3EC1F80CE0086188614FF0010E63
:103CA000CDF80CE00490CDF814E006900790089051
:103CB000CDF824E00A900B9008460099FDF72AFF02
:103CC000002803D0FFE7FCF781FBFFE7002001900D
:103CD000029040F23810C2F2000001A9FDF7B6FCD4
:103CE000002803D0FFE7FCF771FBFFE70CB080BDB5
:103CF00080B58CB003A824210090FCF7A3FA002023
:103D00000290019040F28011C2F2000140F2004E98
:103D1000C4F2000EC1F800E0486088604FF6FF7EF4
:103D2000C1F80CE0086188614FF0010ECDF80CE09D
:103D30000490CDF814E0069007900890CDF824E0A8
:103D40000A900B9008460099FDF7E4FE002803D086
:103D5000FFE7FCF73BFBFFE700200190029040F2F9
:103D60008010C2F2000001A9FDF770FC002803D00A
:103D7000FFE7FCF72BFBFFE70CB080BD80B58CB0F4
:103D800003A824210090FCF75DFA00200290019026
:103D900040F2C811C2F2000140F6000EC4F2000E5B
:103DA000C1F800E0486088604FF6FF7EC1F80CE083
:103DB000086188614FF0010ECDF80CE00490CDF859
:103DC00014E0069007900890CDF824E00A900B903C
:103DD00008460099FDF79EFE002803D0FFE7FCF798
:103DE000F5FAFFE700200190029040F2C810C2F2FD
:103DF000000001A9FDF72AFC002803D0FFE7FCF72B
:103E0000E5FAFFE70CB080BD80B58CB003A8242193
:103E10000090FCF717FA00200290019040F2102168
:103E2000C2F2000140F6004EC4F2000EC1F800E0FC
:103E3000486088604FF0FF3EC1F80CE0086188617F
:103E40004FF0010ECDF80CE00490CDF814E0069090
:103E500007900890CDF824E00A900B90084600994E
:103E6000FDF758FE002803D0FFE7FCF7AFFAFFE7A5
:103E700000200190029040F21020C2F2000001A93F
:103E8000FDF7E4FB002803D0FFE7FCF79FFAFFE70C
:103E90000CB080BD80B58CB000200B900A900990CA
:103EA000089007900690059004900390029001906E
:103EB00040F25821C2F2000144F20002C4F20102B1
:103EC0000A6042F2CF024A6088606322CA600861D9
:103ED000802088610846FDF73DFC002803D0FFE7FD
:103EE000FCF774FAFFE74FF48050089040F2582036
:103EF000C2F2000008A9FDF737FD002803D0FFE754
:103F0000FCF764FAFFE740F25820C2F20000FEF727
:103F1000A1FA002803D0FFE7FCF758FAFFE760207A
:103F20000190002002900390059040F25821C2F2C7
:103F3000000101AA009008461146009AFEF7DAF93E
:103F4000002803D0FFE7FCF741FAFFE740F25820D2
:103F5000C2F2000001A90422FEF7CCF9002803D028
:103F6000FFE7FCF733FAFFE740F25820C2F2000007
:103F7000FEF756F90CB080BD80B540F2A020C2F229
:103F8000000041F20001C4F2010101604FF4E1318F
:103F9000416000218160C16001610C224261816148
:103FA000C161FFF723FA002803D0FFE7FCF70EFA00
:103FB000FFE780BDFFE7FEE780B584B001460390D0
:103FC00003980028029118DBFFE740F20040C4F29A
:103FD00002004FF4804101220190FCF773FC4FF482
:103FE000004100220198FCF76DFC039840F2F001BB
:103FF000C2F200010968486318E040F20040C4F2D0
:1040000002004FF4804100220090FCF75BFC4FF46B
:10401000004101220098FCF755FC0398404240F211
:10402000F001C2F2000109684863FFE704B080BDF7
:1040300080B584B00146039003980028029118DBF4
:10404000FFE740F20040C4F202004FF400510122A9
:104050000190FCF737FC4FF4805100220198FCF7E7
:1040600031FC039840F2F001C2F2000109680864D3
:1040700018E040F20040C4F202004FF480510022E8
:104080000090FCF71FFC4FF4005101220098FCF750
:1040900019FC0398404240F2F001C2F200010968A5
:1040A0000864FFE704B080BD80B584B0014603908A
:1040B00003980028029115DBFFE70020C4F20200FC
:1040C000102101220190FCF7FDFB20210022019824
:1040D000FCF7F8FB039840F25821C2F2000109688E
:1040E000486315E00020C4F2020020210022009065
:1040F000FCF7E8FB102101220098FCF7E3FB039892
:10410000404240F25821C2F2000109684863FFE7CB
:1041100004B080BD80B584B00146039003980028A8
:10412000029115DBFFE70020C4F2020040210122CA
:104130000190FCF7C7FB802100220198FCF7C2FB2D
:10414000039840F25821C2F200010968886315E023
:104150000020C4F20200402100220090FCF7B2FBD4
:10416000802101220098FCF7ADFB0398404240F209
:104170005821C2F2000109688863FFE704B080BDDE
:10418000FFE7FEE780B58BB013468C4686460A9063
:10419000099108920A9800F0070007900798C0F16B
:1041A000070005280493CDF80CC0CDF808E003D330
:1041B000FFE70420019004E00798C0F10700019098
:1041C000FFE70198069007980430062803D8FFE718
:1041D0000020009003E0079803380090FFE7009864
:1041E000059009980699012202FA01F10139084067
:1041F00005998840089B02FA01F1013919400843EA
:104200000BB080BD83B001460290029848F2A9022B
:10421000CAF60A0252FB0000C21202EBD07000EE96
:10422000100AB8EEC00A8DED010A9DED010A009159
:1042300003B0704700000000000000000000000014
:10424000EFF30980BFF36F8F154B1A681EF0100F44
:1042500008BF20ED108A20E9F04F10602DE9090019
:104260004FF0500080F31188BFF34F8FBFF36F8F73
:1042700001F0D0F94FF0000080F31188BDE809008B
:1042800019680868B0E8F04F1EF0100F08BFB0ECD6
:10429000108A80F30988BFF36F8F704700BF00BF9B
:1042A0000403002080B587B013468C4686460590EF
:1042B00004910392039801280293CDF804C0CDF82D
:1042C00000E017D1FFE740F2B000C2F20000002189
:1042D000016040F2B400C2F20000016040F2B80098
:1042E000C2F20000016040F28C00C2F200000160E6
:1042F000069173E004980599401A40F2B001C2F2A9
:1043000000010860086840F28C01C2F200010A68EE
:1043100010440860086841F28931884208DBFFE7F1
:1043200040F28C00C2F2000041F288310160FFE7E8
:1043300040F28C00C2F2000000684EF67741CFF6E2
:10434000FF7188420ADCFFE740F28C00C2F20000F5
:104350004EF67841CFF6FF710160FFE740F228008A
:10436000C2F2000090ED000A40F2B000C2F200007C
:10437000016801EE101AB8EEC11A40F22002C2F232
:10438000000292ED002A40F28C02C2F2000292ED8D
:10439000003AB8EEC33A22EE032A00EE012A40F2B8
:1043A0001802C2F2000292ED000A40F2B402C2F218
:1043B00000021368C91A01EE101AB8EEC11A00EE15
:1043C000012ABDEEC20A40F2B801C2F2000181ED3D
:1043D000000A0068106008680690FFE7069807B0BA
:1043E00080BD000080B587B013468C468646059098
:1043F00004910392039801280293CDF804C0CDF8EC
:1044000000E017D1FFE740F2BC00C2F2000000213B
:10441000016040F2C000C2F20000016040F2C4003E
:10442000C2F20000016040F29000C2F200000160A0
:10443000069173E004980599401A40F2BC01C2F25B
:1044400000010860086840F29001C2F200010A68A9
:1044500010440860086841F28931884208DBFFE7B0
:1044600040F29000C2F2000041F288310160FFE7A3
:1044700040F29000C2F2000000684EF67741CFF69D
:10448000FF7188420ADCFFE740F29000C2F20000B0
:104490004EF67841CFF6FF710160FFE740F22C0045
:1044A000C2F2000090ED000A40F2BC00C2F200002F
:1044B000016801EE101AB8EEC11A40F22402C2F2ED
:1044C000000292ED002A40F29002C2F2000292ED48
:1044D000003AB8EEC33A22EE032A00EE012A40F277
:1044E0001C02C2F2000292ED000A40F2C002C2F2C7
:1044F00000021368C91A01EE101AB8EEC11A00EED4
:10450000012ABDEEC20A40F2C401C2F2000181EDEF
:10451000000A0068106008680690FFE7069807B078
:1045200080BD000083B0B0EE401A8DED020A9DED13
:10453000020A9FED062A20EE020ABDEEC00A8DEDAA
:10454000010A01988DED001A03B070470000434541
:1045500083B0B0EE401A8DED020A9DED020A9FED88
:10456000082A20EE020A9FED072A80EE020ABDEE1D
:10457000C00A8DED010A01988DED001A03B0704755
:10458000000043450080BB45000000000000000023
:10459000074B19680868B0E8F04F80F30988BFF34B
:1045A0006F8F4FF0000080F31188704700BF00BF8D
:1045B0000403002080B584B00146029002980138BF
:1045C000B0F1807F019103D3FFE7012003901BE04E
:1045D000029801384EF21401CEF2000108604FF04B
:1045E000FF300F2100F062FE4EF21800CEF2000004
:1045F000002101604EF21000CEF200004FF0070ED5
:10460000C0F800E00391FFE7039804B080BD00000C
:1046100080B5FCF77FF901F08DF8012803D0FFE7A2
:10462000FFF7F6FFFFE780BD80B596B00AA83021FE
:10463000FBF708FE0020099008900790069005906F
:10464000FFE70020049043F64000C4F20200016836
:1046500041F080510160006800F08050049004989F
:104660000290FFE7FFE70020039047F20000C4F24A
:1046700000000168022262F38F310160006800F4DB
:104680004040039003980190FFE702200A90012127
:104690000D9110210E91109000211191082112917D
:1046A000542113911490042015900AA8FCF7DAFB0A
:1046B000002803D0FFE7FBF789FEFFE70F200590F6
:1046C00002200690002107914FF480520892099130
:1046D00005A9009008460099FCF7E6F9002803D0E8
:1046E000FFE7FBF773FEFFE716B080BD4EF688507C
:1046F000CEF20000016841F47001016070470000D3
:1047000080B540F2F000C2F20000FDF785FC80BDEC
:1047100085B00A460346049003910498006802900D
:1047200004980021C4F201018842019200931DD037
:10473000FFE70498B0F1804F18D0FFE7049840F2EB
:104740000041C4F20001884210D0FFE7049840F60F
:104750000001C4F20001884208D0FFE7049840F647
:104760000041C4F2000188420AD1FFE7029820F01C
:104770007000029003984068029908430290FFE796
:1047800004980021C4F20101884235D0FFE7049863
:10479000B0F1804F30D0FFE7049840F20041C4F2FE
:1047A0000001884228D0FFE7049840F60001C4F2D7
:1047B0000001884220D0FFE7049840F60041C4F28F
:1047C0000001884218D0FFE7049844F20001C4F2C7
:1047D0000101884210D0FFE7049844F20041C4F27E
:1047E0000101884208D0FFE7049844F60001C4F2B2
:1047F000010188420AD1FFE7029820F4407002903C
:104800000398C068029908430290FFE7029820F0DD
:1048100080000399496908430290039880680499CD
:10482000C862039800680499886204980021C4F261
:104830000101884205D1FFE70398006904990863E4
:10484000FFE70498016841F0040101600498012128
:10485000416102980499086005B0704780B587B03F
:1048600013468C468646069005910492059800F002
:104870001F00012101FA00F00390039806990A6ACB
:1048800022EA000008620498059901F01F0188409F
:1048900006990A6A104308620293CDF804C0CDF865
:1048A00000E007B080BD0000B0B589B09C469646D8
:1048B0000C46054608900791069205930898806873
:1048C0000490049820F47F40049007980699059A74
:1048D00041EA022108430499084304900498089986
:1048E0008860CDF80CC0CDF808E00194009509B0BF
:1048F000B0BD000085B00A460346049003910498B9
:1049000080680290029820F070000290039802994B
:10491000084340F0070002900298049988600192D1
:10492000009305B07047000087B00A460346069022
:1049300005910698006A03900698016A21F001012A
:104940000162069840680290069880690490049875
:1049500020F070000490049820F003000490059863
:104960000068049908430490039820F00200039023
:104970000598806803990843039006980021C4F2C3
:1049800001018842019200930ED1FFE7039820F0C5
:10499000080003900598C0680399084303900398A2
:1049A00020F004000390FFE706980021C4F2010103
:1049B000884213D1FFE7029820F480700290029899
:1049C00020F4007002900598406902990843029013
:1049D00005988069029908430290FFE702980699BA
:1049E000486004980699886105984068069948636C
:1049F00003980699086207B07047000087B00A461E
:104A00000346069005910698006A03900698016A8D
:104A100021F01001016206984068029006988069B2
:104A20000490049820F4E0400490049820F440702E
:104A3000049005980068049941EA002004900398C6
:104A400020F02000039005988068039941EA001047
:104A5000039006980021C4F201018842019200935C
:104A60000FD1FFE7039820F0800003900598C068FD
:104A7000039941EA00100390039820F0400003904E
:104A8000FFE706980021C4F20101884215D1FFE733
:104A9000029820F480600290029820F40060029056
:104AA00005984069029941EA800002900598806962
:104AB000029941EA80000290FFE702980699486057
:104AC0000498069988610598406806998863039858
:104AD0000699086207B0704787B00A4603460690F9
:104AE00005910698006A03900698016A21F4807186
:104AF00001620698406802900698C0690490049884
:104B000020F070000490049820F0030004900598B1
:104B10000068049908430490039820F400700390FF
:104B200005988068039941EA0020039006980021C7
:104B3000C4F201018842019200930FD1FFE703986C
:104B400020F4006003900598C068039941EA0020B2
:104B50000390039820F480600390FFE706980021FB
:104B6000C4F20101884215D1FFE7029820F4805079
:104B70000290029820F40050029005984069029932
:104B800041EA0010029005988069029941EA0010FC
:104B90000290FFE702980699486004980699C86158
:104BA000059840680699C86303980699086207B09B
:104BB0007047000087B00A460346069005910698A4
:104BC000006A03900698016A21F4805101620698F8
:104BD000406802900698C0690490049820F4E04070
:104BE0000490049820F4407004900598006804999B
:104BF00041EA00200490039820F4005003900598A7
:104C00008068039941EA0030039006980021C4F2BD
:104C100001018842019200930BD1FFE7029820F432
:104C20008040029005984069029941EA8010029004
:104C3000FFE702980699486004980699C8610598AC
:104C400040680699086403980699086207B070479F
:104C500080B588B013468C4686460790069105922B
:104C60000798006A03900798016A21F00101016228
:104C7000079880690490049820F0F000049005984B
:104C8000049941EA00100490039820F00A00039070
:104C9000069803990843039004980799886103983C
:104CA000079908620293CDF804C0CDF800E008B07F
:104CB00080BD000080B588B013468C4686460790BC
:104CC000069105920798006A03900798016A21F0FF
:104CD00010010162079880690490049820F47040E4
:104CE00004900598049941EA00300490039820F05C
:104CF000A00003900698039941EA001003900498DD
:104D0000079988610398079908620293CDF804C057
:104D1000CDF800E008B080BD80B584B001460390B6
:104D20000398806B029002980022C285029801913C
:104D3000FEF714F904B080BD85B0014604900091DF
:104D4000FFE7FFE70498006850E8030F20F4907035
:104D50000390FFE703980499096841E80302002AD9
:104D6000F0D1FFE7FFE7FFE7FFE70498006850E8AE
:104D7000050F20F001000290FFE7029804990968EE
:104D800041E80502002AF0D1FFE7FFE70498006B35
:104D9000012814D1FFE7FFE7FFE70498006850E817
:104DA000030F20F010000190FFE7019804990968B3
:104DB00041E80302002AF0D1FFE7FFE7FFE704988C
:104DC000202180F8421004980021016305B070474B
:104DD00080B582B00146019001980068C26822F057
:104DE0004002C2600198202280F841200198009181
:104DF000FEF70EFC002002B080BD000080B582B03E
:104E0000FFE70DF1070000F093FB002805D1FFE755
:104E10009DF80700FBF754FAF3E702B080BD0000ED
:104E200080B588B001460690002005900490069851
:104E300090F842002228019140F0A580FFE70698F3
:104E40008068B0F5805F14D1FFE7069800690028FC
:104E50000FD1FFE70698806A0490069800684068C2
:104E60006FF35F20049908800698816A023181629D
:104E700025E00698806A059006988068B0F5805F06
:104E80000AD0FFE70698806800280BD1FFE7069854
:104E90000069002806D1FFE7069800684068059978
:104EA000087007E006980068406800F07F000599E8
:104EB0000870FFE70698816A01318162FFE7069872
:104EC000C18D0139C1854FF6FF70014257D1FFE70F
:104ED00006980068C16821F02001C160069800684A
:104EE000C16821F48071C16006980068416921F0B1
:104EF000010141610698202180F8421006980021A6
:104F000041630698006B012831D1FFE70698002124
:104F10000163FFE7FFE70698006850E8030F20F001
:104F200010000390FFE703980699096841E803021F
:104F3000002AF0D1FFE7FFE706980068006810F04C
:104F4000100F0FD0FFE7FFE70020029006980068DF
:104F500000680290069800684068029002980090ED
:104F6000FFE7FFE70698818DFDF7EEFF03E0069867
:104F7000FEF720FBFFE700208DF81F0007E0002070
:104F80008DF81F0003E002208DF81F00FFE79DF859
:104F90001F0008B080BD000080B58CB001460B90AA
:104FA0000B980068006920F440500B9A1368D2688F
:104FB000104318610B9882680369D0F814C0C06967
:104FC0001A4342EA0C0210430A900B980068C0682A
:104FD00049F20C6290430A9A10430B9A1268D0600F
:104FE0000B980068406920F440700B9A136892692E
:104FF000104358610B98006841F20002C4F20102AC
:105000009042089109D0FFE70B98006841F20041F7
:10501000C4F20101884204D1FFE7FBF79BFE09902F
:1050200003E0FBF783FE0990FFE70B98C069B0F53A
:10503000004F31D1FFE709981921A0FB01010B9A1C
:10504000136852684FEA420CD20F07926246DDF8AD
:105050001CC006936346FBF7B9F848F21F51C5F22E
:10506000EB11A0FB01235B094FF0640C03FB1C0058
:105070004FF0320C0CEBC000A0FB01014FF4F87CA8
:105080000CEA111C0CEB0313C1F342111943069BEC
:1050900099600590049230E009981921A0FB010164
:1050A0000B9A136852684FEA820C920F0392624681
:1050B000DDF80CC002936346FBF788F848F21F51F5
:1050C000C5F2EB11A0FB01235B094FF0640C03FB5D
:1050D0001C004FF0320C0CEB0010A0FB01014FF054
:1050E000F00C0CEA511C0CEB0313C1F343111943F0
:1050F000029B996001900092FFE70CB080BD000018
:1051000080B586B013468C46864605900491ADF86E
:105110000E20049805998862BDF80E0005998885CF
:10512000BDF80E000599C8850598002141640598D1
:10513000222180F842100598006900280293CDF8DA
:1051400004C0CDF800E007D0FFE705980068C1680B
:1051500041F48071C160FFE705980068416941F042
:105160000101416105980068C16841F02001C160FA
:10517000002006B080BD000084B001460290029875
:1051800090F84100212800913DD1FFE70298806806
:10519000B0F5805F14D1FFE70298006900280FD1B5
:1051A000FFE70298006A0190019800886FF35F2082
:1051B0000299096848600298016A0231016208E0B8
:1051C0000298016A4A1C02620878029909684860DC
:1051D000FFE70298C18C0139C1844FF6FF7001428C
:1051E0000DD1FFE702980068C16821F08001C1601D
:1051F00002980068C16841F04001C160FFE70020EB
:105200008DF80F0003E002208DF80F00FFE79DF8F6
:105210000F0004B07047000080B540F2A020C2F239
:105220000000FDF7A1FE80BDFFE7FEE784B00A465F
:1052300003460390029103980299494288420192E1
:10524000009304DAFFE7029840420390FFE70398D7
:105250000299884203DDFFE702980390FFE7039875
:1052600004B0704782B001468DF807009DF9070031
:10527000002800910FDBFFE79DF9070000F01F01F8
:10528000012202FA01F140094EF20012CEF20002B0
:1052900042F82010FFE702B0704700004EF60C50B5
:1052A000CEF200000068C0F30220704784B00A46C6
:1052B00003468DF80F0002919DF90F00002801921E
:1052C00000930ADBFFE7029800019DF90F104EF2F0
:1052D0000042CEF2000288540BE0029800019DF8D3
:1052E0000F1001F00F014EF61452CEF20002885456
:1052F000FFE704B07047000084B0014603900398B4
:1053000000F0070001904EF60C50CEF2000002684B
:105310000292029A4FF6FF031A400292029A019BF0
:1053200042EA03220023C0F2FA531A430292029A7D
:105330000260009104B0704787B0B0EE412AB0EE31
:10534000603AB0EE404A8DED060ACDED050A8DEDCE
:10535000041A9DED050A9DED061A30EE410A8DED09
:10536000030A9DED030A9DED041AB4EEC10AF1EEA5
:1053700010FA8DED022A8DED013A8DED004A03DD24
:10538000FFE70498039013E09DED030A9DED041AD6
:10539000B1EE411AB4EEC10AF1EE10FA07DAFFE7F6
:1053A0009DED040AB1EE400A8DED030AFFE7FFE729
:1053B0009DED060A9DED031A30EE010A07B0704715
:1053C00080B592B0002011900F90FBF7B1FA0E90CB
:1053D000FFF72AF9FEF70AFBFEF7A0FBFEF744FCF5
:1053E000FEF786FCFEF7CAFCFEF70EFDFEF752FD47
:1053F000FEF7C2FD40F2A020C2F20000D0F800E0AB
:10540000DEF80C1041F02001CEF80C1040F2D8016B
:10541000C2F200010122FEF797F840F23811C2F201
:1054200000013C220D90084611460C92FCF740FD0D
:1054300040F28011C2F200010B9008460C99FCF773
:1054400037FD40F2C811C2F200010A9008460C99DB
:10545000FCF72EFD40F21021C2F20001099008462F
:105460000C99FCF725FD40F2F001C2F20001089012
:1054700008460F9A07911146FDF74EF80C21079A3E
:1054800006901046FDF748F840F25821C2F200019C
:10549000059008460F9A04911146FDF73DF8042146
:1054A000049A03901046FDF737F8079902900846D2
:1054B000FCF7EEF90190FFE740F2AC30C2F20000D9
:1054C00001788DF8431040F2A431C2F200018988BE
:1054D000ADF8401000788DF84200FFE79DF84300DA
:1054E0009DF842108842E7D1FFE7BDF9400000EE89
:1054F000100AB8EEC00A9FED0C1A80EE010A9FED6B
:105500000B1A20EE010A40F2EC00C2F2000080ED1E
:10551000000A006840F2E821C2F200010860FFE7DB
:10552000FFF76CFCFCE700BF0000004700003443BD
:1055300083B00146019040F2D530C2F200000078FD
:1055400040F2D432C2F2000212789042009104D1AB
:10555000FFE74FF0FF30029013E040F2D530C2F287
:105560000000017840F2C432C2F20002515C019A9C
:1055700011700178013101F00F01017000200290DB
:10558000FFE7029803B0704783B001468DF807002B
:1055900040F2D430C2F200000078013000F00F0079
:1055A0008DF806009DF8060040F2D532C2F20002E6
:1055B00012789042009104D1FFE74FF0FF30029043
:1055C00011E09DF8070040F2D431C2F200010A78E0
:1055D00040F2C433C2F2000398549DF806000870EC
:1055E00000200290FFE7029803B0704784B00A469B
:1055F00003460390029101920093FFE7FEE700004B
:1056000084B00A4603460390029101920093FFE79B
:10561000FEE7000080B588B040F2DC30C2F2000046
:105620000068002807D0FFE740F2E830C2F200002F
:10563000012101607CE040F2E830C2F2000000216C
:10564000016040F20430C2F200000068006B059077
:105650004FF0A530049005980068B0F1A53F12D135
:10566000FFE705984068B0F1A53F0CD1FFE705982A
:105670008068B0F1A53F06D1FFE70598C068B0F19A
:10568000A53F0DD0FFE740F20430C2F200000168F0
:1056900000683430019008460199FFF7A7FFFFE743
:1056A00040F2E030C2F20000006807900798B0FABC
:1056B00080F08DF81B009DF81B00C0F11F000390C7
:1056C000039800EB800040F20831C2F2000151F86B
:1056D000200000280AD1FFE745F2A670C0F60000BE
:1056E00040F6F631FFF78CFF0090FFE7039800EBE0
:1056F000800040F20831C2F2000101EB800002900C
:1057000002984168496841600298416808308142C6
:1057100005D1FFE70298416849684160FFE70298B8
:105720004068C06840F20431C2F200010860FFE73F
:1057300008B080BD81B040F2E430C2F200000068E1
:10574000002803D1FFE7012000900EE040F2DC309A
:10575000C2F200000068002803D1FFE70220009099
:1057600002E000200090FFE7FFE7009801B07047DB
:1057700002E008C8121F08C1002AFAD1704770471A
:10578000002001E001C1121F002AFBD17047000078
:1057900000000000000001020304060708090000E1
:1057A0000000010203042E2E2F4652454552544F4D
:1057B000532F736F757263652F7461736B732E63F0
:1057C00000000000E857000800000020480000002A
:1057D000705700083058000848000020A807000053
:1057E0008057000800000000CDCCCC3DCDCCCC3D96
:1057F000CDCC8C3ECDCC8C3E3333D33F3333D33FF3
:10580000C520803FC520803FF7CC923AF7CC923A32
:10581000B81E053EB81E053E0024F40000002041DD
:105820000000803FABAA66420100000010000000AB
:040000050800019559
:00000001FF
