:020000040800F2
:1000000038090020350200080D2000081D1B0008DB
:10001000791F00082B0400080525000800000000D7
:100020000000000000000000000000001120000897
:10003000DD040008000000000F2000081320000865
:100040004F0200084F0200084F0200084F0200084C
:100050004F0200084F0200084F0200084F0200083C
:100060004F0200084F0200084F0200084F0200082C
:100070004F0200084F0200084F0200084F0200081C
:100080004F0200084F0200084F0200080000000065
:100090000000000000000000000000004F02000807
:1000A0004F020008C12000084F0200084F0200085C
:1000B0004F0200084F0200084F0200084F020008DC
:1000C0004F0200084F0200084F0200084F020008CC
:1000D0004F020008FD2400084F0200080000000045
:1000E000DF0400084F0200084F0200080000000073
:1000F0000000000000000000000000004F020008A7
:10010000000000004F0200084F0200084F020008E4
:1001100000000000000000000000000000000000DF
:100120004F0200084F0200084F0200084F0200086B
:100130004F02000800000000000000000000000066
:100140000000000000000000000000004F02000856
:100150004F0200084F0200084F0200084F0200083B
:100160004F0200084F0200080000000000000000DD
:10017000000000000000000000000000000000007F
:10018000000000004F020008000000000000000016
:100190004F02000800F002F800F03CF80AA090E8D6
:1001A000000C82448344AAF10107DA4501D100F032
:1001B00031F8AFF2090EBAE80F0013F0010F18BFC3
:1001C000FB1A43F0010318473024000050240000BC
:1001D000103A24BF78C878C1FAD8520724BF30C873
:1001E00030C144BF04680C60704700000023002445
:1001F00000250026103A28BF78C1FBD8520728BF37
:1002000030C148BF0B6070471FB502F0E3F91FBD56
:1002100010B510BD00F0CFF81146FFF7F5FF02F062
:1002200073F900F0EDF803B4FFF7F2FF03BC00F040
:10023000F5F800000948804709480047FEE7FEE757
:10024000FEE7FEE7FEE7FEE7FEE7FEE7FEE7FEE786
:1002500004480549054A064B70470000B1200008D4
:1002600095010008380300203809002038050020D7
:100270003805002053EA020C00F069802DE9F04BAC
:100280004FF00006002B1FBFB3FA83F503FA05F405
:1002900024FA05F65E4012BF1643B2FA82F502FA5E
:1002A00005F4C5F120051EBF22FA05FC44EA0C0442
:1002B000203556EA044C4FEA144418BF641C4FF032
:1002C00000084FF00009904271EB030C39D300296C
:1002D00019BFB1FA81F701FA07F6B0FA80F700FA10
:1002E00007F6C7F120071EBF20FA07FC46EA0C06F6
:1002F0002037B6FBF4FCA7EB0507103F07F01F0BF8
:10030000CBF120062CFA06F60CFA0BFB44BFB346E1
:100310000026202FA4BF5E464FF0000B5BEA060CC0
:1003200008BF4FF0010B19EB0B0948EB0608ABFBBC
:10033000027C06FB02CC0BFB03CCC01B71EB0C0157
:10034000C1E70B46024641464846BDE8F08B13B56F
:100350004FF000004FF00001AFF30080BDE81C40FB
:1003600070474FF0000200B5134694469646203978
:1003700022BFA0E80C50A0E80C50B1F12001BFF45E
:10038000F7AF090728BFA0E80C5048BF0CC05DF8C4
:1003900004EB890028BF40F8042B08BF704748BF12
:1003A00020F8022B11F0804F18BF00F8012B704786
:1003B000704770477047754600F02CF8AE46050050
:1003C0006946534620F00700854618B020B5FFF770
:1003D0003FFFBDE820404FF000064FF000074FF010
:1003E00000084FF0000BAC46ACE8C009ACE8C0090F
:1003F000ACE8C009ACE8C00921F007018D467047A0
:1004000010B50446AFF300802046BDE81040FFF76A
:100410000ABF000000487047C000002001491820B2
:10042000ABBEFEE7260002007047FEE780B5DFF8AE
:10043000A4C04FEA102E8CF804008CF805E04FEAB7
:10044000104E000E8CF806E08CF80700080A8CF8B5
:1004500008108CF80900080C8CF80A00080E00211E
:100460008CF80B00100A8CF80C208CF80D00100C86
:100470008CF80E00100E00228CF80F00180A8CF871
:1004800010308CF81100180C8CF81200180E8CF833
:10049000130010208CF80300002006E01CF8003048
:1004A000013053FA81F151FA82F21428F6D100207A
:1004B0008CF814108CF81520162808BF80BD06494A
:1004C0000A6812F0400FFAD01CF8002001304A6090
:1004D000F2E700BF940000200010014070474FF485
:1004E000805000F057B872B6FEE770B50446A66DAE
:1004F00000F030F9054694F83500022829D120682B
:10050000016821F016010160416921F0800141611B
:10051000216C09B9A16C19B1016821F008010160D1
:10052000016821F00101016005E000F013F9401BB2
:10053000052812D82068006810F0010FF5D1E06D91
:100540003F2101FA00F0B060012084F8350000205E
:1005500008E080206065012004E020206065032021
:1005600084F835000021C0B284F8341070BD90F8D2
:10057000351002291FBF80214165012070470521E8
:1005800080F835100068016821F001010160002049
:100590007047704703490A6802421CBF0860FFF7B2
:1005A000F8BF7047143C01402DE9FC4F5B4A072718
:1005B0004FF0010E4FF0030A4FF0000B4FF0000810
:1005C000904208BF0427564A02444FEAB223042B44
:1005D00038BF4FEAB22700970027102F08BFBDE8A9
:1005E000FC8F0A680EFA07F4224200F090804B68F4
:1005F00003F00302551E012D15D8D0F808C00AFAE1
:1006000008F52CEA050CCD6805FA08F545EA0C0555
:100610008560C3F3001505FA07FC4568A54345EA64
:100620000C05456001E0032A1DD0C6680AFA08F5EA
:10063000022A26EA05068D6805FA08F546EA050647
:10064000C66010D1374D0BF01C020F23934005EA12
:1006500057060644356A25EA03030D6905FA02F2D6
:100660001A4332624B68056803F003020AFA08F67F
:1006700013F4403F02FA08F225EA060642EA0602AF
:10068000026044D000220192274A136843F4804359
:100690001360126802F48042019227F00302234B98
:1006A000019E234D0BF00C0602EB03090F2259F8B3
:1006B00005C002FA06FE009A2CEA0E0C02FA06F6B3
:1006C0004FF0010E46EA0C0649F805609A684E683C
:1006D000A24316F4801F18BF224316F4001F9A602D
:1006E000144A156825EA040518BF254316F4003F8F
:1006F00015605A6822EA040218BF224316F4803FAC
:100700005A601A6822EA040218BF22431A600BF1E9
:10071000040B08F1020801375FE700BF0010024038
:100720000000FEBFFCFFFF7F44380240003C014058
:1007300008FCFFFF0C3C0140426902EA01039143BF
:1007400041EA034181617047002A08BF09048161C1
:10075000704700001F488068704700BF1D4801783F
:10076000826811448160704780B50B48016841F48C
:1007700000710160016841F480610160016841F429
:1007800080710160032000F07DF80F2000F006F872
:1007900000F022F8002080BD003C024070B50D4EF4
:1007A00004464FF47A713078B1FBF0F09249096851
:1007B000B1FBF0F000F00EFB01250F2C08D838B982
:1007C0004FF0FF3021460022002500F02FF8746022
:1007D000284670BD0000002082B0002001900B4927
:1007E0004A6842F480424A604A6802F480420192B8
:1007F000019A0090086840F080500860086800F096
:1008000080500090009802B0704700BF403802400E
:10081000002808DB00F01F010122400902FA01F163
:10082000014A42F82010704700E100E0B0B5144CD6
:100830001A4D00F00F03B0F1FF3FA3F104032B4466
:1008400003F10C03C8BF03192868C0F30220051D7B
:10085000C41E80F00700072D4FF0010538BF0024AB
:10086000042828BF042005FA00F00138084005FAE2
:1008700004F10F31A0401140084300011870B0BDD1
:1008800000E400E005494FF6FF030A681A4060F3F0
:100890000A22034810430860704700BF0CED00E0D7
:1008A0000000FA052DE9F04104468846002C00F0CE
:1008B0008480444FD7F8000400F00700404507D279
:1008C00087F80084D7F8000400F00700404574D191
:1008D000206810F0020F11D0410742BFB96841F4FF
:1008E000E051B960010742BFB96841F46041B960A5
:1008F000B968A26821F0F0011143B960C0072BD09C
:100900006068811E022904D2396811F0007F0BD182
:1009100053E0012804D1396811F4003F04D14CE0C0
:10092000396811F0020F48D0B96821F0030108437B
:10093000B860FFF70FFF064641F28835B868616876
:1009400000F00C00B0EB810F06D0FFF703FF801B17
:10095000A842F3D9032031E0D7F8000400F00700E3
:10096000404507D987F80084D7F8000400F0070055
:10097000404522D1206810F0040F05D0B968E26824
:1009800021F4E0511143B960000706D5B868216928
:1009900020F4604040EAC100B86000F033F8B96864
:1009A000094AC1F30311515CC84013490860074864
:1009B0000068FFF7F3FE002000E00120C0B2BDE8B0
:1009C000F08100BF00380240DE250008040000204E
:1009D00009480B4A006809490968C1F38221515C42
:1009E000C84070470448064A006804490968C1F3D2
:1009F0004231515CC8407047B400002008380240C2
:100A0000EE25000810B5F04C606800F00C011248AB
:100A1000082904D0042904BF104810BD10BD226865
:100A200020680E49002310F4800F02F03F0204BF3B
:100A300042F20041C0F2F4012068C0F38810A1FB2B
:100A40000001FFF717FC21680222C1F3014102EB0C
:100A50004101B0FBF1F010BD0024F40040787D01AD
:100A60002DE9F84F8246BAF1000F00F064819AF840
:100A70000000D44ED44FC0074AD0786800F00C0074
:100A8000042807D1306810F4003F41D0DAF80400A0
:100A9000F0BB50E1786800F00C00082803D13868FA
:100AA00010F4800FEED1DAF80480B8F5803F06D05C
:100AB0003068B8F5A02F13D140F480203060306842
:100AC00040F480303060FFF745FE0546306810F492
:100AD000003F1DD1FFF73EFE401B6428F6D9C3E05E
:100AE00020F480303060306820F480203060FFF7E0
:100AF00031FE0546B8F1000FE8D1306810F4003F30
:100B000006D0FFF727FE411B03206429F5D913E126
:100B10009AF80000AD4C800731D5786810F00C0FC2
:100B20001CD0786800F00C00082804BF386810F466
:100B3000800F13D0DAF80C00002800F09780012015
:100B40002060FFF707FE0546306810F0020F0ED157
:100B5000FFF700FE401B0228F6D985E0306810F050
:100B6000020F1CBFDAF80C00012840F0E480306866
:100B7000DAF8101020F0F80040EAC10030609AF86E
:100B80000000000722D5DAF8140078B10120C4F87B
:100B9000800EFFF7DFFD0546386F10F0020F15D10C
:100BA000FFF7D8FD401B0228F6D95DE00020C4F80D
:100BB000800EFFF7CFFD0546386F10F0020F05D00D
:100BC000FFF7C8FD401B0228F6D94DE09AF8000057
:100BD000A34640077CD5F86B4FF0000810F0805F0B
:100BE0000CD1CDF800804FF00108F86B40F0805038
:100BF000F863F86B00F0805000900098744830580B
:100C000010F4807F12D17248315841F48071315014
:100C1000FFF7A0FD05466E48305810F4807F05D1DF
:100C2000FFF798FD401B0228F5D91DE0DAF808907F
:100C3000B9F1010F06D0F86EB9F1050F27D140F0D8
:100C40000400F866F86E40F00100F866FFF782FDD8
:100C5000054641F28834F86E10F0020F31D1FFF7EB
:100C600079FD401BA042F6D9032065E000202060FA
:100C7000FFF770FD0546306810F0020F3FF47FAFBC
:100C8000FFF768FD411B03200229F4D954E020F04E
:100C90000100F866F86E20F00400F866FFF75AFDD0
:100CA0000546B9F1000FD4D141F28839F86E10F041
:100CB000020F06D0FFF74EFD411B03204945F5D931
:100CC0003AE0B8F1010F02BFF86B20F08050F863F2
:100CD000DAF81840002C72D0786800F00C00082870
:100CE0002ED1012C27D03868DAF81C1000F48002CD
:100CF0008A4220D1DAF8201000F03F028A421AD14D
:100D0000DAF8242047F6C0710140B1EB821F12D1FE
:100D1000DAF828104FF6FF72C903914300F440320D
:100D2000A1F580318A4206D1DAF82C1000F070600B
:100D3000B0EB016F43D00120C0B201B0BDE8F08F2D
:100D40000020CBF86000FFF705FD0546022C0BD113
:100D50005C46306810F0007F11D0FFF7FBFC411BB0
:100D600003200229F5D9E7E7306810F0007F26D08C
:100D7000FFF7F0FC411B03200229F5D9DCE70AF15B
:100D80001C052FCD0843D90340EA82104FF6FF72AD
:100D9000914340EA0560A1F58031084338600120A5
:100DA0002066FFF7D7FC0446306810F0007F06D1BC
:100DB000FFF7D0FC011B03200229F5D9BCE7002076
:100DC000BAE700BF00380240043802400000474242
:100DD0000038FEFF411E0020B0EB116F1CBF012048
:100DE0007047044AF023516003490B70072190605B
:100DF0001160704710E000E023ED00E0704770479D
:100E000090F83C20012A01D102211FE0B0B501F188
:100E10000805D1E900CE3CCDC96923F47C5322F406
:100E200070521A432EF4F0431A432CF4E0431A4351
:100E300024F4C0431A432A4322F480421143026837
:100E40005164002180F83C10BDE8B040C8B2704742
:100E500090F83C300222012B2FD010B5012380F8EE
:100E60003C3080F83D200268D2F804E0D2F808C097
:100E70000C68B2F1804F2EF0700343EA0403536014
:100E8000BDE810400ED0244B9A421CBF234B9A421F
:100E900008D0234B9A421CBF224B9A4202D0224BCD
:100EA0009A4204D149682CF08003194391600121D2
:100EB000002280F83D1080F83C20D0B2704700BF7F
:100EC00090F83D1001291CBF01207047022180F8D5
:100ED0003D100068C168B0F1804F41F00101C16070
:100EE0000ED00D4988421CBF0C49884208D00C49DD
:100EF00088421CBF0B49884202D00B49884204D16A
:100F0000816801F00701062903D0016841F0010161
:100F100001600020704700BF00040040000800404E
:100F2000000C004000400140000001402DE9F84F56
:100F300004460D46002C4DD094F83D0028B9002001
:100F400084F83C00204600F049F8022044F20702F1
:100F500084F83D002068816891438160211D01F083
:100F6000B5F820688168D0F818A0D0F820C0D5E97D
:100F7000003ED5E902B7D5E90489D5E9062619432B
:100F80002B6A4BEA02224FF6FC4581604FF6FF7157
:100F9000AA432AEA01013943114341EA062141EA01
:100FA000081141EA033181612CF0AA0141EA0E01E6
:100FB00041EA09110162012084F8460084F83E00EC
:100FC00084F83F0084F8420084F8430084F83D0030
:100FD000002000E0012001B0BDE8F08F2DE9F041D4
:100FE00086B0044601A81421FFF7BBF920684F4CD6
:100FF00000F140404FEAB021DE48032900F293801F
:10100000DFE801F0023A5170002601AD4FF002080E
:1010100001270096016941F001010161016901F0B8
:101020000101009100990096016841F00101016001
:10103000016801F00101009100990096016841F0FA
:10104000020101602946006800F00200009000984B
:101050004FF400400190A4F58060CDE9028604962B
:101060000597FFF7A1FA08202946CDE90108CDE947
:1010700003660597204654E000210091026942F082
:1010800002020261026902F002020092009A0091DB
:10109000026842F002020260006800F00200009064
:1010A0000098302015E000210091026942F004020E
:1010B0000261026902F004020092009A0091026843
:1010C00042F002020260006800F002000090009806
:1010D000C02001900220029003910491059001A983
:1010E00020461EE000210091026942F008020261E0
:1010F000026902F008020092009A0091026842F030
:1011000001020260006800F00100009000980320D6
:1011100001900220CDE90201CDE90410A4F5806020
:1011200001A9FFF741FA06B0BDE8F08100040240D2
:1011300010B590F83E4090F83F3090F842E090F8BB
:1011400043C0012204290BD0A9B9012C08BFBEF16C
:10115000010F41D1022180F83E1080F842102CE0AE
:10116000012B08BFBCF1010F36D1022180F83F10DE
:1011700080F843101DE0012C08BF012B2CD1BEF1DB
:10118000010F08BFBCF1010F26D10222002980F80F
:101190003E2080F83F2080F8422080F843200CD089
:1011A00001680A6A22F001020A620A6A42F0010238
:1011B0000A6210216FF0100202E001216FF00102BB
:1011C0000068036A1A400262026A11430022016247
:1011D000016841F001010160104610BD7047B0B5D3
:1011E00004462068C168026901EA0205A90714D50E
:1011F0006FF00201016101212177806910F0030F76
:1012000003D02046FFF7EAFF05E0204600F0B4F8DF
:10121000204600F05BF900202077680715D520688C
:101220006FF00401016102212177806910F4407F91
:1012300003D02046FFF7D2FF05E0204600F09CF8DF
:10124000204600F043F900202077280715D52068B4
:101250006FF00801016104212177C06910F0030FCC
:1012600003D02046FFF7BAFF05E0204600F084F8DF
:10127000204600F02BF900202077E80615D52068DD
:101280006FF01001016108212177C06910F4407FDF
:1012900003D02046FFF7A2FF05E0204600F06CF8DF
:1012A000204600F013F900202077E80706D02068D8
:1012B0006FF001010161204600F068F9280606D5AB
:1012C00020686FF0800101612046FFF797FD6806F6
:1012D00006D520686FF040010161204600F040FA19
:1012E000A80658BFB0BD20686FF0200101612046FC
:1012F000BDE8B040FFF783BD10B586B0044601A835
:101300001421FFF72EF8226819481A499C4B9A427B
:1013100016D09C4B9A4229D1002200920B6843F0D0
:1013200001030B60096801F00101009100994FF47D
:10133000106101910221CDE902120492012111E014
:10134000002200920B6843F001030B60096801F072
:101350000101009100990C2101910221CDE90212B5
:1013600003210492059101A9FFF71EF906B010BDF3
:10137000000002403038024070470000B0B504461B
:101380000D4694F83C00012801D1022041E04FEACB
:10139000B2010120032984F83C0037D8DFE801F0CE
:1013A000020A12222068294600F0E4FE206850F864
:1013B000181F0EE02068294600F008FF206850F84A
:1013C000181F16E02068294600F030FF206850F80A
:1013D0001C1F41F008010160016821F00401016057
:1013E00029690FE02068294600F050FF206850F876
:1013F0001C1F41F400610160016821F480610160FB
:10140000296909020268114301600020002184F863
:101410003C10C0B2B0BD10B5044634B394F83D00E2
:1014200028B9002084F83C00204600F021F8022072
:10143000211D84F83D00206800F048FE012084F85A
:10144000460084F83E0084F83F0084F8400084F8A9
:10145000410084F8420084F8430084F8440084F892
:10146000450084F83D00002010BD012010BD0000A3
:10147000E0B501681448424A914218D0414A91426D
:1014800018BF8CBD002100220191016841F00101CB
:1014900001600021006800F001000190019819200E
:1014A000FFF7C4F91920BDE88C40FFF7B1B900215E
:1014B0000091016841F480310160006800F48030DF
:1014C000009000988CBD00BF443802407047000077
:1014D00039B10322082908BF0222042908BF0122CA
:1014E00000E00022024492F83E20012A1CBF0120A5
:1014F0007047022241B1082909D0042914BF80F89D
:10150000412080F83F2004E080F83E2001E080F890
:101510004020006801F01F01012202FA01F1026A75
:10152000B0F1804F22EA01020262026A41EA02013E
:10153000016213D00F4988421CBF0F4988420DD069
:101540000E4988421CBF0E49884207D00D49884287
:1015500009D10D490A6842F400420A60816801F02D
:101560000701062903D0016841F001010160002054
:10157000704700BF0004004000080040000C00401D
:101580000040014000000140440001406B49884296
:1015900040F0B880F8B56A4C2068013064282060BB
:1015A00006D368484FF40051FFF7C6F800202060CA
:1015B0006548674A654C6749674D0027D0F800E0E9
:1015C000DEF824C01268A4F800C0536A096863807A
:1015D000486A2D68A08040426E6AE680CEF824708A
:1015E00057624F62CCF100016F624FF44362218178
:1015F0006381A08118B2E68100FA81F101EBD1711B
:1016000049082182A16991FBF2F1002200EE101A33
:10161000B8EEC00A84ED050A94ED070ABDEEC00AD3
:1016200010EE101A00F07CFA00EE100A0022B8EE5C
:10163000C00A84ED090A94ED080AB4F90E00BDEE63
:10164000C00A10EE101A00F06BFA00EE100A40F219
:10165000E731B8EEC00A4148BDEEC00A94ED091A60
:1016600010EE102A8242D8BF0246BDEEC10A8A425D
:1016700010EE103AA8BF0A468342D8BF034601EED7
:10168000102A8B42A8BF0B4600EE103AB8EEC00AF3
:10169000B8EEC11A84ED090A84ED0A1A94ED0B0A1A
:1016A000BDEEC00A10EE102A8242D8BF02468A421E
:1016B000A8BF0A4600EE102AB8EEC00A84ED0B0A55
:1016C00094ED0C1ABDEEC11A11EE102A8242C8BF69
:1016D00010468842A8BF084601EE100AB8EEC11AAB
:1016E000BDEEC00A10EE100A84ED0C1A00F046FCA4
:1016F00094ED0C0ABDEEC00A10EE100A00F064FC76
:10170000BDE8F840114890ED070A90ED081A90EDF9
:10171000092A90ED0A3ABDEEC00ABDEEC22ABDEE1E
:10172000C11ABDEEC33A10EE100A12EE101A11EEF5
:10173000102A13EE103AFEF779BE00BF3C010020DC
:1017400034010020000802408401002060000020D5
:10175000CC010020140200205C02002019FCFFFFD5
:101760007047704770470000F8B50446206801686C
:10177000C268456901F02F0602F02003202E05D132
:1017800023B12046BDE8F84000F0D2BD5FEA017CFD
:1017900008D005F0010E12F4907F8EF0010557D1AC
:1017A000002D55D01140CA06226B3BD5012A39D1F4
:1017B0000021009101680091416800910099416900
:1017C00011F0400F40F0A580A18DE28DE38D002B3C
:1017D00000F01981891A89B209B914E1206850E82A
:1017E000030F226820F4907042E80303002BF5D128
:1017F000206850E8050F226820F0010042E8050348
:10180000002BF5D1202084F84200002020632068BE
:1018100050E8030F226820F0100042E80303002B79
:10182000F5D1D5E00A0640F1BA8094F8411021299B
:1018300040F0E980A168B1F5805F04BF216900290B
:1018400000F0D380216A4A1C226209784160D3E00B
:10185000CE0706D012F480761EBF666C46F00106F5
:10186000666401F00407012686EA97072F4302BF4A
:10187000676C47F00207676401F0020786EA5706C3
:10188000354302BF656C45F00405656453EA0E03F9
:1018900018BF0123BCF1000F05D5012B02BF636CFB
:1018A00043F008036364636C002B00F0AC801140CC
:1018B000890603D5204600F03BFD20684069616C35
:1018C00000F0400001F00801084300F08880204645
:1018D00000F007FD2068416911F0400F01D16CE074
:1018E000206850E8050F216820F0400041E805021B
:1018F000002AF5D1E06B00285FD048490165FEF76A
:1019000036FE002800F07F80E06B016DBDE8F840F6
:101910000847E36B19684D68A28DA9B2002951D020
:1019200091424FD2E585D969B1F5807F01D130E090
:10193000206850E8030F216820F4807041E803021A
:10194000002AF5D1206850E8050F216820F0010039
:1019500041E80502002AF5D1206850E8050F21680A
:1019600020F0400041E80502002AF5D1202084F84B
:10197000420000202063206850E8030F216820F017
:10198000100041E80302002AF5D1E06BFEF7ADFD3F
:10199000A28D02206063E08D101A81B21AE0490620
:1019A00031D5C16821F04001C160202084F8410098
:1019B0002046BDE8F84000F0B0B82046BDE8F84049
:1019C000FFF7D0BE8A4204BFD869B0F5807F1AD134
:1019D000022060632046BDE8F840FFF7C2BE204603
:1019E000FFF7C0FE00206064F8BD216A31F8022BC9
:1019F0006FF35F2242602162E18C4FF6FF72013982
:101A00001142E18400D0F8BDC16821F08001C160BD
:101A1000C16841F04001C160F8BD00BFD922000893
:101A200010B504464CB394F8410028B9002084F85E
:101A30004000204600F024F8242084F8410020686B
:101A4000C16821F40051C160204600F0D7FC206835
:101A5000016921F490410161416921F02A0141614C
:101A6000C16841F40051C16000202021606484F805
:101A7000411084F84210606310BD012010BD0000C9
:101A800010B586B0044601A81421FEF76AFC21684F
:101A9000184881422CD1002100F570400091844A01
:101AA000536943F010035361536903F0100300932B
:101AB000009B0091136843F001031360126802F069
:101AC00001020092009A4FF4C06201920222CDE915
:101AD0000221032104910721059101A9FEF764FD6C
:101AE000252000210022FEF7A1FE2520FEF790FE12
:101AF00006B010BD0010014010B590F84230202B08
:101B000007D1012431B12AB10024046300F0DCFCC8
:101B100000E00224E0B210BD70477047FEE700000D
:101B2000012A07D11D49002008601B49C1E90200B4
:101B300008617047081A1849B8EE006A00EE100AEA
:101B40001648B8EEC00AF0EE401A81ED020A91ED97
:101B5000031A91ED0F4A91ED042A91ED0E3A91EDA1
:101B6000105AD0ED000A41EE061A81ED041A30EE4B
:101B7000417A24EE004A03EE074A31EE822A05EE4E
:101B8000024A30EE842A80ED002ABDEEC21A81EDB1
:101B9000030A11EE100A70471000002038010020DF
:101BA0000249012248600131FFF7A6BF2001002051
:101BB0002DE9F04786B000253F4F00224FF4005A30
:101BC000059500953A48016841F0040101600168FB
:101BD00001F00401009100990095016841F0800135
:101BE0000160016801F08001009100990095016891
:101BF00041F001010160016801F0010100910099CB
:101C00000095016841F0020101604FF40051006845
:101C100000F0020000900098264C04F50068404651
:101C2000B847204650210022B8472046A021012273
:101C30004FF00109B84704F580664FF4A041002237
:101C40003046B84730464FF420410122B847CDE92D
:101C500001A9DFF868A001AF4046CDE90355394638
:101C6000D047F0203946CDE901092046CDE903559A
:101C7000D0474FF470403946CDE901093046CDE9EF
:101C80000355D0474FF48050394601904FF48810E7
:101C9000CDE902092046D047282000210022FEF786
:101CA000C5FD2820FEF7B4FD06B0BDE8F08700BFF3
:101CB000303802400000024049070008A90500082A
:101CC000B0B592B009AC00251C212046CDE91055D5
:101CD000FEF747FB01A82021FEF743FBB948224944
:101CE00040F2473240F2E73380E82600C0E903358E
:101CF000C0E90555FFF78FFB08B1FEF7F4FBF2488A
:101D000010A9CDE91055FFF7A3F808B1FEF7EBFBDA
:101D1000602018210990201DFEF723FBEA48214688
:101D20000022FFF72BFB08B1FEF7DDFBE64809A90F
:101D30000C22FFF723FB08B1FEF7D5FB01AC142101
:101D40002046FEF70EFB4FF400502146069000207F
:101D50000890DD48FFF754F808B1FEF7C4FBDA48F5
:101D6000FFF7CAFA12B0B0BD0000014010B58CB048
:101D7000144800244FF080414FF0FF32CDE9004479
:101D8000C0E900140321C0E9024204618461CDE985
:101D900003140121CDE90514CDE90744CDE9091467
:101DA00003A90B94FFF7C2F808B1FEF79CFB0548A6
:101DB0006946CDE90044FFF74BF808B1FEF793FB05
:101DC0000CB010BD8401002010B58CB00024144864
:101DD0004FF6FF72CDE90044E049C0E90014032149
:101DE000C0E9024204618461CDE903140121CDE917
:101DF0000514CDE90744CDE9091403A90B94FFF7B5
:101E000095F808B1FEF76FFB05486946CDE9004437
:101E1000FFF71EF808B1FEF766FB0CB010BD00BF5F
:101E2000CC01002010B58CB0002414484FF6FF728E
:101E3000CDE90044CA49C0E900140321C0E90242C7
:101E400004618461CDE903140121CDE90514CDE9D4
:101E50000744CDE9091403A90B94FFF767F808B10B
:101E6000FEF741FB05486946CDE90044FEF7F0FF67
:101E700008B1FEF738FB0CB010BD00BF1402002003
:101E800010B58CB0002414484FF0FF32CDE9004467
:101E9000B449C0E900140321C0E90242046184612D
:101EA000CDE903140121CDE90514CDE90744CDE9BD
:101EB000091403A90B94FFF739F808B1FEF713FBD7
:101EC00005486946CDE90044FEF7C2FF08B1FEF7B8
:101ED0000AFB0CB010BD00BF5C02002010B588B03A
:101EE00001A81C21FEF73DFA47489F4940F24732BE
:101EF000002440F2E73380E81600C0E9033484612F
:101F0000FFF789FA08B1FEF7EEFA602001A9002276
:101F1000CDE901043C4803940594FFF72FFA08B17A
:101F2000FEF7E1FA384801A90422FFF727FA08B1C1
:101F3000FEF7D9FA3448FFF7DFF908B010BD00BF4B
:101F400080B50B480B494FF4E13200234FF00C0CE5
:101F500080E80E00C0E90333C0E905C3C361FFF7A1
:101F60005FFD18B1BDE88040FEF7BDBA80BD00BF7F
:101F7000EC02002000100140FEE70000B0B5104D5B
:101F80000446002C28460BDB4FF400510122FEF7DB
:101F9000DBFB28464FF480510022FEF7D5FB0BE017
:101FA0004FF480510022FEF7CFFB28464FF400513A
:101FB0000122FEF7C9FB6442434800680464B0BDD7
:101FC000000402403C010020B0B50E4D0446402103
:101FD000002C284608DB0122FEF7B6FB28468021AC
:101FE0000022FEF7B1FB08E00022FEF7ADFB284619
:101FF00080210122FEF7A8FB644203480068846345
:10200000B0BD00BF00000240A4020020FEE7704700
:102010007047FEF7A3BB000070B592B006AC142168
:10202000201DFEF79EF901A81421FEF79AF900255C
:10203000022600951C48016841F08051016000684B
:1020400000F080500090009800951848016866F3F1
:102050008F310160006800F44040009000980696BF
:102060000120099010200A900820CDE90C650E90FF
:102070005420CDE90F06042011902046FEF7F0FC15
:1020800008B172B6FEE70F200221CDE901064FF438
:1020900080500395CDE9040501A8FEF703FC08B1C3
:1020A00072B6FEE712B070BD4038024000700040CA
:1020B0000248016841F470010160704788ED00E05A
:1020C0000148FFF78CB800BF3C010020B0B5B0F16B
:1020D000804F03687F4D1CBF204CA04208D0204C8D
:1020E000A0421CBF7B4CA04202D01E4CA04203D198
:1020F0004C6823F070032343B0F1804F14D0174C89
:10210000A0421CBF164CA0420ED0164CA0421CBFD1
:10211000704CA04208D0144CA0421CBF134CA042EB
:1021200002D0134CA04203D1CC6823F44073234364
:102130008C684A69A84223F08003C46243EA020320
:102140000C68846204BF09692963016841F00401D5
:102150000160012141610360B0BD00BF0004004087
:1021600000080040000C00400040014000480140D1
:102170000044014070B5D0F820C0026A22F001028C
:1021800002622CF00202D0F804E085698C680B68CA
:10219000144325F0730242EA030C4E4A90420DD1DB
:1021A000CE68D1E905352EF440721A4326F00403B7
:1021B00042EA050E24F00C0243EA0204C0F804E0EF
:1021C000C0F818C049684163046270BD70B5D0F8AA
:1021D00020C0036A23F010032CF020020362D0F821
:1021E00004E083698C680D6842EA041423F4E64233
:1021F00042EA052C374A904210D1CE68D1E9053524
:102200002EF4406242EA830224F0C00342EA850EC3
:102210006FF04F0202EA061242EA0304C0F804E03B
:10222000C0F818C049688163046270BD70B5D0F809
:1022300020C0036A23F480732CF400720362D0F888
:1022400004E0C3698C680D6842EA042423F0730239
:1022500042EA050C1F4A904210D1CE68D1E90535FB
:102260002EF4405242EA031240F2FF4342EA051EB6
:1022700032029A4324F4406342EA0304C0F804E0C3
:10228000C0F81CC04968C163046270BDB0B5D0F825
:1022900020C0036A23F4805303622CF40053D0F867
:1022A00004E0C5698A680C6843EA023C094B25F4DE
:1022B000E64242EA0422984202BF4B692EF480456E
:1022C00045EA831EC0F804E0C26149680164C0F8B1
:1022D00020C0B0BD00000140806B0021C185FFF728
:1022E00041BA016851E8031F026821F4907142E885
:1022F0000313002BF5D1016851E8051F026821F096
:10230000010142E80513002BF5D1016B012909D128
:10231000016851E8031F026821F0100142E803132D
:10232000002BF5D1202180F8421000210163704775
:1023300090F84210222918BF70478368B3F5805F78
:1023400006D1026900F12801A2B1D1F800C008E06D
:102350000146002B51F828CF01D103690BB17F232F
:1023600000E0FF23026852681A4001238CF8002025
:102370000A6806E00368826A5B686FF35F23138074
:1023800002231A440A604FF6FF72C18D01391142CF
:10239000C18500D070470168CA6822F02002CA6077
:1023A000CA6822F48072CA604A6922F001024A6156
:1023B000202280F8422000224263036B012B18BFC9
:1023C000FFF7AABB026351E8031F026821F0100166
:1023D00042E803130168002BF5D10A6812F0100FD0
:1023E00008D081B0002200920A68009249680091EA
:1023F000009901B0818DFFF7B4B90000B0B5044673
:1024000049F20C6520680169E26821F440511143EA
:102410000161D4F808C0D4E90423D4F81CE0C168F1
:1024200042EA0C02A9431A4342EA0E021143C16078
:102430004169A26921F440711143416140F4806017
:102440002049884202D1FEF7CDFA01E0FEF7C0FA3A
:10245000E26963681921A0FB0101B2F5004F16D1B2
:102460005A00DB0FFDF706FF64216FF06303B0FB3A
:10247000F1F202FB0300322303EBC000B0FBF1F1E9
:102480004FF4F87000EA410001F0070113E09A00F0
:102490009B0FFDF7EFFE64216FF06303B0FBF1F2D9
:1024A00002FB0300322303EB0010B0FBF1F101F05B
:1024B000F00001F00F0100EB021008432168886072
:1024C000B0BD00BF00140140816200218285C28539
:1024D0004164222180F842100168006918B1C8687F
:1024E00040F48070C860486940F001004861C868E5
:1024F00040F02000C8600020704700002B48FFF724
:1025000033B900BFFEE700002DE9F84FFEF72CF9C4
:10251000DFF898804046FFF743FBFFF77DFDFFF7AC
:1025200047FBFFF7CDFBFFF721FCFFF74DFCFFF763
:1025300079FCFFF7A5FCFFF7D1FCFFF701FDDFF801
:1025400070901C4D3C214846A847DFF86CA03C2108
:102550005046A847DFF864B03C215846A847184CBD
:102560003C212046A847174D174F00212846B84761
:1025700028460C21B847154E00213046B847304652
:102580000421B847124F3046B8474846B84750462E
:10259000B8475846B8472046B8472846B847D8F8FD
:1025A0000000C16841F02001C160FEE7EC0200209C
:1025B0008401002031110008CC0100201402002009
:1025C0005C0200203C010020D1140008A40200207D
:1025D000C10E00084FF04070E1EE100A7047000095
:1025E00000000000000001020304060708090000C3
:1025F0000000010203040000202600080000002063
:10260000C0000000D0010008E0260008C000002043
:1026100078080000EC010008000000000000000045
:102620000100000010000000000000000000000099
:10263000000000000000000000000000000000009A
:10264000000000000000000000000000000000008A
:102650000000000000000000000000008FC2F53CF8
:1026600000000000000000000000B04031084040C1
:10267000CDCCCC3E0000A041CDCCCC3D00002042D2
:10268000000000000000000000000000000000004A
:102690000000000000000000000000000000FA43FD
:1026A0000000FA43000000000000000000000000ED
:1026B00000000000AAFFF100000000000000000080
:1026C000000000000000000000000000000000000A
:1026D000000000000024F4000000000000000000E2
:040000050800019559
:00000001FF
