:020000040800F2
:10000000D009002061020008A1200008171B000889
:100010009D1F0008570400081D280008000000006C
:100020000000000000000000000000006323000842
:10003000D1040008000000006123000865230008C7
:100040007B0200087B0200087B0200087B0200089C
:100050007B0200087B0200087B0200087B0200088C
:100060007B0200087B0200087B0200087B0200087C
:100070007B0200087B0200087B0200087B0200086C
:100080007B0200087B0200087B02000800000000E1
:100090000000000000000000000000007B020008DB
:1000A0007B020008112400087B0200087B02000884
:1000B0007B0200087B0200087B0200087B0200082C
:1000C0007B0200087B0200087B0200087B0200081C
:1000D0007B020008152800087B02000800000000D1
:1000E000D30400087B0200087B0200080000000027
:1000F0000000000000000000000000007B0200087B
:10010000000000007B0200087B0200087B02000860
:1001100000000000000000000000000000000000DF
:100120007B0200087B0200087B0200087B020008BB
:100130007B0200080000000000000000000000003A
:100140000000000000000000000000007B0200082A
:100150007B0200087B0200087B0200087B0200088B
:100160007B0200087B020008000000000000000085
:10017000000000000000000000000000000000007F
:10018000000000007B0200080000000000000000EA
:100190007B02000800F002F800F052F814A696E87E
:1001A000000CB244B344DA4501D100F049F8BAE892
:1001B0000F000FA696E83000A5EB040504EB060738
:1001C000AAEB0704A7F101074FEA15154FEA34140B
:1001D000A4F10104AC4201D300F032F813F0010F96
:1001E00018BFFB1A43F0010300F001F8DBE71847E2
:1001F0003027000050270000103A24BF78C878C18B
:10020000FAD8520724BF30C830C144BF04680C601C
:1002100070470000704700000023002400250026DE
:10022000103A28BF78C1FBD8520728BF30C148BF59
:100230000B6070471FB502F059FB1FBD10B510BD14
:1002400000F0D0F81146FFF7F5FF02F0E9FA00F0F0
:10025000EEF803B4FFF7F2FF03BC00F0F5F800007E
:100260000948804709480047FEE7FEE7FEE7FEE74A
:10027000FEE7FEE7FEE7FEE7FEE7FEE70448054986
:10028000054A064B7047000001240008950100084C
:10029000D0030020D0090020D0050020D005002088
:1002A00053EA020C00F069802DE9F04B4FF0000694
:1002B000002B1FBFB3FA83F503FA05F424FA05F601
:1002C0005E4012BF1643B2FA82F502FA05F4C5F198
:1002D00020051EBF22FA05FC44EA0C04203556EA2C
:1002E000044C4FEA144418BF641C4FF000084FF050
:1002F0000009904271EB030C39D3002919BFB1FA00
:1003000081F701FA07F6B0FA80F700FA07F6C7F1AD
:1003100020071EBF20FA07FC46EA0C062037B6FB72
:10032000F4FCA7EB0507103F07F01F0BCBF12006ED
:100330002CFA06F60CFA0BFB44BFB3460026202F1E
:10034000A4BF5E464FF0000B5BEA060C08BF4FF0FF
:10035000010B19EB0B0948EB0608ABFB027C06FB13
:1003600002CC0BFB03CCC01B71EB0C01C1E70B46AD
:10037000024641464846BDE8F08B13B5084318BF16
:100380004FF0FF300146AFF30080BDE81C407047DE
:100390004FF0000200B5134694469646203922BF1E
:1003A000A0E80C50A0E80C50B1F12001BFF4F7AF69
:1003B000090728BFA0E80C5048BF0CC05DF804EB4B
:1003C000890028BF40F8042B08BF704748BF20F8B9
:1003D000022B11F0804F18BF00F8012B70477047B7
:1003E00070477047754600F02BF8AE460500694629
:1003F000534620F00700854618B020B5FFF73EFFB2
:10040000BDE820404FF000064FF000074FF0000815
:100410004FF0000BAC46ACE8C009ACE8C009ACE852
:10042000C009ACE8C00921F007018D46704710B53E
:100430000446AFF300802046BDE81040FFF709BF37
:10044000004870475800002001491820ABBEFEE765
:10045000260002007047FEE7B0B51B4C1025E57082
:100460001D0E2374227321722071E5741D0C1B0A6A
:100470006374130EA574E373130C120A62730A0EED
:10048000A373E2720A0C090A6172010EA2720022C1
:10049000E171010C000AA171607100200021142893
:1004A00004D0235C013019440A44F8E72175074958
:1004B00000206275162808BFB0BD0A685206FCD538
:1004C000225C01304A60F5E72C000020001001405A
:1004D00070474FF4805000F053B872B6FEE770B525
:1004E000866D044600F030F9054694F83500022880
:1004F00021D12068216C026822F016020260426954
:1005000022F08002426109B9A16C19B1016821F0A1
:100510000801016001F0A9FE20680068C0070ED044
:1005200000F012F9401B0628F6D320206065032056
:1005300084F835000CE080206065012008E0E06D63
:100540003F2101FA00F0B060012084F8350000205E
:10055000002184F8341070BD90F83510022909D1BB
:10056000052180F835100068724601F07EFE96463F
:1005700000207047802141650120704770470000CE
:1005800003490A68024208BF70470860FFF7F6BFD8
:10059000143C01402DE9FE4F5E4A07244FF0010B49
:1005A0004FF0000C90425C4A08BF042402444FEA1A
:1005B000B223042B38BF4FEAB22400F12002019489
:1005C000009200250022102A08BFBDE8FE8F0C68AB
:1005D0000BFA02FA14EA0A0900F09780D1F804E055
:1005E000032303FA0CF40EF00308E643A8F1010418
:1005F000012C12D88468D1F80CB00BFA0CF73440F7
:100600004FF0010B3C438460CEF3001447689440E4
:1006100027EA0A073C43446005E0B8F1030F02D122
:100620004FF0030823E0C4688F68344007FA0CF7E2
:100630003C43B8F1020FC46019D105F01C040F232C
:10064000A84603FA04F76FF0030303EA520E009B77
:100650001D4653F80E30BB430F6907FA04F42343D9
:1006600045F80E304546D1F804E00EF00308046862
:1006700008FA0CF3344023431EF4403F036044D097
:100680000023284C254EA8460293236843F4804358
:10069000236023680F2403F48043029305F00C03C6
:1006A00022F00305029F35449C401F4FBE46EF5980
:1006B00027EA0404019F07FA03F3234345F80E30A9
:1006C000B3684D6843EA0904EF0258BF23EA0904FE
:1006D000134BB460AF029E461B6843EA090458BF3F
:1006E00023EA0904CEF80040AF03736843EA090423
:1006F00058BF23EA09047460ED033368454643EAB2
:10070000090458BF23EA090434600CF1020C0435D3
:10071000013258E7001002400000FEBF003C0140DB
:100720000C3C01404438024008FCFFFF426902EAE9
:100730000103914341EA034181617047002A08BFE8
:1007400009048161704700006A480068704700BF73
:1007500030B3F8B5044690F83D0020B901F0D6FD5D
:10076000204600F087F8242084F83D00206801F03E
:100770008BFD016841F400410160016821F40041F2
:10078000016000F0DFF96368364A374993423CBFA5
:1007900048F28041C0F21E01884203D20120F8BD18
:1007A0000120704731494FF47A77B0FBF1F52168A9
:1007B0004E6826F03F062E434E604FF496766E4309
:1007C000934228BFB6FBF7F56A1C0D6A25F03F057A
:1007D0002A434CF6FF750A62CA69AA43244DAB420C
:1007E00007D85B00013801F0A0FD042898BF042061
:1007F00013E0A56801383DB119256B4301F095FD63
:1008000050B100F5804004E003EB430301F08DFD9F
:1008100010B100F5004000E00120104304F10C0687
:10082000C861E0690A6822F0C0021043226A1043DE
:1008300048F2FF320860886890436CCE184310433A
:100840008860C86820F0FF0028433043C86001F08A
:1008500077FD00202021206484F83D10206384F877
:100860003E00F8BDA186010000093D0040420F0096
:10087000A0860100B0B586B0044601A81421FFF798
:1008800087FD21681548814225D10025144C00F5CB
:10089000D8300095216841F002012160216801F003
:1008A000020100910421059103210491012103918A
:1008B000122102914FF440710191009901A9FFF7B3
:1008C00069FE0095206940F400102061206900F461
:1008D00000100090009806B0B0BD00BF005400406A
:1008E000303802401F48034900780A681044086005
:1008F000704700BFC803002080B50B48016841F471
:1009000000710160016841F480610160016841F497
:1009100080710160032000F079F80F2000F006F8E4
:1009200000F022F8002080BD003C024070B50D4E62
:1009300004464FF47A713078B1FBF0F08B490968C6
:10094000B1FBF0F000F0DEFA01250F2C08D838B921
:100950004FF0FF3021460022002500F031F874608E
:10096000284670BD0000002082B000200B49019095
:100970004A6842F480424A604A6802F48042019226
:10098000019A0090086840F080500860086800F004
:1009900080500090009802B0704700BF403802407D
:1009A000002809D41C21012201EAD00100F01F0017
:1009B00002FA00F0014A8850704700BF00E100E0F1
:1009C000F0B5184B4FF0FF361C68C4F30224E51E47
:1009D00084F0070438BF002506FA05F7BA43042C53
:1009E00028BF042406FA04F4A14300F00F04A94030
:1009F000043C1143044A234409010244002848BF2F
:100A000003F10C021170F0BD00E400E005494FF65F
:100A1000FF030A681A4060F30A2203481043086083
:100A2000704700BF0CED00E00000FA05002853D02D
:100A30002DE9F041404B0446884601F04BFB8142D2
:100A400005D983F8008401F045FB40454DD120686D
:100A5000810711D5410703D5996841F4E0519960A8
:100A6000010703D5996841F460419960A1689A68CB
:100A700022F0F00211439960C0072FD101F02AFB48
:100A8000804505D283F8008401F024FB40452CD139
:100A90002068410705D5E1689A6822F4E0521143C5
:100AA0009960000706D52069996821F4604141EA00
:100AB000C00098601C4600F05FF8A1681F4AC1F3AF
:100AC0000311515CC840294908601D480068FFF7C0
:100AD0002DFF0020BDE8F081012070476068811E75
:100AE000022905D21968890107D40120BDE8F081E7
:100AF00001281DD119688903F7D599681D4621F091
:100B0000030108439860FFF71FFE064641F288374D
:100B10006068A9682B4601F00C01B1EB800FADD0E5
:100B2000FFF712FE801BB842F2D90320BDE8F08126
:100B300019688907D9D5E0E700380240062900087E
:100B40000400002009480A490A4A00680968C1F3FC
:100B50008221515CC840704704480549054A006835
:100B60000968C1F34231515CC84070475000002011
:100B7000083802401629000810B5144C6068C0F30C
:100B800081011348DFE801F00203050210BD11489E
:100B900010BD226820680023400202F03F020D4889
:100BA0005CBF42F20040C0F2F4002168C1F388113A
:100BB000A0FB0101FFF774FB21680222C1F3014190
:100BC00002EB4101B0FBF1F010BD00BF0438024060
:100BD0000024F40040787D01002864D02DE9FC4118
:100BE00004460078C44EC0070CD0B06800F00C007A
:100BF000042840F090803068800303D560680028A6
:100C000000F0A1802078800719D5B06810F00C0F93
:100C100007D001F0F2FA40F099807068400200F1CC
:100C200095803068800703D5E068012840F08B800C
:100C30002069316821F0F80141EAC0003060207875
:100C4000000732D42078400742D4A76947B301F0A7
:100C5000D4FA40F0AD80012F75D0E169706800F4DE
:100C600080028A426FD1216A00F03F028A426AD133
:100C700047F6C071626A0140B1EB821F63D1A16A7D
:100C80004FF6FF72C903914300F44032A1F5803161
:100C90008A4258D1E16A00F07060B0EB016F52D126
:100CA0000020BDE8FC8101207047606900286ED0FB
:100CB00092480121C0F8801EFFF746FD0546706F7F
:100CC0008007BFD4FFF740FD401B0228F7D9C9E0D9
:100CD000306C5FEAC0080AD400200190306C40F00C
:100CE00080503064306C00F0805001900198844F47
:100CF0003868C0053DD4386840F480703860FFF72C
:100D000023FD05463868C00533D4FFF71DFD401BA1
:100D10000228F7D9A6E001F070FA03D1706840020A
:100D20003FF569AF30686168B1F5803F07D0B1F534
:100D3000A02F40F0828040F480203060306840F482
:100D40008030306082E00120BDE8FC81E1686B48C2
:100D500000294BD001210160FFF7F6FC0546306801
:100D600080073FF565AFFFF7EFFC401B0228F6D97F
:100D700078E0306FA168012905D0052946D140F0FF
:100D800004003067306F40F00100306747E05B4897
:100D90000021C0F8801EFFF7D7FC0546706F800762
:100DA0007FF550AFFFF7D0FC401B0228F6D959E081
:100DB0005249002088460866FFF7C6FC0546022F08
:100DC00009D13068800150D5FFF7BEFC411B0320DC
:100DD0000229F6D965E7306880017FF561AFFFF73A
:100DE000B3FC411B03200229F5D95AE70021016019
:100DF000FFF7AAFC0546306880077FF520AFFFF7B4
:100E0000A3FC411B03200229F5D94AE720F0010089
:100E100000293067306F20F00400306745D0FFF7BD
:100E200093FC054641F28837306F80074CD4FFF7BA
:100E30008BFC401BB842F7D914E020F48030002925
:100E40003060306820F48020306046D0FFF77CFCB2
:100E50000546306880033FF5D5AEFFF775FC401BB3
:100E60006428F6D90320BDE8FC811C341FCC08435C
:100E7000D90340EA82104FF6FF72914340EA0460C2
:100E8000A1F58031084370600120C8F86000FFF7C9
:100E90005BFC0446306880013FF502AFFFF754FC6D
:100EA000011B03200229F5D9FBE6FFF74DFC05469F
:100EB00041F28837306F800706D5FFF745FC411BAC
:100EC0000320B942F6D9ECE6B8F1000F3FF5BDAE0C
:100ED000306C20F080503064B7E6FFF735FC0546F3
:100EE000306880037FF58EAEFFF72EFC411B032098
:100EF0006429F5D9D5E600BF00380240000047421A
:100F000000700040411E0020B0EB116F1CBF01209B
:100F10007047044AF023516003490B700721906029
:100F20001160704710E000E023ED00E0704770476B
:100F3000024690F83C00012804BF02207047F0B53B
:100F400001F10807D1E900C44B690020C969E0CF6D
:100F500082F83C00126826F47C5624F4F04425F410
:100F6000705535432C432CF4E0452C4327F4C04501
:100F70002C43234323F4804319435164F0BD000004
:100F800090F83C300222012B29D010B580F83D208A
:100F900002680B68546824F070041C439368B2F133
:100FA000804F54600ED0254CA2420BD0244CA2425C
:100FB00008D0244CA24205D0234CA24202D0234C9C
:100FC000A24204D1496823F08003194391600022B2
:100FD000012180F83C2080F83D10BDE8104010460B
:100FE000704700BF90F83D1001291CBF01207047D9
:100FF000022180F83D100068C168B0F1804F41F0D7
:101000000101C1600ED00D4988420BD00C498842C5
:1010100008D00C49884205D0EF49884202D0EF49F8
:10102000884204D1724601F011F9964603D0724607
:1010300001F0FCF896460020704700BF0004004015
:1010400000080040000C004000400140000001404A
:10105000002846D0F8B5044690F83D000D4618B972
:1010600001F0FEF800F040F8022044F2070284F894
:101070003D002068816891438160211D01F0CEF917
:101080002668D5E9000CD5E90223B7683843B7696B
:10109000316AB060A86942EA00204FF6FC429043F2
:1010A0004FF6FF7227EA02021A431043EA6940EA48
:1010B00002202A6940EA02102A6A40EA0230B0613E
:1010C00021F0AA00696940EA0C0040EA0110306290
:1010D000012001F097F801F064F884F83D00002049
:1010E000F8BD012070470000F0B587B0044602A8A3
:1010F0001421FFF74DF9206800F140404FEAB0207D
:10110000032800F27B80DFE800F00265364400250A
:10111000B3483B4C012602270195016941F00101CA
:101120000161016901F0010101910199019501F04D
:101130005FF8016801F001010191019901950168D1
:1011400041F002010160006800F002000190019886
:101150000696CDE9045503974FF400400290A4F59C
:10116000806002A9FFF716FA0820CDE90556CDE9FF
:10117000037502903EE00020994901900A6942F00F
:1011800004020A610A6902F0040200F0D0FFC020E4
:101190002DE00020924901900A6942F008020A619C
:1011A0000A6902F008020192019A01900A6842F06D
:1011B00001020A60096801F0010101910221CDE9F3
:1011C0000501CDE903100320029001980C48A0F519
:1011D00080640FE00020824901900A6942F0020217
:1011E0000A610A6902F0020200F0A1FF30200290B9
:1011F000034C019802A92046FFF7CCF907B0F0BDD7
:101200000004024070B501F044F805D061B9012E28
:1012100008BF012B17D070BD012D08BF012AFAD1DC
:10122000022001F05BF80CE0012E08BF012DF2D185
:10123000012BF0D1012AEED100F09DFF06D001F084
:1012400034F8042103E0022000F0BAFF00212068F6
:1012500001F030F8206800F0E9FF002070BD704711
:1012600070B504460068C5680669B10710D5A907BE
:101270000ED56FF00201016101212177806980079D
:1012800002D001F04FF801E001F01EF800202077B5
:10129000700712D5680710D520686FF0040101614E
:1012A00002212177806910F4407F02D001F03AF8E2
:1012B00001E001F009F800202077300711D5280758
:1012C0000FD520686FF00801016104212177C06902
:1012D000800702D001F026F801E000F0F5FF0020C1
:1012E0002077F00612D5E80610D520686FF01001BF
:1012F000016108212177C06910F4407F02D001F01C
:1013000011F801E000F0E0FF00202077F00708D09E
:10131000E80706D020686FF001010161204600F067
:1013200039F9300608D5280606D520686FF0800107
:1013300001612046FFF7FAFD700608D5680606D55C
:1013400020686FF040010161204600F059FAB006B4
:1013500001D5A80600D470BD20686FF0200101619E
:101360002046BDE87040FFF7E2BD000010B586B032
:10137000044601A81421FFF70BF82068844988422D
:1013800010D07F49884224D100200090144800F0FA
:101390002FFF0121006800F00100009000984FF439
:1013A00010600BE0002000900D4800F021FF0321A9
:1013B000006800F00100009000980C2005910021C9
:1013C000CDE903110221CDE90101064801A9FFF78A
:1013D000E1F806B010BD00BF004001400000014030
:1013E000303802400000024070470000B0B500F005
:1013F000A2FF04BF0220B0BD00F08CFF37D8DFE8A9
:1014000001F002220A1A2068294601F065F82068D6
:1014100050F8181F06E02068294601F0AFF8206850
:1014200050F81C1F41F008010160016821F004011F
:101430000160296917E02068294601F0C9F8206891
:1014400050F81C1F06E02068294601F06BF8206860
:1014500050F8181F41F400610160016821F48061B7
:10146000016029690902026811430160002000F04F
:1014700049FFB0BD70B110B500F035FF03D100F0E9
:10148000EFFE00F009F800F018FF012000F027FE41
:1014900000F0D8BE01207047E0B500683C498842A2
:1014A00016D0374988421FD10020002201900F48F2
:1014B00000F09EFE0021006800F0010001900198FC
:1014C0001920FFF77DFA1920BDE88C40FFF768BAB4
:1014D000002000900548016841F4803101600068F7
:1014E00000F48030009000988CBD00BF443802406A
:1014F0007047000010B50446A1B1042904D00829A2
:1015000014BF4120402000E03F20205C012811D181
:101510000220082910D0042914BF84F8410084F85F
:101520003F000BE094F83E00012803D1022084F82C
:101530003E0003E0012010BD84F84000206800F068
:10154000B9FE20680E49884201D100F084FEB0F156
:10155000804F0DD00B4A90420AD00B4A904207D0E0
:101560000A4A904204D00A4A904201D0884202D1ED
:1015700000F06CFE01D000F059FE002010BD00BF4D
:10158000000001400004004000080040000C004042
:1015900000400140F8B59049884240F004818F4CEA
:1015A000606901306428606106D38D484FF40051B2
:1015B000FFF7BCF8002060618A488C4D8C4F4FF0DB
:1015C000000E9FED8D2A9FED8D3A016886484A6A8C
:1015D0000368D3F824C02D686E6A3F68786AC1F842
:1015E00024E05142C3F824E0C5F824E02280A4F8A6
:1015F00002C0A4F80AC0A680A6812181E080E08113
:10160000C7F824E0D4E906010844022190FBF1F078
:101610002062D4E90902024492FBF1F10022E16266
:101620004FF4436190FBF1F000EE100A7148B8EE00
:10163000C00A90ED011A84ED040A90ED000AB8EE9C
:10164000C11AB8EEC00A21EE021A20EE020A81EE9B
:10165000031ABDEEC00A80ED020A0FFA8CF0BDEE4F
:10166000C11AB8EEC10A11EE101A84ED0C1A84EDFD
:101670000D0A84ED0E0A84ED0F0A84ED100A00F0C5
:101680004BFA00EE100AB4F90E000022B8EEC00AC0
:1016900084ED110A94ED0D0ABDEEC00A10EE101A89
:1016A00000F03AFA00EE100AB4F908000022B8EE91
:1016B000C00A84ED120A00F032FD00EE100AB4F9FF
:1016C0000C000022B8EEC00A84ED130A00F027FDDA
:1016D00094ED110A94ED121A94ED132A6FF0620141
:1016E000BDEEC00A10EE103A13F1630FD8BF0B46DF
:1016F0006322632BA8BF134600EE103AB8EEC00A6F
:1017000084ED110ABDEEC10A01EE100A10EE103A86
:10171000B8EEC11A13F1630FD8BF0B46BDEEC11A64
:10172000632BA8BF134600EE103A11EE100AB8EE74
:10173000C00A84ED120ABDEEC20A10EE103A13F18F
:10174000630FD8BF0B46632BA8BF134600EE103AB9
:10175000B8EEC00A10F1630F84ED130AC8BF01464A
:101760006329BDEEC00AA8BF114601EE101A10EEA3
:10177000100AB8EEC11A84ED141A00F011FC94EDB1
:10178000110A00F0F3FC00F02BFC94ED140AB1EE0A
:10179000400A00F0EBFC00F047FC94ED120A00F068
:1017A000E5FC00F05DFC0D4991ED0D0A91ED121A7A
:1017B000B1F9083000F0DAFC91ED110ABDEEC00A73
:1017C00010EE101ABDEEC10A10EE102A01B0BDE8ED
:1017D000F040FEF741BE00BFD001002028010020EC
:1017E000000802401802002060020020A802002029
:1017F000F002002020000020000043450080BB458F
:101800007047704770470000F8B5044600680268EA
:10181000C168466915074FEA82633FD001F49077AB
:1018200006F00106BF193DD0D70705D0CF0503D577
:10183000676C47F001076764570704D51EB1676CF2
:1018400047F002076764920704D51EB1626C42F04C
:1018500004026264002D07D501F02002921903D022
:10186000626C42F008026264626C002A00F0E5805B
:10187000002B05D5890603D5204600F0F1FE20682F
:101880004069616C00F0400001F00801401847D148
:101890002046FFF7B7FF00206064CEE0002B01D5A3
:1018A0008B0653D4236B012B03D1D30601D5CB0672
:1018B00051D4130601D50B0611D4520640F1BD8058
:1018C000490640F1BA80C16821F04001C160202082
:1018D00084F841002046BDE8F84000F01BB994F8B8
:1018E0004110212940F0A980A168B1F5805F03D1A2
:1018F0002169002900F0A280216A4A1C226209782D
:101900004160E18C0139E184090440F09680C168AE
:1019100021F08001C160C16841F04001C160F8BDA3
:1019200000F089FC00F08AFC49D500F0EBFBFCD10B
:10193000E06B002843D045490165FEF70DFE002805
:101940007BD0E06B016DBDE8F84008472046BDE85C
:10195000F84000F085BE00210091016800914168C7
:1019600000910099406940062ED4E08DA18DE28D52
:10197000002A62D0814260D0081A00F034FC21F4C1
:10198000907142E80313002BF7D1216851E8051F3D
:10199000226821F0010142E80513002BF5D1202136
:1019A00084F842100021216300F01DFC21F0100199
:1019B00042E80313002BF7D1022161632EE0204699
:1019C000BDE8F840FFF71EBFE06BA28D01684B68D1
:1019D00099B249B3914227D2E385C069B0F5807FBF
:1019E00017D000F0B8FC20F4807000F0D6FBF8D1DE
:1019F00000F07EFCFCD100F085FBFCD1202084F8B7
:101A000042000020206300F035FCFCD1E06BFEF7C3
:101A100066FD02206063A08DE18D401A81B22046F0
:101A2000BDE8F840FFF7EDBE8A4206D1C069B0F5C7
:101A3000807F02D102206063F1E7F8BD216A31F8AE
:101A4000022B6FF35F22216242605AE715260008DD
:101A500078B110B500F0C3FB08B900F076FC00F0D7
:101A600077FB00F093FB21F02A01416100F0D1FBEC
:101A700010BD01207047000010B586B0044601A8D3
:101A80001421FEF785FC2168184881422CD10021E1
:101A9000A54A00F570400091536943F0100353616B
:101AA000536903F010030093009B0091136843F007
:101AB00001031360126802F00102009207220592EE
:101AC0000322CDE90312022102914FF4C06101917A
:101AD000009901A9FEF75EFD252000210022FEF7F6
:101AE0006FFF2520FEF75CFF06B010BD001001401F
:101AF00010B590F84230202B06D139B132B1002414
:101B0000046300F06DFE02E0022400E001242046A0
:101B100010BD70477047FEE7012A07D19FED1C2AD0
:101B20000020B0EE420AB0EE421A26E0081A00EE9B
:101B3000100A3748B8EEC00A90ED031A90ED042A57
:101B400090ED133A134890ED016A90ED005A30EE93
:101B5000414A90ED027A26EE006A05EE046A31EE03
:101B6000014A30EE444A34EE022A07EE026A33EEAE
:101B7000062ABDEEC23A13EE100A254981ED020A8B
:101B800081ED030A81ED041A81ED132A704700BF2D
:101B90000000000008000020012A07D11C49002095
:101BA0009FED1D0AC1E9020008612CE0184A081ADD
:101BB00004EE100A174892ED060A92ED0F2AB8EECD
:101BC000C44A92ED071A92ED103A90ED006A82ED48
:101BD000054A82ED064A34EE405A22EE042A82ED8E
:101BE000070A30EE000A06EE052A34EE400A30EE0F
:101BF000010A03EE002A92ED140A30EE020ABDEE4D
:101C0000C01A11EE100A024981ED140A704700BF94
:101C1000D40000204C0000200000000002490122F6
:101C200048600131FFF764BFB80000202DE9F04F94
:101C300087B00DF1080814214046FEF7A9FB0024E7
:101C400039483A4F3A4D00224FF4005A0194016846
:101C500007F5006641F004010160016801F004012C
:101C600000F01FFA41F080010160016801F080017D
:101C700000F017FA41F001010160016801F0010173
:101C800000F00FFA41F0020101604FF400510068CA
:101C900000F00200019001983046A84738465021D4
:101CA0000022A8473846A02101224FF00109BB4677
:101CB000A84707F580674FF4A04100223846A8479F
:101CC00038464FF420410122A8471A4D304641467C
:101CD000CDE90444CDE902A9A847F0204146059486
:101CE000CDE9039402905846A8474FF4704041460E
:101CF0000594CDE9039402903846A8474FF4881024
:101D00004146CDF8109003904FF480500290584611
:101D1000A847282000210022FEF752FE2820FEF7C7
:101D20003FFE07B0BDE8F08F3038024000000240AF
:101D30003D0700089505000810B50B480B4B0C4CEF
:101D400000214FF48042C0E90043C0E90211C0E91C
:101D50000421C0E906110162FEF7FAFC18B1BDE8E2
:101D60001040FEF7BABB10BD7C010020A086010028
:101D700000540040B0B592B000251C21CDE91055AB
:101D800009AC2046FEF704FB01A82021FEF700FB6A
:101D9000A448214B632142F2CF02C0E90032C0E9DE
:101DA0000251C0E904558561FFF764FB08B1FEF7F5
:101DB00094FB9C4810A9FFF7E3F808B1FEF78DFBF0
:101DC000602018210990201DFEF7E2FA954821466F
:101DD0000022FFF70BFB08B1FEF77FFB914809A932
:101DE0000C22FFF703FB08B1FEF777FB01AC1421CF
:101DF0002046FEF7CDFA0020214608904FF400500F
:101E000006908848FFF794F808B1FEF766FB85480E
:101E1000FFF7ACFA12B0B0BD0000014080B58CB045
:101E20000B4800214FF0FF324FF0804300F03EF9A5
:101E300003A9FFF70DF908B1FEF74FFB0448694607
:101E4000FFF79EF808B1FEF748FB0CB080BD00BF5D
:101E50001802002080B58CB00A4800214FF6FF72AE
:101E6000094B00F023F903A9FFF7F2F808B1FEF7D8
:101E700034FB04486946FFF783F808B1FEF72DFBF1
:101E80000CB080BD600200200004004080B58CB022
:101E90000A4800214FF6FF72094B00F007F903A929
:101EA000FFF7D6F808B1FEF718FB04486946FFF7BC
:101EB00067F808B1FEF711FB0CB080BDA802002046
:101EC0000008004080B58CB00A4800214FF0FF3276
:101ED000094B00F0EBF803A9FFF7BAF808B1FEF7D9
:101EE000FCFA04486946FFF74BF808B1FEF7F5FA2B
:101EF0000CB080BDF0020020000C004010B588B08E
:101F00006648174B0024632142F2CF02CDE9064414
:101F1000CDE904448461C0E90032C0E902410461B2
:101F2000FFF7A8FA08B1FEF7D8FA60200594CDE9CA
:101F3000024400220190594801A9FFF757FA08B15D
:101F4000FEF7CBFA554801A90422FFF74FFA08B172
:101F5000FEF7C3FA5148FFF709FA08B010BD00BFF9
:101F60000040014010B50B480B4C00210C224FF4EF
:101F7000E133C0E90043C0E90211C0E90412C0E93D
:101F80000611FFF765FD18B1BDE81040FEF7A5BAD0
:101F900010BD00BF8003002000100140FEE70000DC
:101FA000B0B51F4D044600280AD428464FF480419E
:101FB00000F0B2F828464FF4004100F0D4F80AE0EF
:101FC00028464FF4804100F0CEF828464FF40041F7
:101FD00000F0A2F86442134800684463B0BD00BF3B
:101FE000B0B50F4D044600280AD428464FF40051DE
:101FF00000F092F828464FF4805100F0B4F80AE05F
:1020000028464FF4805100F0AEF828464FF40051B6
:1020100000F082F86442034800680464B0BD00BF69
:1020200000040240D0010020B0B51B4D044600283A
:1020300008D42846102100F096F82846202100F008
:102040006BF808E02846202100F08DF82846102182
:1020500000F062F86442114800684463B0BD00BFFC
:10206000B0B50D4D0446002808D42846402100F0A4
:1020700053F82846802100F076F808E028464021F1
:1020800000F071F82846802100F046F864420348C9
:1020900000688463B0BD00BF000002403803002028
:1020A000FEE701910199019401687047CDE90A1199
:1020B000CDE90611CDE90011C0E9021201228161CA
:1020C000C0E900310161CDE90812CDE90412032213
:1020D00003927047D3F8000400F00700704784F8BB
:1020E000460084F83E0084F83F0084F8400084F8FD
:1020F000410084F8420084F8430084F8440084F8E6
:1021000045007047206850E8050F216820F0400026
:1021100041E80502002A70470122FEF70FBB94ED4B
:102120000F0ABDEEC00A10EE101AFFF735BD01927E
:10213000019A01900A6842F002020A60096801F0FF
:10214000020101910221CDE90501CDE9031070479B
:10215000242084F841002068C16821F40051C16046
:10216000204600F0DBBA0022FEF7E8BABDEEC00A56
:1021700010EE100A70470220002984F83E0084F80F
:102180003F0084F8420084F84300704720680169EA
:1021900021F4904101614169704741E80302002A3E
:1021A000704784F8420084F843007047016851E8A2
:1021B000051F026821F0010142E80513002B70475A
:1021C00084F83E0084F842007047016851E8031F1C
:1021D000026821F0100142E80313002B7047044607
:1021E00090F841007047216851E8031F226870474A
:1021F000016841F0010101607047B06800F00C0017
:102200000828704784F8460084F83E0084F83F00B0
:102210007047C16841F40051C16000202021606412
:1022200084F8411084F8421060637047016841F0FF
:10223000010101607047204600F0F1B92068406953
:102240004006704784F83D00002010BD816801F011
:102250000701062970474A6C42F400424A647047FD
:10226000002084F83C0020467047016821F00101FD
:1022700001607047206850E8030F216820F01000CB
:1022800041E80302002A7047016821F00101016062
:10229000704790F83E6090F83F5090F84230044606
:1022A00090F8432001200429704720680021012272
:1022B00000F002B9012200F0FFB80220211D84F8CD
:1022C0003D00206800F0AAB84DF808ED2046FFF761
:1022D0008BF820465DF808EBFFF70AB984F83F0059
:1022E00084F843007047044690F83D00002870478A
:1022F000206850E8050F216820F0010041E8050240
:10230000002A7047002184F83C107047002084F8B0
:102310003C0070470D4601204FEAB201032984F8C2
:102320003C0070472046FEF79ABFB0FBF3F0013047
:102330006FF31F307047044690F83C000128704747
:10234000086840F0010008607047002084F84000F1
:102350002046FFF791BB206850E8030F21687047C3
:1023600070477047FEF7BEBA70B592B006AC302128
:102370002046FEF70DF801A81421FEF709F8002504
:102380001D4802260095016841F0805101600068F7
:1023900000F080500090009800951848016866F39E
:1023A0008F310160006800F4404000900420CDE9C6
:1023B0000C650696CDE9106054200F9008200E9011
:1023C00010200A900120099000982046FEF704FC96
:1023D00008B172B6FEE74FF4805005950221CDE9B1
:1023E00003500F20CDE9010601A8FEF71FFB08B13D
:1023F00072B6FEE712B070BD403802400070004077
:102400000248016841F470010160704788ED00E006
:102410000148FEF725BF00BFD001002070B57C4BFE
:10242000026898421FD000F140444FEAB424032CC4
:1024300003D84C6822F070022243B0F1804F16D0CE
:10244000174CA04213D0174CA04210D0164CA042FB
:102450000DD0164CA0420AD0154CA04207D0154C06
:10246000A04204D007E04C6822F070022243CC68FE
:1024700022F4407222430D688E684C699842C6620D
:10248000856201D109691963016841F004010160A5
:102490000121416122F080012143016070BD00BF34
:1024A0000004004000080040000C004000400140D3
:1024B000004801400044014010B501F01F01012314
:1024C000046A8B4002FA01F124EA03030362026A00
:1024D0001143016210BD0000F0B5036A026A4C4E60
:1024E00022F0010223F0020302628C680A68456848
:1024F00023438469B0420CD1D1E9057625F44075B7
:10250000D1F80CC023F00C033D4335432CF00406F6
:10251000334324F073044560224382614968416378
:102520000362F0BDF0B5036A026A394E22F0100270
:1025300023F02003B04202628C680A68456843EACF
:10254000041384690FD1D1E9057625F44065D1F8EB
:102550000CC023F0C0033E4345EA86056FF04006F9
:1025600006EA0C16334324F4E644456044EA0222AA
:102570008261496881630362F0BD00BFF0B5036A00
:10258000026A234E22F4807223F40073B042026286
:102590008C680A68456843EA0423C4690ED1CE6892
:1025A00025F4405CD1E9057523F440633D433602D0
:1025B00040F2FF47BE434CEA0515334324F0730451
:1025C00045602243C2614968C1630362F0BD00BF38
:1025D000F0B5026A036A0E4F23F48053B8420362D7
:1025E00045680C688B68C66904D14F6925F480453D
:1025F00045EA8715456026F4E64545EA0424C461AA
:102600004968016422F4005141EA03310162F0BDDE
:1026100000000140806B0021C185FFF7F3B801681D
:1026200051E8031F026821F4907142E80313002B64
:10263000F5D14DF808EDFFF7B9FD5DF808EBF8D1DD
:10264000016B012906D14DF808EDFFF7BEFD5DF8DD
:1026500008EBF8D1202180F8421000210163704777
:1026600090F84210222920D183680246B3F5805F9A
:1026700008D152F8281F52F8183C002B45D00368A7
:102680005B6809E052F8281F13B90369002BF6D0E4
:1026900003685B6803F07F030B7011680131116000
:1026A000C18D0139C185090400D070470168CA682D
:1026B00022F02002CA60CA6822F48072CA604A69A5
:1026C00022F001024A61202180F84210002141637A
:1026D000026B012A18BFFFF71CBA81B001634DF8E5
:1026E00008EDFFF772FD5DF808EBF8D101680A68A4
:1026F000D20606D5002200920A680092496800912D
:102700000099818D01B0FFF77CB8026852686FF3C1
:102710005F2221F8022B8162C2E70000B0B50446B7
:10272000006804F108030ECB056925F440551943F0
:102730002A4349F20C650261C26863691943E3697F
:10274000AA4319431143C1604169A26921F4407150
:1027500011434161204940F48060884202D1FEF774
:10276000FBF901E0FEF7EEF9E269192163681B4D00
:10277000A0FB0101B2F5004F16D15A00DB0FFDF7A7
:102780008FFD642105F18053B0FBF1F202FB0300E1
:10279000322303EBC000B0FBF1F04FF4F87101EA13
:1027A000400100F0070011E09A009B0FFDF778FD53
:1027B00064213223B0FBF1F202FB050003EB0010B1
:1027C000B0FBF1F000F0F00100F00F0001EB02119E
:1027D000084421688860B0BD001401409CFFFF0FD1
:1027E0000023C285436481622221828580F84210E1
:1027F0000168006918B1C86840F48070C860486911
:1028000040F001004861C86840F02000C860002026
:10281000704700002B48FEF7F7BF00BFFEE700003F
:10282000FEF76AF8DFF89C804046FFF7F7F9FFF7FC
:102830009BFDFFF7FBF9FFF79DFAFFF7EFFAFFF7B4
:1028400009FBFFF723FBFFF73DFBFFF757FBFFF704
:1028500089FBFFF771FADFF870901C4D3C21484668
:10286000A847DFF86CA03C215046A847DFF864B0C9
:102870003C215846A847184C3C212046A847174DF4
:10288000174F00212846B84728460C21B847154E57
:1028900000213046B84730460421B847124F304631
:1028A000B8474846B8475046B8475846B847204604
:1028B000B8472846B847D8F80000C16841F0200161
:1028C000C160FEE780030020180200200512000806
:1028D00060020020A8020020F0020020D0010020A9
:1028E000F514000838030020E50F0008F1EE100A87
:1028F0004FF6FF71C0F2C03120EA010040F0407095
:10290000E1EE100A70470000000000000000010224
:102910000304060708090000000001020304000088
:10292000402900080000002058000000F8010008BD
:1029300098290008580000207809000018020008B3
:102940000100000010000000666686406F12033A26
:102950000000003F0000A041CDCCCC3D0000204253
:102960000700000056000000F03C0000AAFFF10044
:102970000000000000000000000000000000000057
:102980000000000000000000000000000000803F88
:082990000024F4000000000027
:040000050800019559
:00000001FF
