:020000040800F2
:10000000100A002035020008E52800088F210008AA
:10001000D52700082B0400082D2F00080000000041
:10002000000000000000000000000000F5290008AA
:10003000DD04000800000000E7280008F729000898
:100040004F0200084F0200084F0200084F0200084C
:100050004F0200084F0200084F0200084F0200083C
:100060004F0200084F0200084F0200084F0200082C
:100070004F0200084F0200084F0200084F0200081C
:100080004F0200084F0200084F0200080000000065
:100090000000000000000000000000004F02000807
:1000A0004F020008A52A00084F0200084F0200086E
:1000B0004F0200084F0200084F0200084F020008DC
:1000C0004F0200084F0200084F0200084F020008CC
:1000D0004F020008252F00084F0200080000000012
:1000E000DF0400084F0200084F0200080000000073
:1000F0000000000000000000000000004F020008A7
:10010000000000004F0200084F0200084F020008E4
:1001100000000000000000000000000000000000DF
:100120004F0200084F0200084F0200084F0200086B
:100130004F02000800000000000000000000000066
:100140000000000000000000000000004F02000856
:100150004F0200084F0200084F0200084F0200083B
:100160004F0200084F0200080000000000000000DD
:10017000000000000000000000000000000000007F
:10018000000000004F020008000000000000000016
:100190004F02000800F002F800F03CF80AA090E8D6
:1001A000000C82448344AAF10107DA4501D100F032
:1001B00031F8AFF2090EBAE80F0013F0010F18BFC3
:1001C000FB1A43F0010318475C2E00007C2E000050
:1001D000103A24BF78C878C1FAD8520724BF30C873
:1001E00030C144BF04680C60704700000023002445
:1001F00000250026103A28BF78C1FBD8520728BF37
:1002000030C148BF0B6070471FB502F0F9FE1FBD3B
:1002100010B510BD00F0CFF81146FFF7F5FF02F062
:1002200087FE00F0EDF803B4FFF7F2FF03BC00F027
:10023000F5F800000948804709480047FEE7FEE757
:10024000FEE7FEE7FEE7FEE7FEE7FEE7FEE7FEE786
:1002500004480549054A064B70470000952A0008E6
:100260009501000810040020100A0020100600204C
:100270001006002053EA020C00F069802DE9F04BD3
:100280004FF00006002B1FBFB3FA83F503FA05F405
:1002900024FA05F65E4012BF1643B2FA82F502FA5E
:1002A00005F4C5F120051EBF22FA05FC44EA0C0442
:1002B000203556EA044C4FEA144418BF641C4FF032
:1002C00000084FF00009904271EB030C39D300296C
:1002D00019BFB1FA81F701FA07F6B0FA80F700FA10
:1002E00007F6C7F120071EBF20FA07FC46EA0C06F6
:1002F0002037B6FBF4FCA7EB0507103F07F01F0BF8
:10030000CBF120062CFA06F60CFA0BFB44BFB346E1
:100310000026202FA4BF5E464FF0000B5BEA060CC0
:1003200008BF4FF0010B19EB0B0948EB0608ABFBBC
:10033000027C06FB02CC0BFB03CCC01B71EB0C0157
:10034000C1E70B46024641464846BDE8F08B13B56F
:100350004FF000004FF00001AFF30080BDE81C40FB
:1003600070474FF0000200B5134694469646203978
:1003700022BFA0E80C50A0E80C50B1F12001BFF45E
:10038000F7AF090728BFA0E80C5048BF0CC05DF8C4
:1003900004EB890028BF40F8042B08BF704748BF12
:1003A00020F8022B11F0804F18BF00F8012B704786
:1003B000704770477047754600F02CF8AE46050050
:1003C0006946534620F00700854618B020B5FFF770
:1003D0003FFFBDE820404FF000064FF000074FF010
:1003E00000084FF0000BAC46ACE8C009ACE8C0090F
:1003F000ACE8C009ACE8C00921F007018D467047A0
:1004000010B50446AFF300802046BDE81040FFF76A
:100410000ABF000000487047100100200149182061
:10042000ABBEFEE7260002007047FEE780B5DFF8AE
:10043000A4C04FEA102E8CF804008CF805E04FEAB7
:10044000104E000E8CF806E08CF80700080A8CF8B5
:1004500008108CF80900080C8CF80A00080E00211E
:100460008CF80B00100A8CF80C208CF80D00100C86
:100470008CF80E00100E00228CF80F00180A8CF871
:1004800010308CF81100180C8CF81200180E8CF833
:10049000130010208CF80300002006E01CF8003048
:1004A000013053FA81F151FA82F21428F6D100207A
:1004B0008CF814108CF81520162808BF80BD06494A
:1004C0000A6812F0400FFAD01CF8002001304A6090
:1004D000F2E700BFEC0000200010014070474FF42D
:1004E000805000F057B872B6FEE770B50446A66DAE
:1004F00000F030F9054694F83500022829D120682B
:10050000016821F016010160416921F0800141611B
:10051000216C09B9A16C19B1016821F008010160D1
:10052000016821F00101016005E000F013F9401BB2
:10053000052812D82068006810F0010FF5D1E06D91
:100540003F2101FA00F0B060012084F8350000205E
:1005500008E080206065012004E020206065032021
:1005600084F835000021C0B284F8341070BD90F8D2
:10057000351002291FBF80214165012070470521E8
:1005800080F835100068016821F001010160002049
:100590007047704703490A6802421CBF0860FFF7B2
:1005A000F8BF7047143C01402DE9FC4F5B4A072718
:1005B0004FF0010E4FF0030A4FF0000B4FF0000810
:1005C000904208BF0427564A02444FEAB223042B44
:1005D00038BF4FEAB22700970027102F08BFBDE8A9
:1005E000FC8F0A680EFA07F4224200F090804B68F4
:1005F00003F00302551E012D15D8D0F808C00AFAE1
:1006000008F52CEA050CCD6805FA08F545EA0C0555
:100610008560C3F3001505FA07FC4568A54345EA64
:100620000C05456001E0032A1DD0C6680AFA08F5EA
:10063000022A26EA05068D6805FA08F546EA050647
:10064000C66010D1374D0BF01C020F23934005EA12
:1006500057060644356A25EA03030D6905FA02F2D6
:100660001A4332624B68056803F003020AFA08F67F
:1006700013F4403F02FA08F225EA060642EA0602AF
:10068000026044D000220192274A136843F4804359
:100690001360126802F48042019227F00302234B98
:1006A000019E234D0BF00C0602EB03090F2259F8B3
:1006B00005C002FA06FE009A2CEA0E0C02FA06F6B3
:1006C0004FF0010E46EA0C0649F805609A684E683C
:1006D000A24316F4801F18BF224316F4001F9A602D
:1006E000144A156825EA040518BF254316F4003F8F
:1006F00015605A6822EA040218BF224316F4803FAC
:100700005A601A6822EA040218BF22431A600BF1E9
:10071000040B08F1020801375FE700BF0010024038
:100720000000FEBFFCFFFF7F44380240003C014058
:1007300008FCFFFF0C3C0140426902EA01039143BF
:1007400041EA034181617047002A08BF09048161C1
:100750007047000097488068704700BFB0B50446F6
:100760002CB394F83D0028B9002084F83C002046C2
:1007700000F0ACF8242084F83D002068016821F0E6
:1007800001010160016841F400410160016821F448
:100790000041016000F00CFA65684849484A8D4202
:1007A0003CBF48F28042C0F21E02904201D20120BA
:1007B000B0BD4449B0FBF1F2216801384B6823F029
:1007C0003F0313434B600B6A23F03F0C3B4B9D42AE
:1007D00021BF4FF4967312FB03F24FF47A73B2FB0E
:1007E000F3F201324CF6FF7342EA0C020A62CA6964
:1007F00022EA030C344A954209D86A00B0FBF2F0B1
:1008000001306FF31F30042898BF04202DE0D4F886
:1008100008E0BEF1000F08D0192204236A43B0FBA0
:10082000F2F2013263F31F3206E005EB4502B0FB42
:10083000F2F201326FF31F3212050BD0BEF1000F3E
:100840000AD019226A43B0FBF2F00422013062F3AD
:100850001F3008E0012008E005EB4502B0FBF2F094
:1008600001306FF31F3040F4004040EA0C00C861D3
:100870000868D4E9072320F0C000104348F2FF3293
:100880001843086088689043D4E903231843104351
:100890008860C868D4E9052320F0FF00104318439E
:1008A000C860086840F00100086000202021206432
:1008B00084F83D10206384F83E00B0BDA18601009D
:1008C00000093D0040420F00A0860100B0B586B08F
:1008D000044601A81421FFF744FD21681548814210
:1008E00025D1002500F5D8300095134C216841F042
:1008F00002012160216801F00201009100994FF48A
:10090000407101911221029101210391032104916F
:100910000421059101A9FFF747FE0095206940F4E5
:1009200000102061206900F400100090009806B0CB
:10093000B0BD00BF00540040303802401D4801786F
:10094000826811448160704780B50B48016841F4AA
:1009500000710160016841F480610160016841F447
:1009600080710160032000F07DF80F2000F006F890
:1009700000F022F8002080BD003C024070B50D4E12
:1009800004464FF47A713078B1FBF0F0924909686F
:10099000B1FBF0F000F00EFB01250F2C08D838B9A0
:1009A0004FF0FF3021460022002500F02FF8746040
:1009B000284670BD0000002082B0002001900B4945
:1009C0004A6842F480424A604A6802F480420192D6
:1009D000019A0090086840F080500860086800F0B4
:1009E00080500090009802B0704700BF403802402D
:1009F000002808DB00F01F010122400902FA01F182
:100A0000014A42F82010704700E100E0B0B5144CF4
:100A10001A4D00F00F03B0F1FF3FA3F104032B4484
:100A200003F10C03C8BF03192868C0F30220051D99
:100A3000C41E80F00700072D4FF0010538BF0024C9
:100A4000042828BF042005FA00F00138084005FA00
:100A500004F10F31A0401140084300011870B0BDEF
:100A600000E400E005494FF6FF030A681A4060F30E
:100A70000A22034810430860704700BF0CED00E0F5
:100A80000000FA052DE9F04104468846002C00F0EC
:100A90008480444FD7F8000400F00700404507D297
:100AA00087F80084D7F8000400F00700404574D1AF
:100AB000206810F0020F11D0410742BFB96841F41D
:100AC000E051B960010742BFB96841F46041B960C3
:100AD000B968A26821F0F0011143B960C0072BD0BA
:100AE0006068811E022904D2396811F0007F0BD1A1
:100AF00053E0012804D1396811F4003F04D14CE0DF
:100B0000396811F0020F48D0B96821F00301084399
:100B1000B860FFF71FFE064641F28835B868616885
:100B200000F00C00B0EB810F06D0FFF713FE801B26
:100B3000A842F3D9032031E0D7F8000400F0070001
:100B4000404507D987F80084D7F8000400F0070073
:100B5000404522D1206810F0040F05D0B968E26842
:100B600021F4E0511143B960000706D5B868216946
:100B700020F4604040EAC100B86000F033F8B96882
:100B8000094AC1F30311515CC84013490860074882
:100B90000068FFF7F3FE002000E00120C0B2BDE8CE
:100BA000F08100BF003802400A3000080400002035
:100BB00009480B4A006809490968C1F38221515C60
:100BC000C84070470448064A006804490968C1F3F0
:100BD0004231515CC84070470C0100200838024087
:100BE0001A30000810B5F04C606800F00C01124893
:100BF000082904D0042904BF104810BD10BD226884
:100C000020680E49002310F4800F02F03F0204BF59
:100C100042F20041C0F2F4012068C0F38810A1FB49
:100C20000001FFF727FB21680222C1F3014102EB1B
:100C30004101B0FBF1F010BD0024F40040787D01CB
:100C40002DE9F84F8246BAF1000F00F064819AF85E
:100C50000000D44ED44FC0074AD0786800F00C0092
:100C6000042807D1306810F4003F41D0DAF80400BE
:100C7000F0BB50E1786800F00C00082803D1386818
:100C800010F4800FEED1DAF80480B8F5803F06D07A
:100C90003068B8F5A02F13D140F480203060306860
:100CA00040F480303060FFF755FD0546306810F4A1
:100CB000003F1DD1FFF74EFD401B6428F6D9C3E06D
:100CC00020F480303060306820F480203060FFF7FE
:100CD00041FD0546B8F1000FE8D1306810F4003F3F
:100CE00006D0FFF737FD411B03206429F5D913E136
:100CF0009AF80000AD4C800731D5786810F00C0FE1
:100D00001CD0786800F00C00082804BF386810F484
:100D1000800F13D0DAF80C00002800F09780012033
:100D20002060FFF717FD0546306810F0020F0ED166
:100D3000FFF710FD401B0228F6D985E0306810F05F
:100D4000020F1CBFDAF80C00012840F0E480306884
:100D5000DAF8101020F0F80040EAC10030609AF88C
:100D60000000000722D5DAF8140078B10120C4F899
:100D7000800EFFF7EFFC0546386F10F0020F15D11B
:100D8000FFF7E8FC401B0228F6D95DE00020C4F81C
:100D9000800EFFF7DFFC0546386F10F0020F05D01C
:100DA000FFF7D8FC401B0228F6D94DE09AF8000066
:100DB000A34640077CD5F86B4FF0000810F0805F29
:100DC0000CD1CDF800804FF00108F86B40F0805056
:100DD000F863F86B00F08050009000987448305829
:100DE00010F4807F12D17248315841F48071315033
:100DF000FFF7B0FC05466E48305810F4807F05D1EF
:100E0000FFF7A8FC401B0228F5D91DE0DAF808908E
:100E1000B9F1010F06D0F86EB9F1050F27D140F0F6
:100E20000400F866F86E40F00100F866FFF792FCE7
:100E3000054641F28834F86E10F0020F31D1FFF709
:100E400089FC401BA042F6D9032065E00020206009
:100E5000FFF780FC0546306810F0020F3FF47FAFCB
:100E6000FFF778FC411B03200229F4D954E020F05D
:100E70000100F866F86E20F00400F866FFF76AFCDF
:100E80000546B9F1000FD4D141F28839F86E10F05F
:100E9000020F06D0FFF75EFC411B03204945F5D940
:100EA0003AE0B8F1010F02BFF86B20F08050F86310
:100EB000DAF81840002C72D0786800F00C0008288E
:100EC0002ED1012C27D03868DAF81C1000F48002EB
:100ED0008A4220D1DAF8201000F03F028A421AD16B
:100EE000DAF8242047F6C0710140B1EB821F12D11D
:100EF000DAF828104FF6FF72C903914300F440322C
:100F0000A1F580318A4206D1DAF82C1000F0706029
:100F1000B0EB016F43D00120C0B201B0BDE8F08F4B
:100F20000020CBF86000FFF715FC0546022C0BD122
:100F30005C46306810F0007F11D0FFF70BFC411BBE
:100F400003200229F5D9E7E7306810F0007F26D0AA
:100F5000FFF700FC411B03200229F5D9DCE70AF169
:100F60001C052FCD0843D90340EA82104FF6FF72CB
:100F7000914340EA0560A1F58031084338600120C3
:100F80002066FFF7E7FB0446306810F0007F06D1CB
:100F9000FFF7E0FB011B03200229F5D9BCE7002085
:100FA000BAE700BF00380240043802400000474260
:100FB0000038FEFF411E0020B0EB116F1CBF012066
:100FC0007047044AF023516003490B700721906079
:100FD0001160704710E000E023ED00E070477047BB
:100FE00090F83C20012A01D102211FE0B0B501F1A7
:100FF0000805D1E900CE3CCDC96923F47C5322F425
:1010000070521A432EF4F0431A432CF4E0431A436F
:1010100024F4C0431A432A4322F480421143026855
:101020005164002180F83C10BDE8B040C8B2704760
:1010300090F83C300222012B2FD010B5012380F80C
:101040003C3080F83D200268D2F804E0D2F808C0B5
:101050000C68B2F1804F2EF0700343EA0403536032
:10106000BDE810400ED0514B9A421CBF504B9A42E3
:1010700008D0504B9A421CBF4F4B9A4202D04F4B64
:101080009A4204D149682CF08003194391600121F0
:10109000002280F83D1080F83C20D0B2704700BF9D
:1010A00010B5044634B394F83D0028B9002084F804
:1010B0003C00204600F020F80220211D84F83D006D
:1010C000206801F0F5FC012084F8460084F83E0019
:1010D00084F83F0084F8400084F8410084F842001E
:1010E00084F8430084F8440084F8450084F83D0007
:1010F000002010BD012010BDE0B5016814482E4A43
:10110000914218D02D4A914218BF8CBD0021002277
:101110000191016841F0010101600021006800F0C7
:101120000100019001981920FFF770FC1920BDE81B
:101130008C40FFF75DBC00210091016841F48031D3
:101140000160006800F48030009000988CBD00BF02
:101150004438024090F83D1001291CBF012070471F
:10116000022180F83D100068C168B0F1804F41F065
:101170000101C1600ED00D4988421CBF0C49884254
:1011800008D00C4988421CBF0B49884202D00B4949
:10119000884204D1816801F00701062903D0016863
:1011A00041F0010101600020704700BF00040040D1
:1011B00000080040000C00400040014000000140D9
:1011C00010B50446022094F83C20012A70D0012278
:1011D0004FF6777384F83C2084F83D0020688268DD
:1011E0009A4382600A6812B3102A20D0202A18BFBE
:1011F000302A1CD0402A21D0502A2BD0602A35D04A
:10120000B2F5005F3ED0B2F5805F4AD0702A51D16E
:10121000D1E90123C9681A4342EA0121826822F414
:101220007F4211438160816841F0770138E0816835
:1012300021F07701114341F0070131E04B68CA68A2
:10124000194601F03BFD2068816821F0770141F0EB
:10125000470125E04B68CA68194601F02FFD206858
:10126000816821F0770141F0570119E04B68CA68A5
:10127000194601F034FD2068816821F0770141F0C2
:1012800067010DE0D1E90123C9681A4342EA01214F
:10129000826822F47F4211438160816841F4804179
:1012A00081600020012184F83D10002184F83C1069
:1012B000C0B210BD0120F5E72DE9F84F04460D46F8
:1012C000002C4DD094F83D0028B9002084F83C0053
:1012D000204600F049F8022044F2070284F83D005D
:1012E0002068816891438160211D01F0E1FB206845
:1012F0008168D0F818A0D0F820C0D5E9003ED5E923
:1013000002B7D5E90489D5E9062619432B6A4BEAC9
:1013100002224FF6FC4581604FF6FF71AA432AEA8C
:1013200001013943114341EA062141EA081141EA2A
:10133000033181612CF0AA0141EA0E0141EA091151
:101340000162012084F8460084F83E0084F83F00E2
:1013500084F8420084F8430084F83D00002000E057
:10136000012001B0BDE8F08F2DE9F04186B00446C0
:1013700001A81421FEF7F5FF20684F4C00F1404012
:101380004FEAB021DE48032900F29380DFE801F044
:10139000023A5170002601AD4FF002080127009675
:1013A000016941F001010161016901F00101009150
:1013B00000990096016841F001010160016801F0A7
:1013C0000101009100990096016841F0020101605D
:1013D0002946006800F00200009000984FF4004099
:1013E0000190A4F58060CDE9028604960597FFF789
:1013F000DBF808202946CDE90108CDE90366059709
:10140000204654E000210091026942F0020202618C
:10141000026902F002020092009A0091026842F012
:1014200002020260006800F0020000900098302084
:1014300015E000210091026942F004020261026994
:1014400002F004020092009A0091026842F0020247
:101450000260006800F0020000900098C020019037
:101460000220029003910491059001A920461EE0FC
:1014700000210091026942F008020261026902F053
:1014800008020092009A0091026842F00102026094
:10149000006800F0010000900098032001900220F5
:1014A000CDE90201CDE90410A4F5806001A9FFF7A0
:1014B0007BF806B0BDE8F0810004024010B590F85A
:1014C0003E4090F83F3090F842E090F843C001224F
:1014D00004290BD0A9B9012C08BFBEF1010F41D1DD
:1014E000022180F83E1080F842102CE0012B08BF4A
:1014F000BCF1010F36D1022180F83F1080F8431073
:101500001DE0012C08BF012B2CD1BEF1010F08BF3B
:10151000BCF1010F26D10222002980F83E2080F87C
:101520003F2080F8422080F843200CD001680A6AEE
:1015300022F001020A620A6A42F001020A621021E4
:101540006FF0100202E001216FF001020068036AEF
:101550001A400262026A114300220162016841F0EE
:1015600001010160104610BD7047B0B50446206807
:10157000C168026901EA0205A90714D56FF00201EA
:10158000016101212177806910F0030F03D020460B
:10159000FFF7EAFF05E0204600F0B4F8204600F02F
:1015A0002DF900202077680715D520686FF0040119
:1015B000016102212177806910F4407F03D0204629
:1015C000FFF7D2FF05E0204600F09CF8204600F02F
:1015D00015F900202077280715D520686FF008013D
:1015E000016104212177C06910F0030F03D0204668
:1015F000FFF7BAFF05E0204600F084F8204600F02F
:10160000FDF800202077E80615D520686FF010015E
:10161000016108212177C06910F4407F03D0204682
:10162000FFF7A2FF05E0204600F06CF8204600F02E
:10163000E5F800202077E80706D020686FF0010168
:101640000161204600F03AF9280606D520686FF0BF
:10165000800101612046FFF7C1FC680606D52068BD
:101660006FF040010161204600F0ACFBA80658BFB6
:10167000B0BD20686FF0200101612046BDE8B04098
:10168000FFF7ADBC10B586B0044601A81421FEF7E3
:1016900068FE226819481A49854B9A4216D0854B34
:1016A0009A4229D1002200920B6843F001030B609B
:1016B000096801F00101009100994FF41061019156
:1016C0000221CDE902120492012111E000220092D0
:1016D0000B6843F001030B60096801F00101009100
:1016E00000990C2101910221CDE9021203210492FB
:1016F000059101A9FEF758FF06B010BD0000024099
:101700003038024070470000B0B504460D4694F8EA
:101710003C00012801D1022041E04FEAB201012042
:10172000032984F83C0037D8DFE801F0020A1222CE
:101730002068294601F010FA206850F8181F0EE0C2
:101740002068294601F034FA206850F8181F16E086
:101750002068294601F05CFA206850F81C1F41F00F
:1017600008010160016821F00401016029690FE0AE
:101770002068294601F07CFA206850F81C1F41F4CB
:1017800000610160016821F480610160296909023A
:101790000268114301600020002184F83C10C0B2AF
:1017A000B0BD10B5044634B394F83D0028B900200C
:1017B00084F83C00204600F020F80220211D84F827
:1017C0003D00206801F074F9012084F8460084F897
:1017D0003E0084F83F0084F8400084F8410084F81B
:1017E000420084F8430084F8440084F8450084F8FB
:1017F0003D00002010BD012010BD70477047000063
:1018000039B10322082908BF0222042908BF012296
:1018100000E00022024492F83E20012A1CBF012071
:101820007047022241B1082909D0042914BF80F869
:10183000412080F83F2004E080F83E2001E080F85D
:101840004020006801F01F01012202FA01F1026A42
:10185000B0F1804F22EA01020262026A41EA02010B
:10186000016213D00F4988421CBF0F4988420DD036
:101870000E4988421CBF0E49884207D00D49884254
:1018800009D10D490A6842F400420A60816801F0FA
:101890000701062903D0016841F001010160002021
:1018A000704700BF0004004000080040000C0040EA
:1018B000004001400000014044000140DFF8F01406
:1018C000884218BF70472DE9F8432DED048B00F0D6
:1018D00009FDDFF8E09489ED0D0A00F0D7FC89EDF1
:1018E0000E0A00F0E9FCDFF8D08489ED0F0AD8F881
:1018F000040001306428C8F8040007D363484FF49B
:101900000051FEF719FF0020C8F8040099ED050A00
:101910009FED5F8A9FED5F9AB8EEC00A20EE080A3D
:1019200080EE090ABDEEC00A89ED100A99ED040A9D
:10193000B8EEC00A20EE080ABDEEC01ABDEEC00A1D
:1019400098F8000089ED081A01281FD10020002115
:101950000122002600F0C8FFDFF860040021012208
:101960000660002001F000F8DFF854040021012295
:101970000660002000F00CFC00200021012200F095
:1019800045FCD9F8201088F8006001E010EE101A2C
:10199000DFF8540CDFF8AC3CDFF8085DDFF8644D8D
:1019A000D0F800E00020DEF824C01B68A9F800C0D1
:1019B0005E6A2D68A9F802606F6A2468A9F804704D
:1019C000626AA9F80620CEF8240058626862606254
:1019D000CCF100007B424FF44364A9F80800A9F859
:1019E0000A60A9F80C30A9F80E20D9F8447007FA5B
:1019F00080F7C9F84470D9F8480000FA86F6C9F8AB
:101A00004860D9F84C0000FA83F3C9F84C30D9F893
:101A1000500000FA82F096FBF4F2C9F8500030440E
:101A200000EE102ADA1997FBF4F300EBD07502EB05
:101A3000D27201EE103A6810C1EB65035210C9F87A
:101A40005400B8EEC00AC9F85820B8EEC11A002BED
:101A500089ED060A89ED071A00D55B42632B1BDC72
:101A6000521A48BF5242632A16DC002000F0B4FE2E
:101A7000002000F0D1FE002000F0F4FE002000F075
:101A80000FFF012088F8000085E100BF0008024038
:101A9000000043450080BB4599ED050A0022B8EEE1
:101AA000C00A20EE080A80EE090ABDEEC00AB8EEB0
:101AB000C00A89ED090A89ED0A0A89ED0B0A89ED48
:101AC0000C0A00F011FF00EE100A0022B8EEC00A66
:101AD00089ED090AD9F82010D9F8540000F004FF64
:101AE00000EE100A0022B8EEC00A89ED0A0AD9F801
:101AF0002010D9F8580000F037FF00EE100A00223D
:101B0000B8EEC00A89ED0B0AD9F82010D9F85800B0
:101B100000F02AFF99ED050A99ED091A99ED0A2AB4
:101B200099ED0B3AB8EEC00A20EE080A80EE090AD9
:101B3000BDEEC00ABDEEC11A10EE101A11EE102A49
:101B400001EE100A6FF058004B429342C8BF1A468C
:101B5000BDEEC20A8A4210EE107AC8BF0A46BB42E6
:101B6000C8BF1F4602EE102A8F42C8BF0F4600EEC4
:101B7000107AB8EEC00AB8EEC11AB8EEC22ABDEEAD
:101B8000C00ABDEEC33ABDEEC11ABDEEC22A13EEC5
:101B9000107A11EE106A10EE102ABB42C8BF1F4621
:101BA0008F42C8BF0F46B342C8BF1E46592301EE3D
:101BB000107A8E42C8BF0E4612F1590F12EE101A5B
:101BC000D8BF024611F1590F00EE106AD8BF014686
:101BD0005929A8BF1946B8EEC00A592AB8EEC11A49
:101BE00002EE101AA8BF1A46B8EEC22ABDEEC00A0D
:101BF000BDEEC11A03EE102A10EE101A89ED092A63
:101C000011EE102A11F1590FD8BF01465929A8BF6A
:101C1000194612F1590FC8BF104600225928A8BF13
:101C20001846B8EEC31A03EE101A00EE100AB8EE0A
:101C3000C00A89ED0A1AB8EEC31A89ED0B0ABDEE87
:101C4000C20A89ED0C1AB9F90A0010EE101A00F058
:101C50009FFA00EE100A0022B8EEC00A89ED170ABA
:101C600099ED090AB9F90E00BDEEC00A10EE101A7E
:101C700000F08EFA00EE100A0022B8EEC00A89EDDC
:101C8000180A99ED0B0AB9F90800BDEEC00A10EE6A
:101C9000101A00F0BBFA00EE100A0022B8EEC00ADB
:101CA00089ED190A99ED0B0AB9F90C00BDEEC00ACD
:101CB00010EE101A00F0AAFA99ED170A6FF06201FF
:101CC000632201EE100ABDEEC00A10EE103A13F1C5
:101CD000630FD8BF0B46632BA8BF134600EE103A24
:101CE000B8EEC00A89ED170A99ED180ABDEEC00AD0
:101CF00010EE103A13F1630FD8BF0B46632BA8BF49
:101D0000134600EE103AB8EEC00AB8EEC11A89EDDB
:101D1000180ABDEEC10A99ED191A10EE100A10F159
:101D2000630FD8BF0846BDEEC10A632810EE103A13
:101D3000A8BF104613F1630F01EE100AC8BF194681
:101D40006329A8BF114600EE101AB8EEC00AB8EE1B
:101D5000C11A89ED190ABDEEC00A89ED1A1A10EEF2
:101D6000100A00F039FD99ED170ABDEEC00A10EE19
:101D7000100A00F051FD99ED1A0ABDEEC00A10EEEE
:101D8000100A00F06FFD99ED180ABDEEC00A10EEC2
:101D9000100A00F085FDB9F90830D9E91512D9F813
:101DA0002000BDEC048B01B0BDE8F043FEF73EBB64
:101DB0000C02002080000020A8010020100000205C
:101DC000140000207047704770470000F8B50446C3
:101DD00020680168C268456901F02F0602F02003FF
:101DE000202E05D123B12046BDE8F84000F0B5BF54
:101DF0005FEA017C08D005F0010E12F4907F8EF0AE
:101E0000010557D1002D55D01140CA06226B3BD594
:101E1000012A39D1002100910168009141680091A7
:101E20000099416911F0400F40F0A580A18DE28D2D
:101E3000E38D002B00F01981891A89B209B914E1E8
:101E4000206850E8030F226820F4907042E80303F2
:101E5000002BF5D1206850E8050F226820F0010022
:101E600042E80503002BF5D1202084F84200002031
:101E70002063206850E8030F226820F0100042E839
:101E80000303002BF5D1D5E00A0640F1BA8094F89F
:101E90004110212940F0E980A168B1F5805F04BFBD
:101EA0002169002900F0D380216A4A1C2262097846
:101EB0004160D3E0CE0706D012F480761EBF666C78
:101EC00046F00106666401F00407012686EA9707DA
:101ED0002F4302BF676C47F00207676401F00207F7
:101EE00086EA5706354302BF656C45F00405656414
:101EF00053EA0E0318BF0123BCF1000F05D5012BD7
:101F000002BF636C43F008036364636C002B00F052
:101F1000AC801140890603D5204600F01EFF2068E2
:101F20004069616C00F0400001F00801084300F0D6
:101F30008880204600F0EAFE2068416911F0400FD9
:101F400001D16CE0206850E8050F216820F04000C6
:101F500041E80502002AF5D1E06B00285FD048492E
:101F60000165FEF704FB002800F07F80E06B016D47
:101F7000BDE8F8400847E36B19684D68A28DA9B227
:101F8000002951D091424FD2E585D969B1F5807FC2
:101F900001D130E0206850E8030F216820F4807000
:101FA00041E80302002AF5D1206850E8050F2168B6
:101FB00020F0010041E80502002AF5D1206850E830
:101FC000050F216820F0400041E80502002AF5D104
:101FD000202084F8420000202063206850E8030F8E
:101FE000216820F0100041E80302002AF5D1E06BDF
:101FF000FEF77BFAA28D02206063E08D101A81B299
:102000001AE0490631D5C16821F04001C1602020A5
:1020100084F841002046BDE8F84000F0B7B82046FB
:10202000BDE8F840FFF7D0BE8A4204BFD869B0F5DA
:10203000807F1AD1022060632046BDE8F840FFF798
:10204000C2BE2046FFF7C0FE00206064F8BD216AD2
:1020500031F8022B6FF35F2242602162E18C4FF670
:10206000FF7201391142E18400D0F8BDC16821F04E
:102070008001C160C16841F04001C160F8BD00BF8E
:10208000032D000810B504464CB394F8410028B95C
:10209000002084F84000204600F024F8242084F832
:1020A00041002068C16821F40051C160204600F061
:1020B000B9FE2068016921F490410161416921F074
:1020C0002A014161C16841F40051C1600020202112
:1020D000606484F8411084F84210606310BD0120F0
:1020E00010BD000010B586B0044601A81421FEF70B
:1020F00038F92168184881422CD1002100F5704040
:102100000091DB4A536943F010035361536903F0B4
:1021100010030093009B0091136843F001031360C8
:10212000126802F001020092009A4FF4C06201921C
:102130000222CDE90221032104910721059101A981
:10214000FEF732FA252000210022FEF75FFC252051
:10215000FEF74EFC06B010BD0010014010B590F81F
:102160004230202B07D1012431B12AB1002404636D
:1021700000F0BEFE00E00224E0B210BD7A494A68D9
:10218000824218BF7047487800F0C8B87047FEE731
:10219000012A07D11C49002008603A49C1E9020020
:1021A00008617047081A3749B8EE006A00EE100A55
:1021B0001548B8EEC00AF0EE401A81ED020A91ED22
:1021C000031A91ED124A91ED042A91ED113A91ED25
:1021D000135AD0ED000A41EE061A81ED041A30EED2
:1021E000417A24EE004A03EE074A31EE822A05EED8
:1021F000024A30EE842A80ED002ABDEEC21A81ED3B
:10220000030A11EE100A7047B0010020012A07D11D
:102210001D49002008601B49C1E9020008617047A0
:10222000081A1849B8EE006A00EE100A1648B8EE0F
:10223000C00AF0EE401A81ED050A91ED061A91ED03
:10224000154A91ED072A91ED143A91ED165AD0ED09
:10225000000A41EE061A81ED071A30EE417A24EEAB
:10226000004A03EE074A31EE822A05EE024A30EEBA
:10227000842A80ED002ABDEEC21A81ED060A11EE15
:10228000100A704710000020B401002007489FED9D
:10229000080A9FED081AB0F9020002EE100AB8EE23
:1022A000C22A22EE000A20EE010A7047080400202C
:1022B000000000380000344307489FED080A9FEDF6
:1022C000081AB0F9000002EE100AB8EEC22A22EE97
:1022D000000A20EE010A70470804002000000038C0
:1022E0000000344307489FED080A9FED081AB0F933
:1022F000040002EE100AB8EEC22A22EE000A20EE16
:10230000010A704708040020000000380000344330
:102310001549012248600131FFF720BF12495528B5
:102320000A7801D002B97047531C0A440B7010722E
:10233000D8B20B280ED1087A552809D1487A5328EB
:1023400001BFD1F80A00D1F80E20084BC3E9000202
:102350000020087080B5486801310122FFF7FEFEB9
:10236000BDE88040704700BF7001002008040020D5
:102370002DE9F04786B000253F4F00224FF4005A68
:10238000059500953A48016841F004010160016833
:1023900001F00401009100990095016841F080016D
:1023A0000160016801F080010091009900950168C9
:1023B00041F001010160016801F001010091009903
:1023C0000095016841F0020101604FF4005100687E
:1023D00000F0020000900098264C04F5006840468A
:1023E000B847204650210022B8472046A0210122AC
:1023F0004FF00109B84704F580664FF4A041002270
:102400003046B84730464FF420410122B847CDE965
:1024100001A9DFF868A001AF4046CDE90355394670
:10242000D047F0203946CDE901092046CDE90355D2
:10243000D0474FF470403946CDE901093046CDE927
:102440000355D0474FF48050394601904FF488101F
:10245000CDE902092046D047282000210022FEF7BE
:10246000D5FA2820FEF7C4FA06B0BDE8F08700BF11
:10247000303802400000024049070008A905000862
:1024800080B50B480B494FF4804201600A49416016
:102490000021C0E902110162C0E90611C0E904216E
:1024A000FEF75CF918B1BDE88040FEF71CB880BDAE
:1024B000B801002000540040A0860100B0B596B0DD
:1024C00009AC00251C212046CDE91455CDE9125553
:1024D000CDE91055FDF745FF01A82021FDF741FF8B
:1024E000DF482A4942F2CF02632380E82600C0E990
:1024F0000335C0E90555FEF7D3FD08B1FDF7F3FF3D
:102500004FF4805012A91290D548FEF759FE08B139
:10251000FDF7E9FFD248FFF744F908B1FDF7E3FF03
:10252000002010A9CDE91000CD48FEF781FD08B1CB
:10253000FDF7D9FF602018210990201DFDF711FF3C
:10254000C74821460022FFF7DFF808B1FDF7CBFFAF
:10255000C34809A90C22FFF7D7F808B1FDF7C3FF5C
:1025600001AC14212046FDF7FCFE4FF4005021463B
:10257000069000200890BA48FEF732FD08B1FDF73A
:10258000B2FFB748FFF77EF816B0B0BD00000140BB
:1025900010B58CB0144800244FF080414FF6FF7204
:1025A000CDE90044C0E900140321C0E902420461FE
:1025B0008461CDE903140121CDE90514CDE9074477
:1025C000CDE9091403A90B94FEF776FE08B1FDF7D7
:1025D0008AFF05486946CDE90044FEF729FD08B1A8
:1025E000FDF781FF0CB010BD5402002010B58CB077
:1025F000002414484FF6FF72CDE900441249C0E9A7
:1026000000140321C0E9024204618461CDE903148E
:102610000121CDE90514CDE90744CDE9091403A949
:102620000B94FEF749FE08B1FDF75DFF05486946CA
:10263000CDE90044FEF7FCFC08B1FDF754FF0CB0F7
:1026400010BD00BF9C0200200004004010B58CB0FB
:10265000002414484FF6FF72CDE900441249C0E946
:1026600000140321C0E9024204618461CDE903142E
:102670000121CDE90514CDE90744CDE9091403A9E9
:102680000B94FEF719FE08B1FDF72DFF05486946CA
:10269000CDE90044FEF7CCFC08B1FDF724FF0CB0F7
:1026A00010BD00BFE40200200008004010B58CB04F
:1026B000002414484FF6FF72CDE900441249C0E9E6
:1026C00000140321C0E9024204618461CDE90314CE
:1026D0000121CDE90514CDE90744CDE9091403A989
:1026E0000B94FEF7E9FD08B1FDF7FDFE05486946CC
:1026F000CDE90044FEF79CFC08B1FDF7F4FE0CB0F8
:1027000010BD00BF2C030020000C004010B58CB0A1
:10271000002401A81C21CDE90A44CDE90844FDF7B5
:1027200020FE6F481C4942F2CF02632380E8160066
:10273000C0E903348461FEF7B3FC08B1FDF7D3FEB2
:102740004FF4805008A908906548FEF739FD08B19C
:10275000FDF7C9FE6248FFF724F808B1FDF7C3FE94
:10276000602001A9002201900020CDE9020005901F
:102770005B48FEF7C9FF08B1FDF7B5FE584801A94F
:102780000422FEF7C1FF08B1FDF7ADFE5448FEF785
:1027900079FF0CB010BD00BF0040014080B50B4870
:1027A0000B494FF4E13200234FF00C0C80E80E008F
:1027B000C0E90333C0E905C3C361FFF763FC18B187
:1027C000BDE88040FDF78FBE80BD00BFBC03002088
:1027D00000100140FEE70000B0B5204D04464FF464
:1027E0008041002C284609DB0122FDF7ADFF284679
:1027F0004FF400410022FDF7A7FF09E00022FDF79A
:10280000A3FF28464FF400410122FDF79DFF6442DB
:10281000A64800684463B0BDB0B5104D0446002C16
:1028200028460BDB4FF400510122FDF78DFF2846AF
:102830004FF480510022FDF787FF0BE04FF48051E9
:102840000022FDF781FF28464FF400510122FDF7D9
:102850007BFF6442954800680464B0BD00040240F8
:102860000C020020B0B51D4D0446002C284609DBA3
:1028700010210122FDF768FF284620210022FDF7E4
:1028800063FF09E020210122FDF75EFF28461021A9
:102890000022FDF759FF6442114800684463B0BD4F
:1028A000B0B50E4D04464021002C284608DB01221D
:1028B000FDF74AFF284680210022FDF745FF08E08A
:1028C0000022FDF741FF284680210122FDF73CFF51
:1028D0006442034800688463B0BD00BF000002404A
:1028E00074030020FEE77047012A05D13E4900200D
:1028F000C1E90000886070473C4ADFF8ECC0081A64
:1029000041F2883104EE100A1368CCF80000034449
:102910008B42B8BF1946364B9942D8BF1946116051
:1029200003EE101ADCF8041092ED0C1A92ED0B0A6B
:1029300092ED0D2AB8EEC33AB8EEC44A411A21EE20
:10294000031A00EE041A00EE101AB8EEC00A02EEE6
:10295000001ABDEEC10A8CED020ABDEEC10ACCF828
:10296000040010EE100A7047012A05D11E4900200C
:10297000C1E90300486170471C4ADFF86CC0081ABF
:1029800041F2883104EE100A5368CCF80C0003447D
:102990008B42B8BF1946164B9942D8BF19465160B1
:1029A00003EE101ADCF8101092ED0F1A92ED0E0AD9
:1029B00092ED102AB8EEC33AB8EEC44A411A21EE9D
:1029C000031A00EE041A00EE101AB8EEC00A02EE66
:1029D000001ABDEEC10A8CED050ABDEEC10ACCF8A5
:1029E000100010EE100A7047900100201000002027
:1029F00078ECFFFF7047FDF7A1BF000070B592B003
:102A000006AC1421201DFDF7ACFC01A81421FDF734
:102A1000A8FC0025022600951C48016841F0805161
:102A20000160006800F08050009000980095184800
:102A3000016866F38F310160006800F44040009047
:102A4000009806960120099010200A900820CDE9F0
:102A50000C650E905420CDE90F06042011902046FD
:102A6000FEF7EEF808B172B6FEE70F200221CDE9BD
:102A700001064FF480500395CDE9040501A8FEF747
:102A800001F808B172B6FEE712B070BD40380240DE
:102A9000007000400248016841F470010160704715
:102AA00088ED00E00148FEF760BD00BF0C02002089
:102AB000B0B5B0F1804F03687F4D1CBF204CA042E1
:102AC00008D0204CA0421CBF7B4CA04202D01E4C20
:102AD000A04203D14C6823F070032343B0F1804F30
:102AE00014D0174CA0421CBF164CA0420ED0164C5E
:102AF000A0421CBF704CA04208D0144CA0421CBF86
:102B0000134CA04202D0134CA04203D1CC6823F452
:102B1000407323438C684A69A84223F08003C4624F
:102B200043EA02030C68846204BF096929630168EF
:102B300041F004010160012141610360B0BD00BFAB
:102B40000004004000080040000C0040004001402C
:102B5000004801400044014070B5D0F820C0026A2E
:102B600022F0010202622CF00202D0F804E0856932
:102B70008C680B68144325F0730242EA030C4E4A3A
:102B800090420DD1CE68D1E905352EF440721A433A
:102B900026F0040342EA050E24F00C0243EA020484
:102BA000C0F804E0C0F818C049684163046270BD11
:102BB00070B5D0F820C0036A23F010032CF0200277
:102BC0000362D0F804E083698C680D6842EA04145B
:102BD00023F4E64242EA052C374A904210D1CE68EF
:102BE000D1E905352EF4406242EA830224F0C003A5
:102BF00042EA850E6FF04F0202EA061242EA03042F
:102C0000C0F804E0C0F818C049688163046270BD70
:102C100070B5D0F820C0036A23F480732CF40072DE
:102C20000362D0F804E0C3698C680D6842EA0424AA
:102C300023F0730242EA050C1F4A904210D1CE687D
:102C4000D1E905352EF4405242EA031240F2FF4327
:102C500042EA051E32029A4324F4406342EA030426
:102C6000C0F804E0C0F81CC04968C163046270BDCC
:102C7000B0B5D0F820C0036A23F4805303622CF46B
:102C80000053D0F804E0C5698A680C6843EA023C46
:102C9000094B25F4E64242EA0422984202BF4B69FE
:102CA0002EF4804545EA831EC0F804E0C2614968FD
:102CB0000164C0F820C0B0BD00000140D0F820C0C1
:102CC000036A23F001030362836923F0F00343EAFC
:102CD000021282612CF00A02114301627047D0F89F
:102CE00020C0036A23F010030362836923F4704356
:102CF00043EA023282612CF0A00242EA0111016231
:102D00007047806B0021C185FFF75EB8016851E80C
:102D1000031F026821F4907142E80313002BF5D1E0
:102D2000016851E8051F026821F0010142E805131E
:102D3000002BF5D1016B012909D1016851E8031F6E
:102D4000026821F0100142E80313002BF5D1202185
:102D500080F8421000210163704790F84210222948
:102D600018BF70478368B3F5805F06D1026900F130
:102D70002801A2B1D1F800C008E00146002B51F8AB
:102D800028CF01D103690BB17F2300E0FF23026844
:102D900052681A4001238CF800200A6806E0036894
:102DA000826A5B686FF35F23138002231A440A6010
:102DB0004FF6FF72C18D01391142C18500D07047B5
:102DC0000168CA6822F02002CA60CA6822F48072D0
:102DD000CA604A6922F001024A61202280F842203A
:102DE00000224263036B012B18BFFFF7C7B90263D0
:102DF00051E8031F026821F0100142E80313016843
:102E0000002BF5D10A6812F0100F08D081B0002213
:102E100000920A68009249680091009901B0818D82
:102E2000FEF7D1BFB0B5044649F20C6520680169D0
:102E3000E26821F4405111430161D4F808C0D4E99B
:102E40000423D4F81CE0C16842EA0C02A9431A43E7
:102E500042EA0E021143C1604169A26921F4407146
:102E60001143416140F480602049884202D1FDF75E
:102E7000A9FE01E0FDF79CFEE26963681921A0FB51
:102E80000101B2F5004F16D15A00DB0FFDF7F2F940
:102E900064216FF06303B0FBF1F202FB0300322305
:102EA00003EBC000B0FBF1F14FF4F87000EA410011
:102EB00001F0070113E09A009B0FFDF7DBF9642195
:102EC0006FF06303B0FBF1F202FB0300322303EB6C
:102ED0000010B0FBF1F101F0F00001F00F0100EB88
:102EE0000210084321688860B0BD00BF0014014093
:102EF000816200218285C2854164222180F84210CE
:102F00000168006918B1C86840F48070C8604869F9
:102F100040F001004861C86840F02000C86000200F
:102F2000704700002C48FEF751BF00BFFEE70000CD
:102F30002DE9F84FFDF708FDDFF89C804046FFF7CC
:102F4000E7F9FFF75BFDFFF713FAFFF7B7FAFFF7B3
:102F50001FFBFFF74BFBFFF779FBFFF7A7FBFFF723
:102F6000D5FBFFF71BFCFFF78BFADFF870901C4DC9
:102F70003C214846A847DFF86CA03C215046A847B2
:102F8000DFF864B03C215846A847184C3C21204645
:102F9000A847174D174F00212846B84728460C214F
:102FA000B847154E00213046B84730460421B8478F
:102FB000124F3046B8474846B8475046B84758467B
:102FC000B8472046B8472846B847D8F80000C16837
:102FD00041F02001C160FEE7BC0300205402002044
:102FE000BD1400089C020020E40200202C030020F5
:102FF0000C0200200118000874030020551100087D
:103000004FF04070E1EE100A704700000000000031
:103010000000010203040607080900000000010285
:1030200003040000503000080000002010010000E0
:10303000D0010008603100081001002000090000E4
:10304000EC0100080000000000000000000000008B
:10305000010000001000000000000000000000005F
:103060000000000000000000000000000000000060
:103070000000000000000000000000000000000050
:103080000000000000000000000000009A99193FB5
:103090000000000052B80E409A99193F000000004D
:1030A00052B80E403333D33FCDCC8C3ECDCCCC3D4B
:1030B0003333D33FCDCC8C3ECDCCCC3D0000A041B2
:1030C000CDCCCC3D000020420000000000000000FC
:1030D00000000000000000000000000000000000F0
:1030E000080000003900000000000000000000009F
:1030F00000000000000000000000000000000000D0
:1031000000000000000000000000000000000000BF
:1031100000000000000000000000000000000000AF
:10312000000000000000000000000000000000009F
:10313000000000000000000000000000AAFFF100F5
:10314000000000000000000000000000000000007F
:103150000000000000000000000000000024F40057
:040000050800019559
:00000001FF
