:020000040800F2
:100000000809002035020008B92600085120000820
:1000100069260008DD030008252A0008000000000A
:100020000000000000000000000000009127000810
:100030004106000800000000BD26000895270008C2
:100040004F0200084F0200084F0200084F0200084C
:100050004F0200084F0200084F0200084F0200083C
:100060004F0200084F0200084F0200084F0200082C
:100070004F0200084F0200084F0200084F0200081C
:100080004F0200084F0200084F0200080000000065
:100090000000000000000000000000004F02000807
:1000A0004F020008512800084F0200084F020008C4
:1000B0004F0200084F0200084F0200084F020008DC
:1000C0004F0200084F0200084F0200084F020008CC
:1000D0004F020008192A00084F0200080000000023
:1000E000450600084F0200084F020008000000000B
:1000F0000000000000000000000000004F020008A7
:10010000000000004F0200084F0200084F020008E4
:1001100000000000000000000000000000000000DF
:100120004F0200084F0200084F0200084F0200086B
:100130004F02000800000000000000000000000066
:100140000000000000000000000000004F02000856
:100150004F0200084F0200084F0200084F0200083B
:100160004F0200084F0200080000000000000000DD
:10017000000000000000000000000000000000007F
:10018000000000004F020008000000000000000016
:100190004F02000800F002F800F03CF80AA090E8D6
:1001A000000C82448344AAF10107DA4501D100F032
:1001B00031F8AFF2090EBAE80F0013F0010F18BFC3
:1001C000FB1A43F001031847582900007829000062
:1001D000103A24BF78C878C1FAD8520724BF30C873
:1001E00030C144BF04680C60704700000023002445
:1001F00000250026103A28BF78C1FBD8520728BF37
:1002000030C148BF0B6070471FB502F078FC1FBDBE
:1002100010B510BD00F0A8F81146FFF7F5FF02F089
:1002200003FC00F0C6F803B4FFF7F2FF03BC00F0D4
:10023000CDF800000948804709480047FEE7FEE77F
:10024000FEE7FEE7FEE7FEE7FEE7FEE7FEE7FEE786
:1002500004480549054A064B704700003D28000840
:100260009501000808030020080900200805002067
:100270000805002053EA020C00F069802DE9F04BDC
:100280004FF00006002B1FBFB3FA83F503FA05F405
:1002900024FA05F65E4012BF1643B2FA82F502FA5E
:1002A00005F4C5F120051EBF22FA05FC44EA0C0442
:1002B000203556EA044C4FEA144418BF641C4FF032
:1002C00000084FF00009904271EB030C39D300296C
:1002D00019BFB1FA81F701FA07F6B0FA80F700FA10
:1002E00007F6C7F120071EBF20FA07FC46EA0C06F6
:1002F0002037B6FBF4FCA7EB0507103F07F01F0BF8
:10030000CBF120062CFA06F60CFA0BFB44BFB346E1
:100310000026202FA4BF5E464FF0000B5BEA060CC0
:1003200008BF4FF0010B19EB0B0948EB0608ABFBBC
:10033000027C06FB02CC0BFB03CCC01B71EB0C0157
:10034000C1E70B46024641464846BDE8F08B13B56F
:100350004FF000004FF00001AFF30080BDE81C40FB
:100360007047704770477047754600F02BF8AE46EF
:1003700005006946534620F00700854618B020B5B1
:10038000FFF766FFBDE820404FF000064FF0000782
:100390004FF000084FF0000BAC46ACE8C009ACE8E9
:1003A000C009ACE8C009ACE8C00921F007018D46DE
:1003B000704710B50446AFF300802046BDE81040FA
:1003C000FFF731BF00487047900000200149182016
:1003D000ABBEFEE72600020070470000FEE700000B
:1003E000F0B540F2640C4FEA102E1024C2F2000C5B
:1003F0008CF804008CF805E04FEA104E8CF806E00B
:100400004FEA106E8CF807E04FEA112E8CF80810B6
:100410008CF809E04FEA114E8CF80AE04FEA116EB1
:100420008CF80BE04FEA122E8CF80C208CF80DE0C3
:100430004FEA124E8CF80EE04FEA126E8CF80FE085
:100440004FEA132E8CF810308CF811E04FEA134E5F
:100450008CF812E04FEA136E8CF813E08CF803402E
:100460009CF800409CF801509CF8026025442C4404
:1004700035442C4410352C4405442C4405EB102500
:100480002C4405EB10452C4405EB10600444084453
:10049000044400EB1120044400EB1140044400EB41
:1004A000116001191044471800EB122000EB1244B0
:1004B000384404EB12622044D518104405EB13268F
:1004C000284406EB134330445EFA83F11844084491
:1004D0008CF814108CF8150041F20000C4F20100F1
:1004E000016811F0400FFBD09CF80010416000BF84
:1004F000016811F0400FFBD09CF80110416000BF73
:10050000016811F0400FFBD09CF80210416000BF61
:10051000016811F0400FFBD09CF80310416000BF50
:10052000016811F0400FFBD09CF80410416000BF3F
:10053000016811F0400FFBD09CF80510416000BF2E
:10054000016811F0400FFBD09CF80610416000BF1D
:10055000016811F0400FFBD09CF80710416000BF0C
:10056000016811F0400FFBD09CF80810416000BFFB
:10057000016811F0400FFBD09CF80910416000BFEA
:10058000016811F0400FFBD09CF80A10416000BFD9
:10059000016811F0400FFBD09CF80B10416000BFC8
:1005A000016811F0400FFBD09CF80C10416000BFB7
:1005B000016811F0400FFBD09CF80D10416000BFA6
:1005C000016811F0400FFBD09CF80E10416000BF95
:1005D000016811F0400FFBD09CF80F10416000BF84
:1005E000016811F0400FFBD09CF81010416000BF73
:1005F000016811F0400FFBD09CF81110416000BF62
:10060000016811F0400FFBD09CF81210416000BF50
:10061000016811F0400FFBD09CF81310416000BF3F
:10062000016811F0400FFBD09CF81410416000BF2E
:10063000016811F0400FFBD09CF815104160F0BD2F
:10064000704700004FF4805000F05AB872B600BFF7
:10065000FEE7000070B50446A66D00F043F90546BC
:1006600094F83500022825D12068016821F0160190
:100670000160416921F080014161216C09B9A16CDF
:1006800019B1016821F008010160016821F0010140
:10069000016000E02068006810F0010F0ED000F04B
:1006A00021F9401B0528F5D920206065032084F836
:1006B00035000CE080206065012008E0E06D3F21FE
:1006C00001FA00F0B060012084F83500002000211C
:1006D000C0B284F8341070BD90F8351002291FBFE5
:1006E0008021416501207047052180F835100068A0
:1006F000016821F00101016000207047704700008F
:1007000043F61441C4F201010A6802421CBF0860AA
:10071000FFF7F4BF704700002DE9F04F82B041F2BF
:100720000002072743F6004B4FF0010E002500247E
:100730004FF00008C4F20202C4F2010B904200F133
:100740003E4202F1FF7208BF04274FEAB223042B96
:1007500038BF4FEAB22700970AE000BF08F101084E
:1007600004350234B8F1100F04BF02B0BDE8F08FB9
:100770000E680EFA08FC16EA0C0FEFD0D1F80490C0
:1007800009F0030AAAF10106012E17D8D0F808E0F3
:10079000CB68032202FA04F62EEA0606A3404FF0C5
:1007A000010E33438360C9F30013466803FA08F36C
:1007B00026EA0C063343436003E000BFBAF1030F9F
:1007C00023D0C6680322BAF1020F02FA04F326EA24
:1007D00003038E6806FA04F643EA0603C36014D1E5
:1007E00005F01C030F2202FA03F64FF6FC72C7F65F
:1007F000FF7202EA58020244176AB7430E6906FA0A
:1008000003F33B431362D1F804900768032309F014
:10081000030219F4403F03FA04F302FA04F227EA50
:10082000030342EA0302026098D0002205F00C079D
:100830000F26019243F64402BE40C4F20202134660
:100840001A6842F480421A601A6802F480420192E7
:1008500028F00302019B5A444FF60843CFF6FF737A
:10086000994652F80930B343009E06FA07F73B4316
:1008700042F80930DBF808204B6822EA0C0213F436
:10088000801F18BF42EA0C0213F4001FCBF80820A7
:1008900043F60C42C4F201021646326822EA0C0208
:1008A00018BF42EA0C0213F4003F3260DBF8042068
:1008B00022EA0C0218BF42EA0C0213F4803FCBF884
:1008C0000420DBF8002022EA0C0218BF42EA0C02E6
:1008D000CBF8002042E70000002A08BF090481612C
:1008E0007047000040F20000C2F2000080687047CC
:1008F00040F20000C2F20000017882681144816079
:100900007047000080B543F60040C4F20200016861
:1009100041F400710160016841F480610160016887
:1009200041F480710160032000F088F80F2000F08E
:1009300005F800F025F8002080BD000070B540F2F9
:10094000000604464FF47A71C2F200063078B1FB1B
:10095000F0F040F28401C2F200010968B1FBF0F04E
:1009600000F078FB01250F2C08D838B94FF0FF3084
:1009700021460022002500F02FF87460284670BD43
:1009800082B043F6400100200190C4F202014A689F
:1009900042F480424A604A6802F480420192019A1D
:1009A0000090086840F080500860086800F08050AF
:1009B0000090009802B070470028B8BF704700F060
:1009C0001F010122400902FA01F14EF20012CEF29B
:1009D000000242F82010704710B500F00F034EF6E9
:1009E0000C5E00F1604CB0F1FF3FA3F10403CEF2C6
:1009F000000E734403F10C04C8BF0CF56444DEF828
:100A00000000C0F3022000F1040CC31E80F00700B8
:100A1000BCF1070F4FF0010C38BF0023042828BF9A
:100A200004200CFA00F0013808400CFA03F10F31F1
:100A30009840114008430001207010BD4EF60C5143
:100A40004FF6FF03CEF200010A681A4060F30A2253
:100A500042F0806040F0FD70086070472DE9F04181
:100A600004460D46002C00F0A78043F60808C4F2A7
:100A70000208D8F8F80300F00700A84208D288F866
:100A8000F853D8F8F80300F00700A84240F094802B
:100A9000206810F0020F17D0410742BFD8F80010AD
:100AA00041F4E051C8F80010010742BFD8F8001027
:100AB00041F46041C8F80010D8F80010A26821F095
:100AC000F0011143C8F80010C00734D06068811EDF
:100AD000022905D258F8081C11F0007F6CD00CE0F8
:100AE000012805D158F8081C11F4003F64D004E037
:100AF00058F8081C11F0020F5ED0D8F8001021F051
:100B000003010843C8F80000FFF7ECFE064641F277
:100B1000883700BFD8F80000616800F00C00B0EB27
:100B2000810F08D0FFF7DEFE801BB842F2D9032008
:100B3000C0B2BDE8F081D8F8F80300F00700A84281
:100B400007D988F8F853D8F8F80300F00700A8424E
:100B500032D1206810F0040F07D0D8F80010E268F6
:100B600021F4E0511143C8F80010000708D5D8F867
:100B70000000216920F4604040EAC100C8F800008C
:100B800000F046F8D8F8001042F60832C0F600022D
:100B9000C1F30311515CC84040F28401C2F200016C
:100BA000086040F20400C2F200000068FFF7C6FED1
:100BB0000020C0B2BDE8F0810120C0B2BDE8F081E4
:100BC00040F2840043F6080142F61832C2F20000F7
:100BD000C4F20201C0F6000200680968C1F3822174
:100BE000515CC8407047000040F2840043F60801A1
:100BF00042F61832C2F20000C4F20201C0F600024E
:100C000000680968C1F34231515CC8407047000078
:100C100010B543F60404C4F20204606800F00C004E
:100C200008280BD004281EBF42F20040C0F2F40096
:100C300010BD47F64000C0F27D1010BD226820684C
:100C400047F640010023C0F27D1110F4800F02F03E
:100C50003F0204BF42F20041C0F2F4012068C0F339
:100C60008810A1FB0001FFF705FB21680222C1F3F8
:100C7000014102EB4101B0FBF1F010BD2DE9F0475D
:100C800082B00446002C3FD0207843F6000A43F699
:100C90007007C4F2020AC4F20207C0073FD057F837
:100CA000680C00F00C00042830D057F8680C00F0F5
:100CB0000C00082804D157F86C0C10F4800F25D1D3
:100CC0006668B6F5803F09D0DAF80000B6F5A02FC7
:100CD00040F0728140F48020CAF80000DAF8000089
:100CE00040F48030CAF80000FFF7FCFD054600BF65
:100CF000DAF8000010F4003F11D1FFF7F3FD401BBC
:100D00006428F5D9032098E1012096E1DAF8000083
:100D100010F4003F03D06068002800F0D4802078F1
:100D200040F20008C4F24728800737D557F8680C0E
:100D300010F00C0F20D057F8680C00F00C000828B9
:100D400004BF57F86C0C10F4800F15D0E068002831
:100D500000F0A5800120C8F80000FFF7C3FD05469C
:100D6000DAF8000010F0020F0FD1FFF7BBFD401BB7
:100D70000228F5D9032060E1DAF8000010F0020F34
:100D80001CBFE068012840F08880DAF80000216983
:100D900020F0F80040EAC100CAF8000020780007FF
:100DA00025D5606988B10120C8F8800EFFF79AFD4B
:100DB000054600BF786810F0020F18D1FFF792FDCA
:100DC000401B0228F6D9032037E10020C8F8800E26
:100DD000FFF788FD054600BF786810F0020F06D0C7
:100DE000FFF780FD401B0228F6D9032025E120787B
:100DF000400740F18C8057F8300C4FF0000910F09C
:100E0000805F0FD1CDF804904FF0010957F8300CF6
:100E100040F0805047F8300C57F8300C00F080500C
:100E20000190019843F60006CFF6FE765AF80600C8
:100E300010F4807F14D15AF8060040F480704AF80C
:100E40000600FFF74FFD05465AF8060010F4807FB4
:100E500006D1FFF747FD401B0228F5D90320ECE03F
:100E6000A668012E05D03868052E2ED140F004006A
:100E70003860386840F001003860FFF733FD054600
:100E800041F28836386810F0020F37D1FFF72AFD9B
:100E9000401BB042F6D90320CFE00120CDE0002076
:100EA000C8F80000FFF71EFD054600BFDAF8000095
:100EB00010F0020F3FF472AFFFF714FD411B032047
:100EC0000229F3D9B9E00120B7E020F00100386031
:100ED000386820F004003860FFF704FD0546002E56
:100EE000CED141F28836386810F0020F06D0FFF7F5
:100EF000F9FC411B0320B142F5D99EE0B9F1010F85
:100F000002BF57F8300C20F0805047F8300CA6692B
:100F1000002E00F0918057F8680C00F00C000828B3
:100F200003D1012E22D1012087E00020C8F8600003
:100F3000FFF7D8FC0546022E0CD100BFDAF80000FE
:100F400010F0007F55D0FFF7CDFC411B0320022994
:100F5000F4D972E0DAF8000010F0007F6CD0FFF7EF
:100F6000C1FC411B03200229F4D966E057F86C0C40
:100F7000E16900F480028A4263D1216A00F03F02F5
:100F80008A4260D1626A47F6C0710140B1EB821FAC
:100F90005BD1A16A4FF6FF72C903914300F440325E
:100FA000A1F580318A4252D1E16A00F07060B0EB65
:100FB000016F41D0012040E020F48030CAF80000E9
:100FC000DAF8000020F48020CAF80000FFF78AFC5D
:100FD0000546002E7FF48CAEDAF8000010F4003FD6
:100FE0003FF49DAEFFF77EFC411B03206429F3D93B
:100FF00023E004F11C064FCE0843D90340EA8210D7
:101000004FF6FF72914340EA0660A1F58031084334
:1010100047F86C0C0120C8F86000FFF763FC044639
:10102000DAF8000010F0007F06D1FFF75BFC011B2F
:1010300003200229F4D900E00020C0B202B0BDE8CC
:10104000F0870120F9E70120F7E70120F5E701200B
:10105000F3E70000411E0020B0EB116F1CBF012020
:1010600070474EF21002F023CEF2000251604EF6AD
:101070002351CEF200010B70072190601160704780
:10108000704700007047000090F83C20012A02BF22
:101090000221C8B27047B0B501F10805D1E900CE10
:1010A0003CCDC96923F47C5322F470521A432EF4C8
:1010B000F0431A432CF4E0431A4324F4C0431A4388
:1010C0002A4322F48042114302685164002180F8CF
:1010D0003C10BDE8B040C8B27047000090F83C300A
:1010E0000222012B43D010B5012380F83C3080F858
:1010F0003D200268D2F804E0D2F808C00C682EF057
:1011000070032343536040F6FF33C4F200039A4256
:10111000BDE810400FDCB2F1804F1EBF40F200432B
:10112000C4F200039A4217D040F60003C4F2000351
:101130009A4211D015E040F60043C4F200039A42EF
:101140001EBF44F20003C4F201039A4204D00023FC
:10115000C4F201039A4204D149682CF08003194378
:1011600091600121002280F83D1080F83C20D0B22F
:101170007047000090F83D1001291CBF0120704706
:10118000022180F83D100068C16841F00101C16092
:1011900040F6FF31C4F2000188420FDCB0F1804F0D
:1011A0001EBF40F20041C4F20001884217D040F651
:1011B0000001C4F20001884211D017E040F600415E
:1011C000C4F2000188421EBF44F20001C4F20101D2
:1011D000884204D00021C4F20101884206D181680E
:1011E00001F00701062904BF00207047016841F0A3
:1011F00001010160002070472DE9F04F81B00446E5
:101200000D46002C02BF012001B0BDE8F08F94F81C
:101210003D0028B9002084F83C00204600F0B2F8D8
:10122000022044F2070240F2FF7340F2000C84F8FF
:101230003D00C4F20003C4F2010C206881689842AA
:1012400021EA0201816002680ADD40F60001C4F271
:101250000001884218BF60450BD040F6004104E011
:10126000B0F1804F05D040F20041C4F20001884245
:1012700003D1A16822F070020A434FF6FF71C4F255
:101280000001884207DC984210DCB0F1804F26D084
:1012900040F2004112E044F2FF31C4F20101884201
:1012A00011DC60451BD044F2000114E040F600015F
:1012B000C4F20001884212D040F60041C4F200019D
:1012C00088420CD00FE044F60001C4F201018842CC
:1012D00005D044F20041C4F20101884203D12169E2
:1012E00022F440720A43E168A369604505F10C0AE3
:1012F000C1626168816222F0800141EA030204BF99
:101300006169CCF83010016841F0040101600121ED
:10131000416102608268D0F818E0036A009395E8A2
:1013200008099AE84006D5E9067C1A432B6A4BEA7D
:10133000072782604FF6FF722EEA020232434FF611
:10134000FC46B7433A4342EA0C2242EA091242EA17
:1013500003328261009A22F0AA0242EA080242EABB
:101360000A12026284F8461084F83E1084F83F1096
:1013700084F8421084F8431084F83D10002001B036
:10138000BDE8F08F2DE9F04186B000210591CDE94F
:101390000311CDE90111006800F140404FEAB0218E
:1013A000032900F29E8040F2004843F63000C4F268
:1013B0000208C4F20200DFE801F00239507300268F
:1013C00001AD022701240096016941F0010101618C
:1013D000016901F00101009100990096016841F056
:1013E00001010160016801F001010091009900967E
:1013F000016841F0020101602946006800F0020026
:10140000009000984FF400400190A8F58060CDE96D
:10141000027604960594FFF77FF908202946CDE966
:101420000107CDE903660594404634E000210091B0
:10143000026942F002020261026902F002020092B5
:10144000009A0091026842F002020260006800F017
:10145000020000900098302015E000210091026900
:1014600042F004020261026902F004020092009A52
:101470000091026842F002020260006800F002007F
:1014800000900098C02001900220CDE90201CDE932
:10149000041001A94046FFF73FF906B0BDE8F0810E
:1014A00000210091026942F008020261026902F023
:1014B00008020092009A0091026842F00102026064
:1014C000006800F0010000900098032001900220C5
:1014D000CDE90201CDE90410A8F5806001A9FFF76C
:1014E0001BF906B0BDE8F08110B590F83E4090F8C9
:1014F0003F3090F842E090F843C0012204290BD01D
:10150000A9B9012C08BFBEF1010F41D1022180F819
:101510003E1080F842102CE0012B08BFBCF1010FF7
:1015200036D1022180F83F1080F843101DE0012CD5
:1015300008BF012B2CD1BEF1010F08BFBCF1010F78
:1015400026D10222002980F83E2080F83F2080F832
:10155000422080F843200CD001680A6A22F0010280
:101560000A620A6A42F001020A6210216FF0100258
:1015700002E001216FF001020068036A1A40026272
:10158000026A114300220162016841F00101016019
:10159000104610BD70470000B0B504462068C16811
:1015A000026901EA0205A90714D56FF00201016181
:1015B00001212177806910F0030F03D02046FFF747
:1015C000E9FF05E0204600F075F8204600F03CFAFF
:1015D00000202077680715D520686FF004010161AD
:1015E00002212177806910F4407F03D02046FFF765
:1015F000D1FF05E0204600F05DF8204600F024FA17
:1016000000202077280715D520686FF008010161B8
:1016100004212177C06910F0030F03D02046FFF7A3
:10162000B9FF05E0204600F045F8204600F00CFA2E
:1016300000202077E80615D520686FF010010161C1
:1016400008212177C06910F4407F03D02046FFF7BE
:10165000A1FF05E0204600F02DF8204600F0F4F947
:1016600000202077E80706D020686FF001010161B3
:10167000204600F053FA280606D520686FF0800156
:1016800001612046FFF7FCFC680606D520686FF074
:1016900040010161204600F0D3FAA80658BFB0BD52
:1016A00020686FF0200101612046BDE8B040FFF7DF
:1016B000E9BC00007047000090F83C30012B02BFED
:1016C0000223D8B270474FEAB2020123032A80F8FE
:1016D0003C3000F2E5802DE9F04140F2000CC4F20C
:1016E000010CDFE802F0023870AA0268146A136A7B
:1016F000624523F0010324F0020413621346D2F87A
:1017000004E053F8185F8F680E6825F0730544EA0B
:10171000070445EA06050ED1D1F80CC0D1E90587CA
:101720002EF4407624F00C0446EA080646EA070E3A
:101730002CF004073C43C2F804E095614F685763FE
:101740001462976947F008079761976927F00407C3
:10175000976109699EE00268146A136A624523F082
:10176000100324F0200413621346D2F804E053F867
:10177000185F8F680E6825F4E64544EA071445EAC9
:10178000062511D1D1F80CC0D1E905872EF44066A9
:1017900046EA880646EA870E6FF04F0606EA0C17FF
:1017A00024F0C00647EA0604C2F804E095614F68D9
:1017B00097631462976947F400679761976927F404
:1017C0008067976164E00268146A136A624523F4D3
:1017D000807324F4007413621346D2F804E053F8C3
:1017E0001C5F8F680E6825F0730544EA072445EAFC
:1017F000060512D1D1F80CC0D1E905872EF4405668
:1018000046EA081646EA071E4FEA0C2740F2FF4652
:10181000B74324F4406647EA0604C2F804E0D56101
:101820004F68D7631462D76947F00807D761D76953
:1018300027F00407D76109692CE00268176A136A68
:10184000624523F4805327F4005713621346D2F8FD
:10185000048053F81C4F8D680E6824F4E64447EA70
:10186000053E44EA062402BF4F6928F4804646EA52
:101870008718C2F80480D4614F681764C2F820E06A
:10188000D76947F40067D761D76927F48067D761C4
:10189000096909021A68114319600023BDE8F04183
:1018A000002180F83C10D8B27047000010B5044603
:1018B000002C04BF012010BD94F83D0028B9002081
:1018C00084F83C00204600F089F8022040F2FF73C3
:1018D00040F2000C84F83D00C4F20003C4F2010C95
:1018E0002068026898420ADD40F60001C4F2000157
:1018F000884218BF60450BD040F6004104E0B0F1CB
:10190000804F05D040F20041C4F20001884203D16B
:10191000A16822F070020A434FF6FF71C4F2000181
:10192000884207DC984210DCB0F1804F26D040F2AC
:10193000004112E044F2FF31C4F20101884211DC9F
:1019400060451BD044F2000114E040F60001C4F2EF
:101950000001884212D040F60041C4F200018842E2
:101960000CD00FE044F60001C4F20101884205D01A
:1019700044F20041C4F20101884203D1216922F4FA
:1019800040720A43E168A3696045C162616881628F
:1019900022F0800141EA030204BF6169CCF83010F3
:1019A000016841F0040101600121416102600020F1
:1019B00084F8461084F83E1084F83F1084F84010F4
:1019C00084F8411084F8421084F8431084F84410DD
:1019D00084F8451084F83D1010BD000080B582B039
:1019E000016844F2000243F64400C4F20102C4F26A
:1019F000020091421AD00022C4F20102914220D189
:101A0000002100220191016841F0010101600021E3
:101A1000006800F00100019001981920FEF7DCFF3A
:101A2000192002B0BDE88040FEF7C6BF002100913A
:101A3000016841F480310160006800F4803000905A
:101A4000009802B080BD00007047000039B1032249
:101A5000082908BF0222042908BF012200E0002251
:101A6000024492F83E20012A1CBF01207047022246
:101A700041B1082909D0042914BF80F8412080F819
:101A80003F2004E080F83E2001E080F8402000681C
:101A900001F01F01012202FA01F1026A8A43026287
:101AA000026A1143016240F6FF31C4F2000188422C
:101AB0000FDCB0F1804F1EBF40F20041C4F20001C4
:101AC00088421ED040F60001C4F20001884218D0BE
:101AD0001EE040F60041C4F2000188421EBF44F2FD
:101AE0000001C4F2010188420BD00021C4F20101BF
:101AF00088420DD14421C4F201010A6842F4004237
:101B00000A60816801F00701062904BF00207047C0
:101B1000016841F00101016000207047B0B540F25A
:101B20001011C2F20001884277D140F20815C2F2CA
:101B30000005287860B100F01DFE00F00DFE40F2B7
:101B400058100021C2F2000000684162297004E0D0
:101B500040F25810C2F200000068416A40F250049E
:101B60000022C2F200042180426288B240426080BA
:101B7000616801FA80F06060E168421A48BF524231
:101B8000632A05DC002000F071FD0120287044E08C
:101B9000002200F095FD00EE100A4FF609514FF6B5
:101BA00019450022B8EEC00ACFF6FF71CFF6FF75D7
:101BB000BDEEC00A10EE100A884240F2F721D8BFED
:101BC00005F1F0008842A8BF084600EE100AB8EE02
:101BD000C00ABDEEC00AB4F9020010EE101A00F0FF
:101BE00039FA00EE100AB8EEC00ABDEEC00A10EED7
:101BF000100AA842C8BF054640F2E7308542A8BF98
:101C0000054600EE105AB8EEC00ABDEEC01A84EDCB
:101C1000020A11EE100A00F029FD40F25000C2F253
:101C2000000090ED040AB0F90220C1684068BDEEE2
:101C3000C00A10EE103ABDE8B040FEF7D1BB00007C
:101C4000704700007047000070470000F0B581B099
:101C5000044620680168C268456901F02F0602F059
:101C60002003202E06D12BB1204601B0BDE8F04064
:101C700000F0FABD5FEA017C08D005F0010E12F415
:101C8000907F8EF0010558D1002D56D01140CA0624
:101C9000226B3CD5012A3AD10021009101680091C4
:101CA000416800910099416911F0400F40F0D580E2
:101CB000A18DE28DE38D002B00F04781891A89B256
:101CC00009B942E1206850E8030F226820F49070BF
:101CD00042E80303002BF5D1206850E8050F226885
:101CE00020F0010042E80503002BF5D1202084F804
:101CF00042000020206300BF206850E8030F2268E4
:101D000020F0100042E80303002BF5D107E10A069A
:101D100040F1EA8094F84110212940F01681A16831
:101D2000B1F5805F04BF2169002900F00081216ABC
:101D30004A1C22620978416000E1CE0706D012F405
:101D400080761EBF666C46F00106666401F00407EB
:101D5000012686EA97072F4302BF676C47F0020708
:101D6000676401F0020786EA5706354302BF656CD7
:101D700045F00405656453EA0E0318BF0123BCF166
:101D8000000F05D5012B02BF636C43F008036364A9
:101D9000636C002B00F0D9801140890603D52046E2
:101DA00000F062FD20684169626C01F0400102F0C0
:101DB0000802114307D12046FFF746FF0020606468
:101DC00001B0F0BD206850E8030F216820F4907046
:101DD00041E80302002AF5D1206850E8050F216888
:101DE00020F0010041E80502002AF5D1206B01280E
:101DF0000AD100BF206850E8030F216820F01000CE
:101E000041E80302002AF5D1202084F84200002096
:101E100020632068416911F0400F02D173E000BFD8
:101E2000206850E8050F216820F0400041E80502D5
:101E3000002AF5D1E06B002865D042F65D01C0F6BE
:101E400000010165FEF748FC002800F07E80E06B91
:101E5000016D01B0BDE8F0400847E36B19684D68BB
:101E6000A28DA9B2002954D0914252D2E585D969F8
:101E7000B1F5807F01D131E0206850E8030F21687F
:101E800020F4807041E80302002AF5D1206850E870
:101E9000050F216820F0010041E80502002AF5D174
:101EA000206850E8050F216820F0400041E8050255
:101EB000002AF5D1202084F842000020206300BFD2
:101EC000206850E8030F216820F0100041E8030269
:101ED000002AF5D1E06BFEF7BDFBA28D0220606306
:101EE000E08D101A81B21CE049062ED5C16821F0A0
:101EF0004001C160202084F84100204601B0BDE8C7
:101F0000F04000F0A3B8204601B0BDE8F040FFF774
:101F10009BBE8A4204BFD869B0F5807F15D10220EC
:101F20006063204601B0BDE8F040FFF78BBE216A38
:101F300031F8022B6FF35F2242602162E18C4FF691
:101F4000FF7201391142E18401D001B0F0BDC168D6
:101F500021F08001C160C16841F04001C16001B061
:101F6000F0BD000010B50446002C04BF012010BDD8
:101F700094F8410028B9002084F84000204600F081
:101F800021F8242084F841002068C16821F4005120
:101F9000C160204600F0CEFC2068016921F4904128
:101FA0000161416921F02A014161C16841F4005198
:101FB000C16000202021606484F8411084F8421040
:101FC000606310BD80B586B000210591CDE9031195
:101FD000CDE90111026841F20000C4F20100824221
:101FE00001D006B080BD43F63002009100F570408C
:101FF000C4F20202536943F010035361536903F0C2
:1020000010030093009B0091136843F001031360D9
:10201000126802F001020092009A4FF4C06201922D
:102020000222CDE90221032104910721059101A992
:10203000FEF772FB252000210022FEF7CDFC2520B3
:10204000FEF7BAFC06B080BD704700007047000084
:10205000FEE70000012A0DD140F20C110020C2F26F
:102060000001086040F21001C2F20001C1E9020063
:1020700008617047081A40F21001B8EE006A00EEDD
:10208000100AC2F2000140F20C10B8EEC00AC2F20F
:10209000000081ED020AD0ED000AF0EE401A91ED49
:1020A000031A91ED0C4A91ED042A91ED0B3A91ED52
:1020B0000D5A41EE061A81ED041A30EE417A24EEF3
:1020C000004A03EE074A31EE822A05EE024A30EE5C
:1020D000842A80ED002ABDEEC21A81ED030A11EEBA
:1020E000100A70472DE9F04387B043F63000002412
:1020F00040F2000800224FF4005706940194C4F205
:102100000200C4F20208016808F5006541F004010C
:102110000160016801F004010191019901940168D5
:1021200041F080010160016801F080010191019995
:102130000194016841F001010160016801F00101B1
:10214000019101990194016841F0020101604FF48D
:102150000051006800F00200019001982846FEF747
:10216000BBFB404650210022FEF7B6FB4046A021B3
:1021700001224FF00109FEF7AFFB08F580664FF42E
:10218000A04100223046FEF7A7FB30464FF4204125
:102190000122FEF7A1FBCDE9027902AF2846CDE985
:1021A00004443946FEF7B8FAF0203946CDE9020971
:1021B0004046CDE90444FEF7AFFA4FF4704039468B
:1021C000CDE902093046CDE90444FEF7A5FA4FF403
:1021D0008050394602904FF48810CDE903094046FB
:1021E000FEF79AFA282000210022FEF7F5FB2820AE
:1021F000FEF7E2FB07B0BDE8F083000070B598B0D1
:10220000002440F21010002540F2473240F2E7333C
:10221000C4F20204C2F200001195CDE90F55CDE9D8
:102220000D55CDE90B55CDE90955CDE90755CDE95A
:102230000555CDE90355CDE90155A4F5803180E878
:102240002600C0E90335C0E90555FFF72FFB00283C
:1022500018BFFEF7FBF940F2101010A9CDE9105598
:10226000C2F20000FEF73AFF002818BFFEF7EEF9B1
:10227000602009A9002209900020CDE90E00CDE9D7
:102280000C00CDE90A0040F21010C2F20000FFF786
:1022900013FA002818BFFEF7D9F940F2101009A967
:1022A0000C22C2F20000FFF707FA002818BFFEF761
:1022B000CDF940F2101500264FF4005001A9C2F2EA
:1022C00000050596CDE90366CDE9016606900896FE
:1022D0002846FEF7D9FE002818BFFEF7B7F9179673
:1022E000CDE91566CDE9136644F2000243F63000ED
:1022F0002968C4F20102C4F2020091421ED00022F9
:10230000C4F20102914230D100211291026842F0E0
:1023100001020260006800F00100129012984FF470
:10232000106013900220CDE914010120169113A929
:1023300017902046FEF7F0F918B070BD00211291F9
:10234000026842F001020260006800F00100129091
:1023500012980C2013900220CDE91401032016914D
:1023600013A917902046FEF7D7F918B070BD0000EA
:1023700010B58CB040F2581000244FF080414FF05F
:10238000FF32C2F20000CDE90044C0E9001403218D
:10239000C0E9024204618461CDE903140121CDE961
:1023A0000514CDE90744CDE9091403A90B94FEF700
:1023B00023FF002818BFFEF749F940F2581069467C
:1023C000CDE90044C2F20000FEF788FE002818BFE5
:1023D000FEF73CF90CB010BD10B58CB040F2A01067
:1023E00040F2004100244FF6FF72C2F20000C4F236
:1023F0000001CDE90044C0E900140321C0E9024214
:1024000004618461CDE903140121CDE90514CDE90E
:102410000744CDE9091403A90B94FEF7EDFE00284B
:1024200018BFFEF713F940F2A0106946CDE9004449
:10243000C2F20000FEF752FE002818BFFEF706F9B0
:102440000CB010BD10B58CB040F2E81040F60001A1
:1024500000244FF6FF72C2F20000C4F20001CDE981
:102460000044C0E900140321C0E902420461846110
:10247000CDE903140121CDE90514CDE90744CDE9E7
:10248000091403A90B94FEF7B7FE002818BFFEF746
:10249000DDF840F2E8106946CDE90044C2F20000E0
:1024A000FEF71CFE002818BFFEF7D0F80CB010BDD8
:1024B00010B58CB040F2302040F6004100244FF0BF
:1024C000FF32C2F20000C4F20001CDE90044C0E9CD
:1024D00000140321C0E9024204618461CDE90314C0
:1024E0000121CDE90514CDE90744CDE9091403A97B
:1024F0000B94FEF781FE002818BFFEF7A7F840F204
:1025000030206946CDE90044C2F20000FEF7E6FD46
:10251000002818BFFEF79AF80CB010BDB0B58EB009
:10252000002440F27820002540F2473240F2E733A1
:10253000C4F20204C2F200000795CDE90555CDE9C9
:102540000355CDE90155A4F5404180E82600C0E9D6
:1025500003358561FFF7AAF9002818BFFEF776F862
:10256000602001A90022CDE9010540F27820039501
:102570000595C2F20000FFF79FF8002818BFFEF78C
:1025800065F840F2782501A90422C2F20005284628
:10259000FFF792F8002818BFFEF758F8002044F221
:1025A000000343F630010D90CDE90B00CDE90900A1
:1025B000C4F20103C4F202012A689A421ED000202C
:1025C000C4F2010082422FD1002008900A6842F034
:1025D00001020A60096801F00101089108994FF4AD
:1025E000106109910221CDE90A100C90012009A97E
:1025F0000D902046FEF790F80EB0B0BD08900A6826
:1026000042F001020A60096801F00101089108998D
:102610000C2109910221CDE90A100C90032009A98F
:102620000D902046FEF778F80EB0B0BD80B540F2B0
:10263000C02041F200014FF4E13200234FF00C0CB6
:10264000C2F20000C4F2010180E80E00C0E90333C9
:10265000C0E905C3C361FFF785FC00281CBFBDE8C6
:102660008040FDF7F3BF80BDFEE70000B0B540F24B
:10267000004504464FF48041C4F20205002C284670
:1026800009DB0122FEF728F928464FF40041002219
:10269000FEF722F909E00022FEF71EF928464FF462
:1026A00000410122FEF718F9644240F21010C2F214
:1026B000000000684463B0BDFEE700007047000002
:1026C000012A08D140F2F0010020C2F20001C1E964
:1026D00000008860704740F21002081A40F2F00CC7
:1026E00041F28831C2F20002C2F2000C04EE100A7C
:1026F0001368CCF8000003448B42B8BF19464EF66D
:102700007843CFF6FF739942D8BF1946116003EEA4
:10271000101ADCF8041092ED091A92ED080A92EDF5
:102720000A2AB8EEC33AB8EEC44A411A21EE031A97
:1027300000EE041A00EE101AB8EEC00A02EE001AFB
:10274000BDEEC10A8CED020ABDEEC10ACCF8040050
:1027500010EE100A7047000040F20C100021C2F287
:102760000000016040F21000C2F20000C0E9021156
:102770000161704740F2F0000021C2F20000C0E9A0
:102780000011816040F21000C2F200000160704749
:1027900070470000FEF7ACB8B0B592B043F6400009
:1027A000002402250B94CDE90944CDE907440594A2
:1027B000CDE90344CDE901440094C4F2020001686C
:1027C00041F080510160006800F080500090009856
:1027D000009447F20000C4F20000016865F38F31F5
:1027E0000160006800F440400090009806950120C8
:1027F000099010200A900820CDE90C540E90542026
:10280000CDE90F050420119006A8FEF737FA10B1A4
:1028100072B600BFFEE70F200221CDE901054FF49B
:1028200080500394CDE9040401A8FEF717F90028AD
:1028300004BF12B0B0BD72B6FEE700004EF688507D
:10284000CEF20000016841F47001016070470000A1
:1028500040F21010C2F20000FEF79EBE806B002115
:10286000C185FFF7F1B9000090F84210222918BF86
:1028700070478368B3F5805F06D1026900F12801D3
:10288000A2B1D1F800C008E00146002B51F828CFD2
:1028900001D103690BB17F2300E0FF230268526876
:1028A0001A4001238CF800200A6806E00368826A57
:1028B0005B686FF35F23138002231A440A604FF6AC
:1028C000FF72C18D01391142C18500D07047016886
:1028D000CA6822F02002CA60CA6822F48072CA6004
:1028E0004A6922F001024A61202280F84220002237
:1028F0004263036B012B18BFFFF7A6BB026300BF47
:1029000051E8031F026821F0100142E80313016837
:10291000002BF5D10A6812F0100F08D081B0002208
:1029200000920A68009249680091009901B0818D77
:10293000FFF788B9B0B5044649F20C652068016913
:10294000E26821F4405111430161D4F808C0D4E990
:102950000423D4F81CE0C16842EA0C02A9431A43DC
:1029600042EA0E021143C1604169A26921F440713B
:102970001143416141F2004140F48060C4F2010121
:10298000884202D1FEF730F901E0FEF719F9E26959
:1029900063681921A0FB0101B2F5004F1CD15A0058
:1029A000DB0FFDF767FC48F21F51C5F2EB11A0FBEE
:1029B00001235A096FF0630302FB0300322303EB88
:1029C000C000A0FB01014FF4F87000EA1110C1F340
:1029D000421100EB02101AE09A009B0FFDF74AFC2F
:1029E00048F21F51C5F2EB11A0FB01235A096FF009
:1029F000630302FB0300322303EB0010A0FB010181
:102A0000F02000EA5110C1F3431100EB021008431B
:102A100021688860B0BD000040F2C020C2F2000012
:102A2000FFF714B9FEE700002DE9F04381B0FDF790
:102A300069FFFFF7B1FEFFF755FBFFF7DFFBFFF77D
:102A400097FCFFF7C9FCFFF7FDFCFFF731FDFFF72F
:102A500065FDFFF7EBFD40F258183C21C2F200087B
:102A60004046FEF741FD40F2A0193C21C2F20009A8
:102A70004846FEF739FD40F2E8163C21C2F2000656
:102A80003046FEF731FD40F230273C21C2F200070C
:102A90003846FEF729FD40F210140021C2F200046E
:102AA0002046FEF7D3FF20460C21FEF7CFFF40F271
:102AB00078250021C2F200052846FEF7C7FF284608
:102AC0000421FEF7C3FF2846FEF754FB4046FEF7FD
:102AD00051FB4846FEF74EFB3046FEF74BFB3846AF
:102AE000FEF748FB2046FEF745FB40F2C020C2F24D
:102AF00000000068C16841F02001C160FEE74FF0AE
:102B00004070E1EE100A7047000000000000000075
:102B10000102030406070809000000000102030483
:102B2000402B00080000002090000000D0010008A9
:102B3000D02B00089000002078080000EC0100086D
:102B40000100000010000000000000000000000074
:102B50000000000000000000000000000000000075
:102B60000000000000000000000000000000000065
:102B7000E3A51B3D000000007B14AE3D0000B0400B
:102B800031084040CDCCCC3E0000000000000000E9
:102B9000000000000000000000000000F03C000009
:102BA00000000000AAFFF10000000000000000008B
:102BB0000000000000000000000000000000000015
:102BC000000000000024F4000000000000000000ED
:040000050800019559
:00000001FF
