:020000040800F2
:10000000F009002061020008C5240008AF1E0008A6
:10001000C1230008570400089D2D000800000000BF
:100020000000000000000000000000009D28000803
:10003000D104000800000000F72700089F280008EE
:100040007B0200087B0200087B0200087B0200089C
:100050007B0200087B0200087B0200087B0200088C
:100060007B0200087B0200087B0200087B0200087C
:100070007B0200087B0200087B0200087B0200086C
:100080007B0200087B0200087B02000800000000E1
:100090000000000000000000000000007B020008DB
:1000A0007B0200084D2900087B0200087B02000843
:1000B0007B0200087B0200087B0200087B0200082C
:1000C0007B0200087B0200087B0200087B0200081C
:1000D0007B020008952D00087B020008000000004C
:1000E000D30400087B0200087B0200080000000027
:1000F0000000000000000000000000007B0200087B
:10010000000000007B0200087B0200087B02000860
:1001100000000000000000000000000000000000DF
:100120007B0200087B0200087B0200087B020008BB
:100130007B0200080000000000000000000000003A
:100140000000000000000000000000007B0200082A
:100150007B0200087B0200087B0200087B0200088B
:100160007B0200087B020008000000000000000085
:10017000000000000000000000000000000000007F
:10018000000000007B0200080000000000000000EA
:100190007B02000800F002F800F052F814A696E87E
:1001A000000CB244B344DA4501D100F049F8BAE892
:1001B0000F000FA696E83000A5EB040504EB060738
:1001C000AAEB0704A7F101074FEA15154FEA34140B
:1001D000A4F10104AC4201D300F032F813F0010F96
:1001E00018BFFB1A43F0010300F001F8DBE71847E2
:1001F000802D0000A02D0000103A24BF78C878C1DF
:10020000FAD8520724BF30C830C144BF04680C601C
:1002100070470000704700000023002400250026DE
:10022000103A28BF78C1FBD8520728BF30C148BF59
:100230000B6070471FB502F081FE1FBD10B510BDE9
:1002400000F0D0F81146FFF7F5FF02F007FE00F0CE
:10025000EEF803B4FFF7F2FF03BC00F0F5F800007E
:100260000948804709480047FEE7FEE7FEE7FEE74A
:10027000FEE7FEE7FEE7FEE7FEE7FEE70448054986
:10028000054A064B704700003D290008950100080B
:10029000F0030020F0090020F0050020F005002008
:1002A00053EA020C00F069802DE9F04B4FF0000694
:1002B000002B1FBFB3FA83F503FA05F424FA05F601
:1002C0005E4012BF1643B2FA82F502FA05F4C5F198
:1002D00020051EBF22FA05FC44EA0C04203556EA2C
:1002E000044C4FEA144418BF641C4FF000084FF050
:1002F0000009904271EB030C39D3002919BFB1FA00
:1003000081F701FA07F6B0FA80F700FA07F6C7F1AD
:1003100020071EBF20FA07FC46EA0C062037B6FB72
:10032000F4FCA7EB0507103F07F01F0BCBF12006ED
:100330002CFA06F60CFA0BFB44BFB3460026202F1E
:10034000A4BF5E464FF0000B5BEA060C08BF4FF0FF
:10035000010B19EB0B0948EB0608ABFB027C06FB13
:1003600002CC0BFB03CCC01B71EB0C01C1E70B46AD
:10037000024641464846BDE8F08B13B5084318BF16
:100380004FF0FF300146AFF30080BDE81C407047DE
:100390004FF0000200B5134694469646203922BF1E
:1003A000A0E80C50A0E80C50B1F12001BFF4F7AF69
:1003B000090728BFA0E80C5048BF0CC05DF804EB4B
:1003C000890028BF40F8042B08BF704748BF20F8B9
:1003D000022B11F0804F18BF00F8012B70477047B7
:1003E00070477047754600F02BF8AE460500694629
:1003F000534620F00700854618B020B5FFF73EFFB2
:10040000BDE820404FF000064FF000074FF0000815
:100410004FF0000BAC46ACE8C009ACE8C009ACE852
:10042000C009ACE8C00921F007018D46704710B53E
:100430000446AFF300802046BDE81040FFF709BF37
:10044000004870477000002001491820ABBEFEE74D
:10045000260002007047FEE7B0B51B4C1025E57082
:100460001D0E2374227321722071E5741D0C1B0A6A
:100470006374130EA574E373130C120A62730A0EED
:10048000A373E2720A0C090A6172010EA2720022C1
:10049000E171010C000AA171607100200021142893
:1004A00004D0235C013019440A44F8E72175074958
:1004B00000206275162808BFB0BD0A685206FCD538
:1004C000225C01304A60F5E74C000020001001403A
:1004D00070474FF4805000F053B872B6FEE770B525
:1004E000866D044600F030F9054694F83500022880
:1004F00021D12068216C026822F016020260426954
:1005000022F08002426109B9A16C19B1016821F0A1
:100510000801016002F0DFF820680068C0070ED013
:1005200000F012F9401B0628F6D320206065032056
:1005300084F835000CE080206065012008E0E06D63
:100540003F2101FA00F0B060012084F8350000205E
:10055000002184F8341070BD90F83510022909D1BB
:10056000052180F835100068724602F0B4F896460E
:1005700000207047802141650120704770470000CE
:1005800003490A68024208BF70470860FFF7F6BFD8
:10059000143C01402DE9FE4F5E4A07244FF0010B49
:1005A0004FF0000C90425C4A08BF042402444FEA1A
:1005B000B223042B38BF4FEAB22400F12002019489
:1005C000009200250022102A08BFBDE8FE8F0C68AB
:1005D0000BFA02FA14EA0A0900F09780D1F804E055
:1005E000032303FA0CF40EF00308E643A8F1010418
:1005F000012C12D88468D1F80CB00BFA0CF73440F7
:100600004FF0010B3C438460CEF3001447689440E4
:1006100027EA0A073C43446005E0B8F1030F02D122
:100620004FF0030823E0C4688F68344007FA0CF7E2
:100630003C43B8F1020FC46019D105F01C040F232C
:10064000A84603FA04F76FF0030303EA520E009B77
:100650001D4653F80E30BB430F6907FA04F42343D9
:1006600045F80E304546D1F804E00EF00308046862
:1006700008FA0CF3344023431EF4403F036044D097
:100680000023284C254EA8460293236843F4804358
:10069000236023680F2403F48043029305F00C03C6
:1006A00022F00305029F35449C401F4FBE46EF5980
:1006B00027EA0404019F07FA03F3234345F80E30A9
:1006C000B3684D6843EA0904EF0258BF23EA0904FE
:1006D000134BB460AF029E461B6843EA090458BF3F
:1006E00023EA0904CEF80040AF03736843EA090423
:1006F00058BF23EA09047460ED033368454643EAB2
:10070000090458BF23EA090434600CF1020C0435D3
:10071000013258E7001002400000FEBF003C0140DB
:100720000C3C01404438024008FCFFFF426902EAE9
:100730000103914341EA034181617047002A08BFE8
:1007400009048161704700006A480068704700BF73
:1007500030B3F8B5044690F83D0020B902F01CF81B
:10076000204600F087F8242084F83D00206801F03E
:10077000C6FF016841F400410160016821F40041B5
:10078000016000F0DFF96368364A374993423CBFA5
:1007900048F28041C0F21E01884203D20120F8BD18
:1007A0000120704731494FF47A77B0FBF1F52168A9
:1007B0004E6826F03F062E434E604FF496766E4309
:1007C000934228BFB6FBF7F56A1C0D6A25F03F057A
:1007D0002A434CF6FF750A62CA69AA43244DAB420C
:1007E00007D85B00013801F0EBFF042898BF042014
:1007F00013E0A56801383DB119256B4301F0E0FF16
:1008000050B100F5804004E003EB430301F0D8FF52
:1008100010B100F5004000E00120104304F10C0687
:10082000C861E0690A6822F0C0021043226A1043DE
:1008300048F2FF320860886890436CCE184310433A
:100840008860C86820F0FF0028433043C86001F08A
:10085000C2FF00202021206484F83D10206384F82A
:100860003E00F8BDA186010000093D0040420F0096
:10087000A0860100B0B586B0044601A81421FFF798
:1008800087FD21681548814225D10025144C00F5CB
:10089000D8300095216841F002012160216801F003
:1008A000020100910421059103210491012103918A
:1008B000122102914FF440710191009901A9FFF7B3
:1008C00069FE0095206940F400102061206900F461
:1008D00000100090009806B0B0BD00BF005400406A
:1008E000303802401F48034900780A681044086005
:1008F000704700BFEC03002080B50B48016841F44D
:1009000000710160016841F480610160016841F497
:1009100080710160032000F079F80F2000F006F8E4
:1009200000F022F8002080BD003C024070B50D4E62
:1009300004464FF47A713078B1FBF0F08B490968C6
:10094000B1FBF0F000F0DEFA01250F2C08D838B921
:100950004FF0FF3021460022002500F031F874608E
:10096000284670BD0000002082B000200B49019095
:100970004A6842F480424A604A6802F48042019226
:10098000019A0090086840F080500860086800F004
:1009900080500090009802B0704700BF403802407D
:1009A000002809D41C21012201EAD00100F01F0017
:1009B00002FA00F0014A8850704700BF00E100E0F1
:1009C000F0B5184B4FF0FF361C68C4F30224E51E47
:1009D00084F0070438BF002506FA05F7BA43042C53
:1009E00028BF042406FA04F4A14300F00F04A94030
:1009F000043C1143044A234409010244002848BF2F
:100A000003F10C021170F0BD00E400E005494FF65F
:100A1000FF030A681A4060F30A2203481043086083
:100A2000704700BF0CED00E00000FA05002853D02D
:100A30002DE9F041404B0446884601F05DFD8142BE
:100A400005D983F8008401F057FD40454DD1206859
:100A5000810711D5410703D5996841F4E0519960A8
:100A6000010703D5996841F460419960A1689A68CB
:100A700022F0F00211439960C0072FD101F03CFD34
:100A8000804505D283F8008401F036FD40452CD125
:100A90002068410705D5E1689A6822F4E0521143C5
:100AA0009960000706D52069996821F4604141EA00
:100AB000C00098601C4600F05FF8A1681F4AC1F3AF
:100AC0000311515CC840294908601D480068FFF7C0
:100AD0002DFF0020BDE8F081012070476068811E75
:100AE000022905D21968890107D40120BDE8F081E7
:100AF00001281DD119688903F7D599681D4621F091
:100B0000030108439860FFF71FFE064641F288374D
:100B10006068A9682B4601F00C01B1EB800FADD0E5
:100B2000FFF712FE801BB842F2D90320BDE8F08126
:100B300019688907D9D5E0E700380240562F000828
:100B40000400002009480A490A4A00680968C1F3FC
:100B50008221515CC840704704480549054A006835
:100B60000968C1F34231515CC84070476C000020F5
:100B700008380240662F000810B5144C6068C0F3B6
:100B800081011348DFE801F00203050210BD11489E
:100B900010BD226820680023400202F03F020D4889
:100BA0005CBF42F20040C0F2F4002168C1F388113A
:100BB000A0FB0101FFF774FB21680222C1F3014190
:100BC00002EB4101B0FBF1F010BD00BF0438024060
:100BD0000024F40040787D01002864D02DE9FC4118
:100BE00004460078C44EC0070CD0B06800F00C007A
:100BF000042840F090803068800303D560680028A6
:100C000000F0A1802078800719D5B06810F00C0F93
:100C100007D001F01AFD40F099807068400200F1A1
:100C200095803068800703D5E068012840F08B800C
:100C30002069316821F0F80141EAC0003060207875
:100C4000000732D42078400742D4A76947B301F0A7
:100C5000FCFC40F0AD80012F75D0E169706800F4B4
:100C600080028A426FD1216A00F03F028A426AD133
:100C700047F6C071626A0140B1EB821F63D1A16A7D
:100C80004FF6FF72C903914300F44032A1F5803161
:100C90008A4258D1E16A00F07060B0EB016F52D126
:100CA0000020BDE8FC8101207047606900286ED0FB
:100CB00092480121C0F8801EFFF746FD0546706F7F
:100CC0008007BFD4FFF740FD401B0228F7D9C9E0D9
:100CD000306C5FEAC0080AD400200190306C40F00C
:100CE00080503064306C00F0805001900198844F47
:100CF0003868C0053DD4386840F480703860FFF72C
:100D000023FD05463868C00533D4FFF71DFD401BA1
:100D10000228F7D9A6E001F098FC03D170684002E0
:100D20003FF569AF30686168B1F5803F07D0B1F534
:100D3000A02F40F0828040F480203060306840F482
:100D40008030306082E00120BDE8FC81E1686B48C2
:100D500000294BD001210160FFF7F6FC0546306801
:100D600080073FF565AFFFF7EFFC401B0228F6D97F
:100D700078E0306FA168012905D0052946D140F0FF
:100D800004003067306F40F00100306747E05B4897
:100D90000021C0F8801EFFF7D7FC0546706F800762
:100DA0007FF550AFFFF7D0FC401B0228F6D959E081
:100DB0005249002088460866FFF7C6FC0546022F08
:100DC00009D13068800150D5FFF7BEFC411B0320DC
:100DD0000229F6D965E7306880017FF561AFFFF73A
:100DE000B3FC411B03200229F5D95AE70021016019
:100DF000FFF7AAFC0546306880077FF520AFFFF7B4
:100E0000A3FC411B03200229F5D94AE720F0010089
:100E100000293067306F20F00400306745D0FFF7BD
:100E200093FC054641F28837306F80074CD4FFF7BA
:100E30008BFC401BB842F7D914E020F48030002925
:100E40003060306820F48020306046D0FFF77CFCB2
:100E50000546306880033FF5D5AEFFF775FC401BB3
:100E60006428F6D90320BDE8FC811C341FCC08435C
:100E7000D90340EA82104FF6FF72914340EA0460C2
:100E8000A1F58031084370600120C8F86000FFF7C9
:100E90005BFC0446306880013FF502AFFFF754FC6D
:100EA000011B03200229F5D9FBE6FFF74DFC05469F
:100EB00041F28837306F800706D5FFF745FC411BAC
:100EC0000320B942F6D9ECE6B8F1000F3FF5BDAE0C
:100ED000306C20F080503064B7E6FFF735FC0546F3
:100EE000306880037FF58EAEFFF72EFC411B032098
:100EF0006429F5D9D5E600BF00380240000047421A
:100F000000700040411E0020B0EB116F1CBF01209B
:100F10007047044AF023516003490B700721906029
:100F20001160704710E000E023ED00E0704770476B
:100F3000024690F83C00012804BF02207047F0B53B
:100F400001F10807D1E900C44B690020C969E0CF6D
:100F500082F83C00126826F47C5624F4F04425F410
:100F6000705535432C432CF4E0452C4327F4C04501
:100F70002C43234323F4804319435164F0BD000004
:100F800090F83C300222012B29D010B580F83D208A
:100F900002680B68546824F070041C439368B2F133
:100FA000804F54600ED0394CA2420BD0384CA24234
:100FB00008D0384CA24205D0374CA24202D0374C60
:100FC000A24204D1496823F08003194391600022B2
:100FD000012180F83C2080F83D10BDE8104010460B
:100FE000704700BF70B110B501F0C3FB03D101F031
:100FF0006DFB00F009F801F09BFB012001F081FA84
:1010000001F056BB0120704700682349884200D098
:10101000704781B0002000900548016841F480319C
:101020000160006800F480300090009801B07047C3
:101030004438024090F83D1001291CBF0120704740
:10104000022180F83D100068C168B0F1804F41F086
:101050000101C1600ED00D4988420BD00C49884275
:1010600008D00C49884205D00B49884202D00B4970
:10107000884204D1724601F01FFB964603D07246A7
:1010800001F002FB96460020704700BF00040040BC
:1010900000080040000C00400040014000000140FA
:1010A00010B501F05BFB61D084F83D0001204FF6E4
:1010B000777384F83C00206882689A4382600A68EB
:1010C000EAB1102A1BD0202A19D0302A17D0402A82
:1010D0003DD0502A32D0602A18D0B2F5005F21D01E
:1010E000B2F5805F3CD0702A26D1D1E90123C968CE
:1010F00001F0D2FA8160816841F077012FE08168C8
:1011000021F07001114341F0070128E04B68CA68E3
:10111000194601F02EFD2068816841F0670121F039
:1011200010011CE0D1E90123C96801F0B5FA816022
:10113000816841F4804112E0012012E001F03BFBA4
:101140002068816841F0570121F0200107E001F09B
:1011500032FB2068816841F0470121F03001816055
:10116000002001F015FB012184F83D1010BD00287E
:1011700046D0F8B5044690F83D000D4618B901F088
:10118000A5FA00F03FF8022044F2070284F83D007F
:101190002068816891438160211D01F0DDFB266894
:1011A000D5E9000CD5E90223B7683843B769316A3D
:1011B000B060A86942EA00204FF6FC4290434FF627
:1011C000FF7227EA02021A431043EA6940EA02204A
:1011D0002A6940EA02102A6A40EA0230B06121F02E
:1011E000AA00696940EA0C0040EA0110306201205F
:1011F00001F030FA01F0FDF984F83D000020F8BD5F
:1012000001207047F0B587B0044602A81421FFF70B
:10121000BFF8206800F140404FEAB020032800F2F8
:101220007B80DFE800F0026536440025B1483B4C86
:10123000012602270195016941F00101016101695F
:1012400001F0010101910199019501F0F9F901689D
:1012500001F00101019101990195016841F002013C
:101260000160006800F00200019001980696CDE947
:10127000045503974FF400400290A4F5806002A942
:10128000FFF788F90820CDE90556CDE903750290EE
:101290003EE00020974901900A6942F004020A6189
:1012A0000A6902F0040201F06AF9C0202DE0002072
:1012B000904901900A6942F008020A610A6902F045
:1012C00008020192019A01900A6842F001020A6044
:1012D000096801F0010101910221CDE90501CDE983
:1012E00003100320029001980C48A0F580640FE0E1
:1012F0000020804901900A6942F002020A610A69ED
:1013000002F0020201F03BF930200290034C0198F8
:1013100002A92046FFF73EF907B0F0BD00040240E5
:1013200070B501F0F1F905D061B9012E08BF012BAC
:1013300017D070BD012D08BF012AFAD1022001F09B
:1013400013FA0CE0012E08BF012DF2D1012BF0D1D0
:10135000012AEED101F037F906D001F0E1F90421BC
:1013600003E0022001F054F90021206801F0DDF9CA
:10137000206801F089F9002070BD704770B50446FF
:101380000068C5680669B10710D5A9070ED56FF0CA
:1013900002010161012121778069800702D001F0FB
:1013A00007FA01E001F0D0F900202077700712D58C
:1013B000680710D520686FF00401016102212177D0
:1013C000806910F4407F02D001F0F2F901E001F0F1
:1013D000BBF900202077300711D528070FD52068EA
:1013E0006FF00801016104212177C069800702D0F4
:1013F00001F0DEF901E001F0A7F900202077F00606
:1014000012D5E80610D520686FF01001016108219F
:101410002177C06910F4407F02D001F0C9F901E0E2
:1014200001F092F900202077F00708D0E80706D0F5
:1014300020686FF001010161204600F025F93006B7
:1014400008D5280606D520686FF080010161204686
:10145000FFF76CFD700608D5680606D520686FF0AA
:1014600040010161204600F081FBB00601D5A806CD
:1014700000D470BD20686FF0200101612046BDE8F6
:101480007040FFF754BD000010B586B0044601A8B7
:101490001421FEF77DFF20687A49884210D07549F3
:1014A000884224D100200090124801F0C9F801219F
:1014B000006800F00100009000984FF410600BE00D
:1014C000002000900B4801F0BBF80321006800F0F9
:1014D0000100009000980C2005910021CDE9031136
:1014E0000221CDE90101044801A9FFF753F806B034
:1014F00010BD00BF303802400000024070470000BD
:10150000B0B501F063F904BF0220B0BD01F048F9A5
:1015100037D8DFE801F002220A1A2068294601F0D4
:1015200079FA206850F8181F06E02068294601F073
:10153000C3FA206850F81C1F41F0080101600168DF
:1015400021F004010160296917E02068294601F0B3
:10155000DDFA206850F81C1F06E02068294601F0DB
:101560007FFA206850F8181F41F40061016001689B
:1015700021F4806101602969090202681143016058
:10158000002001F005F9B0BD70B110B501F0F1F81F
:1015900003D101F09BF800F009F801F0C9F801202F
:1015A00000F0AFFF01F084B80120704700683149B6
:1015B000884218BF7047E0B500200022019008481B
:1015C00001F03EF80021006800F001000190019850
:1015D0001920FFF7F5F91920BDE88C40FFF7E0B9B5
:1015E000443802407047000010B50446A1B10429F8
:1015F00004D0082914BF4120402000E03F20205C97
:10160000012811D10220082910D0042914BF84F820
:10161000410084F83F000BE094F83E00012803D11C
:10162000022084F83E0003E0012010BD84F8400051
:10163000206801F07AF820680E49884201D101F053
:1016400040F8B0F1804F0DD00B4A90420AD00B4ABF
:10165000904207D00A4A904204D00A4A904201D0F0
:10166000884202D101F028F801D001F00DF80020E5
:1016700010BD00BF00000140000400400008004011
:10168000000C004000400140DFF8C414884218BF3D
:1016900070472DE9F8432DED048BDFF8B894D9F8A5
:1016A0002C0001306428C9F82C0007D369484FF496
:1016B0000051FFF73BF80020C9F82C00DFF89884B0
:1016C0009FED658A9FED659A99F8000098ED011AE3
:1016D00098ED000A0128B8EEC11AB8EEC00A21EE52
:1016E000081A20EE080A81EE091ABDEEC00A89ED3B
:1016F0000D0ABDEEC11A89ED0C1A1ED10020002181
:101700000122002601F078F8DFF8500400210122C0
:101710000660002001F096F8DFF844040021012261
:101720000660002000F0C4FB00200021012200F030
:10173000FDFBC9E90E6689F80060DFF82804D0EDEA
:10174000000ADFF8240490ED000A00F031FCDFF815
:10175000FC1ADFF8642B00EE100A4FF0000EB8EE12
:10176000C00A0B68DFF8181BD3F824C00F68796A29
:101770001568DFF87C2BCCF100006C6A1668726A81
:10178000C3F824E06342C7F824E0C5F824E089EDFB
:10179000100AA9F802C0A9F80410A9F80C10A9F8B9
:1017A0000A00A9F806400225A9F80E30A9F8082079
:1017B000A9F81020C6F824E0D9F8444004FA80F4CF
:1017C000D9F84800C9F8444000FA81F1D9F84C0032
:1017D000C9F8481000FA83F0D9F85030C9F84C0025
:1017E000204403FA82F390FBF5F25818C9F8503000
:1017F0004FF4436391FBF3F194FBF3F490FBF5F0AA
:1018000001EE101AD9F8341000EE104AC9E90E02A0
:10181000B8EEC00AB8EEC11A431A89ED051A89ED6F
:10182000060A48BF5B42312B1AD8521A48BF5242AF
:10183000312A15D8002000F0C5FD002000F0E2FD9F
:10184000002000F003FE002000F01CFE012089F8BB
:10185000000070E100080240000043450080BB45E5
:10186000002200F0C9FF00EE100AD9E90D10002295
:10187000B8EEC00A89ED070A00F0BEFF00F075FE61
:1018800089ED080A00F0DEFF00F06FFE89ED090A1D
:1018900000F0D8FF98ED010A99ED104A99ED093A48
:1018A00099ED151AB8EEC00A20EE080A80EE090A72
:1018B00000F084FE99ED070A414234EE000ABDEEC5
:1018C000C00A10EE102A8A42D8BF0A468242A8BF38
:1018D000024600EE102AB8EEC00A6FF0580200F07F
:1018E00009FF13F1590FD8BF13465924592BA8BF2C
:1018F000234600F024FF30EE412A33EE440A00F084
:10190000F9FE8B42C8BF19468142A8BF014600EECE
:10191000101AB8EEC00A00F051FEB0EE080A10F13D
:10192000590FC8BF0246B4EE402AB0EE404A592AC9
:10193000A8BF224603EE102AF1EE10FA0ADCB8EE38
:10194000085AB0EE424AB4EE452AF1EE10FAB8BF9A
:10195000B0EE454A99ED162A31EE041AB8EEC33AB4
:10196000B0EE405A89ED071A31EE424AB4EE404AD1
:10197000F1EE10FA0ADCB8EE086AB0EE445AB4EEA2
:10198000464AF1EE10FAB8BFB0EE465A99ED174A42
:1019900032EE052AB0EE405A89ED082A33EE443A79
:1019A000B4EE403AF1EE10FA0ADCB8EE086AB0EE96
:1019B000435AB4EE463AF1EE10FAB8BFB0EE465ACA
:1019C00034EE053A99ED184A89ED093A33EE445A56
:1019D000B4EE405AF1EE10FA0ADCB8EE086AB0EE46
:1019E000450AB4EE465AF1EE10FAB8BFB0EE460A18
:1019F00034EE000AB9F90C00002289ED151A89EDC0
:101A0000162A89ED173A89ED180A89ED0A0ABDEE02
:101A1000C10A10EE101A00F04BFA00EE100AB9F9E4
:101A200010000022B8EEC00A89ED190A99ED080AE3
:101A3000BDEEC00A10EE101A00F03AFA00EE100ADD
:101A4000B9F90A000022B8EEC00A89ED1A0A99ED28
:101A5000090A00F013FE00EE100AB9F90E00002288
:101A6000B8EEC00A89ED1B0A99ED0A0A00F006FEDD
:101A700099ED190A99ED1A1A99ED1B2A6FF0620176
:101A800000F038FE13F1630FD8BF0B466322632BBF
:101A9000A8BF134600F053FE89ED190ABDEEC10A36
:101AA00001EE100A10EE103AB8EEC11A13F1630FEE
:101AB000D8BF0B46BDEEC11A632BA8BF134600EE7C
:101AC000103A11EE100AB8EEC00A89ED1A0ABDEEFE
:101AD000C20A10EE103A13F1630FD8BF0B46632B06
:101AE000A8BF134600F02BFE10F1630F89ED1B0A0F
:101AF000C8BF01466329BDEEC00AA8BF114601EE6A
:101B0000101A10EE100AB8EEC11A89ED1C1A00F076
:101B100059FC99ED190A00F051FD00F073FC99EDA4
:101B20001C0A00F04BFD00F091FC99ED1A0A00F040
:101B300045FD00F0A7FC09F13402B9F9023007CAEB
:101B4000BDEC048B01B0BDE8F043FEF785BC00BFDF
:101B500038020020700100204400002038010020DD
:101B60003C010020E8030020280100207047704756
:101B700070470000F8B5044600680268C16846690D
:101B800015074FEA82633FD001F4907706F0010613
:101B9000BF193DD0D70705D0CF0503D5676C47F0F7
:101BA00001076764570704D51EB1676C47F0020749
:101BB0006764920704D51EB1626C42F0040262644D
:101BC000002D07D501F02002921903D0626C42F07B
:101BD00008026264626C002A00F0E580002B05D5E3
:101BE000890603D5204600F0FCFF20684069616C3F
:101BF00000F0400001F00801401847D12046FFF7EF
:101C0000B7FF00206064CEE0002B01D58B0653D4D3
:101C1000236B012B03D1D30601D5CB0651D4130678
:101C200001D50B0611D4520640F1BD80490640F1A2
:101C3000BA80C16821F04001C160202084F84100D1
:101C40002046BDE8F84000F031B994F84110212950
:101C500040F0A980A168B1F5805F03D12169002916
:101C600000F0A280216A4A1C226209784160E18C5E
:101C70000139E184090440F09680C16821F08001B7
:101C8000C160C16841F04001C160F8BD00F001FDD4
:101C900000F00AFD49D500F047FCFCD1E06B0028BC
:101CA00043D045490165FEF757FC00287BD0E06B27
:101CB000016DBDE8F84008472046BDE8F84000F057
:101CC00090BF002100910168009141680091009946
:101CD000406940062ED4E08DA18DE28D002A62D0AD
:101CE000814260D0081A00F0A6FC21F4907142E80D
:101CF0000313002BF7D1216851E8051F226821F05A
:101D0000010142E80513002BF5D1202184F842108F
:101D10000021216300F08FFC21F0100142E8031341
:101D2000002BF7D1022161632EE02046BDE8F84088
:101D3000FFF71EBFE06BA28D01684B6899B249B3F3
:101D4000914227D2E385C069B0F5807F17D000F0BB
:101D50004DFD20F4807000F048FCF8D100F00EFD3D
:101D6000FCD100F0E1FBFCD1202084F842000020EF
:101D7000206300F0B5FCFCD1E06BFEF7B0FB022065
:101D80006063A08DE18D401A81B22046BDE8F84025
:101D9000FFF7EDBE8A4206D1C069B0F5807F02D15F
:101DA00002206063F1E7F8BD216A31F8022B6FF37E
:101DB0005F22216242605AE7972B000878B110B584
:101DC00000F035FC08B900F00BFD00F0E9FB00F075
:101DD00005FC21F02A01416100F043FC10BD012007
:101DE0007047000010B586B0044601A81421FEF724
:101DF000CFFA21682B4881422CD10021C94A00F535
:101E000070400091536943F010035361536903F02C
:101E100010030093009B0091136843F001031360CB
:101E2000126802F001020092072205920322CDE916
:101E30000312022102914FF4C0610191009901A99E
:101E4000FEF7A8FB252002210022FEF7B9FD252080
:101E5000FEF7A6FD06B010BD10B590F84230202B5D
:101E600006D139B132B10024046300F079FF02E0F9
:101E7000022400E00124204610BD0000006809494A
:101E8000884218BF7047B0B5074C254615F8040BBB
:101E900000F086FF284621460122BDE8B040FFF74A
:101EA000DBBF00BF00100140D00000207047FEE7FC
:101EB000012A07D19FED1C2A0020B0EE420AB0EEA5
:101EC000421A26E0081A00EE100A5348B8EEC00A7B
:101ED00090ED031A90ED042A90ED0A3A514890EDE6
:101EE000076A90ED065A30EE414A90ED087A26EEE8
:101EF000006A05EE046A31EE014A30EE444A34EEDF
:101F0000022A07EE026A33EE062ABDEEC23A13EE4B
:101F1000100A414981ED020A81ED030A81ED041A9C
:101F200081ED0A2A704700BF00000000012A07D196
:101F30001C4900209FED1D0AC1E9020008612CE048
:101F4000081A184A03EE100A174892ED060AB8EE6E
:101F5000C33A92ED071A92ED0B2A90ED0A6A90EDC2
:101F6000095A90ED0B7A82ED053A82ED063A33EE8E
:101F7000404A82ED070A30EE000A26EE036A33EE8D
:101F8000400A05EE046A30EE010A07EE006A32EEFE
:101F9000060ABDEEC01A11EE100A024981ED0B0AC5
:101FA000704700BF3801002008000020000000003A
:101FB000194830EEC00A9FED193A90ED0C1A90EDD9
:101FC0000D2A80ED0D0A30EE011AB4EE431AF1EE3F
:101FD00010FAC8BFB0EE431A9FED113AB4EE431A9F
:101FE000F1EE10FAB8BFB0EE431A80ED0C1A0D48AE
:101FF00090ED0D4A90ED0C3A90ED0E5A24EE011A38
:1020000003EE001A30EE420A05EE001ABDEEC10AD8
:1020100010EE100A704700BF380100200080BB445A
:102020000080BBC4080000202DE9F04F87B00DF1FF
:10203000080814214046FEF7ABF9002439483A4F0E
:102040003A4D01224FF4005A4FF001090194016802
:1020500007F5006641F004010160016801F0040128
:1020600000F031FA41F080010160016801F0800167
:1020700000F029FA41F001010160016801F001015D
:1020800000F021FA41F0020101604FF400510068B4
:1020900000F00200019001983046A84738465021D0
:1020A0000022A8473846A0210122BB46A84707F5D1
:1020B00080674FF4A04100223846A84738464FF4C5
:1020C00020410122A8471A4D30464146CDE904443B
:1020D000CDE902A9A847F02041460594CDE9039433
:1020E00002905846A8474FF4704041460594CDE908
:1020F000039402903846A8474FF488104146CDF823
:10210000109003904FF4805002905846A847282022
:1021100000210022FEF754FC2820FEF741FC07B006
:10212000BDE8F08F30380240000002403D07000853
:102130009505000810B50B480B4B0C4C00214FF4D3
:102140008042C0E90043C0E90211C0E90421C0E9AE
:1021500006110162FEF7FCFA18B1BDE81040FEF767
:10216000BCB910BDE4010020A0860100005400406D
:10217000B0B592B000251C21CDE9105509AC204620
:10218000FEF706F901A82021FEF702F9AE48214B1F
:10219000632142F2CF02C0E90032C0E90251C0E936
:1021A00004558561FFF7F0F908B1FEF796F9A648E6
:1021B00010A9FEF7E5FE08B1FEF78FF9602018219F
:1021C0000990201DFEF7E4F89F4821460022FFF702
:1021D00097F908B1FEF781F99B4809A90C22FFF78E
:1021E0008FF908B1FEF779F901AC14212046FEF70A
:1021F000CFF80020214608904FF4005006909248F6
:10220000FEF796FE08B1FEF768F98F48FFF73CF934
:1022100012B0B0BD0000014080B58CB00B48002169
:102220004FF6FF724FF0804300F052F903A9FEF71A
:102230009EFF08B1FEF751F904486946FEF7A0FE7B
:1022400008B1FEF74AF90CB080BD00BF8002002043
:1022500080B58CB00A4800214FF6FF72094B00F0A0
:1022600037F903A9FEF783FF08B1FEF736F90448F2
:102270006946FEF785FE08B1FEF72FF90CB080BD68
:10228000C80200200004004080B58CB00A4800213C
:102290004FF6FF72094B00F01BF903A9FEF767FF29
:1022A00008B1FEF71AF904486946FEF769FE08B15D
:1022B000FEF713F90CB080BD1003002000080040A9
:1022C00080B58CB00A4800214FF6FF72094B00F030
:1022D000FFF803A9FEF74BFF08B1FEF7FEF804482C
:1022E0006946FEF74DFE08B1FEF7F7F80CB080BD69
:1022F00058030020000C004010B58CB000241C21B5
:102300000B94CDE9094401A8FEF742F86C481D4B37
:10231000632142F2CF028461C0E90032C0E9024188
:102320000461FEF75FFE08B1FEF7D7F84FF4805066
:102330000890634808A9FEF7B3FE08B1FEF7CDF890
:102340005F48FFF721F908B1FEF7C7F80020002227
:102350000590CDE9020060200190594801A9FFF7DE
:10236000CFF808B1FEF7B9F8554801A90422FFF7E4
:10237000C7F808B1FEF7B1F85148FFF785F80CB07F
:1023800010BD00BF0040014080B50B480B490C2236
:102390004FF4E13340F8041F0021C0E90131C0E9E6
:1023A0000311C0E90521C161FFF708FD18B1BDE8BF
:1023B0008040FEF792B880BDD000002000100140A0
:1023C000FEE70000B0B51F4D044600280AD4284699
:1023D0004FF4804100F0C6F828464FF4004100F069
:1023E000EAF80AE028464FF4804100F0E4F8284675
:1023F0004FF4004100F0B6F86442134800684463AB
:10240000B0BD00BFB0B50F4D044600280AD4284621
:102410004FF4005100F0A6F828464FF4805100F028
:10242000CAF80AE028464FF4805100F0C4F8284664
:102430004FF4005100F096F86442034800680464C9
:10244000B0BD00BF0004024038020020B0B51B4DF3
:102450000446002808D42846102100F083F82846B6
:10246000202100F0A8F808E02846202100F07AF8A2
:102470002846102100F09FF8644211480068446328
:10248000B0BD00BFB0B50D4D0446002808D42846A5
:10249000402100F067F82846802100F08CF808E021
:1024A0002846402100F087F82846802100F05AF89D
:1024B0006442034800688463B0BD00BF000002406E
:1024C000A0030020FEE70191019901940168704783
:1024D000CDE90A11CDE90611CDE90011C0E90212DA
:1024E00001228161C0E900310161CDE90812CDE925
:1024F0000412032203927047D3F8000400F007008F
:10250000704784F8460084F83E0084F83F0084F861
:10251000400084F8410084F8420084F8430084F8C5
:10252000440084F845007047206850E8050F216892
:1025300020F0400041E80502002A7047C81A22EE48
:10254000000A02EE101AB8EEC22A01EE020A01EEEB
:10255000100AB8EEC11A03EE010ABDEEC00A10EE71
:10256000100A70470122FEF7E9B800EE100AD9F808
:102570003410D9F83C000022B8EEC00A704701922E
:10258000019A01900A6842F002020A60096801F0AB
:10259000020101910221CDE90501CDE90310704747
:1025A000242084F841002068C16821F40051C160F2
:1025B000204600F073BB0022FEF7C0B8BDEEC00A93
:1025C00010EE100A70470220002984F83E0084F8BB
:1025D0003F0084F8420084F8430070472068016996
:1025E00021F4904101614169704741E80302002AEA
:1025F000704784F8420084F843007047016851E84E
:10260000051F026821F0010142E80513002B704705
:1026100084F83E0084F842007047016851E8031FC7
:10262000026821F0100142E80313002B70470446B2
:1026300090F841007047216851E8031F22687047F5
:10264000016841F0010101607047B06800F00C00C2
:102650000828704784F8460084F83E0084F83F005C
:102660007047C16841F40051C160002020216064BE
:1026700084F8411084F8421060637047BDEEC00AD0
:1026800010EE101AFFF752BC016841F00101016021
:102690007047204600F084BA1A4342EA012182685A
:1026A00022F47F421143704720684069400670471A
:1026B00084F83D00002010BD816801F00701062963
:1026C00070474A6C42F400424A647047002084F824
:1026D0003C0020467047016821F00101016070470D
:1026E000206850E8030F216820F0100041E8030241
:1026F000002A7047BDEEC00A10EE103A704701681C
:1027000021F001010160704790F83E6090F83F5061
:1027100090F84230044690F8432001200429704785
:1027200020680021012200F065B9012200F062B9A1
:102730000220211D84F83D00206800F00DB900EE54
:10274000103AB8EEC00A70474DF808ED2046FEF783
:10275000D5FE20465DF808EBFEF744BF90F83C201C
:1027600004460220012A704784F83F0084F84300A1
:102770007047044690F83D0000287047206850E8F4
:10278000050F216820F0010041E80502002A70478A
:10279000002184F83C107047002084F83C0070470A
:1027A0000D4601204FEAB201032984F83C0070472E
:1027B0002046FEF7E2BD4B68CA68194600F0C8B96A
:1027C000B0FBF3F001306FF31F307047044690F810
:1027D0003C0001287047086840F00100086070471D
:1027E000002084F840002046FFF7FCBA206850E83B
:1027F000030F21687047704710B5012A02D10021EC
:1028000000201BE0091A224841F288340268036A5A
:102810000A44A242B8BF14461E4A9442D8BF144686
:1028200004601D4800EE104AB8EEC00A90ED012A7F
:1028300090ED001A90ED023AFFF780FE144A116203
:1028400010BD00BF10B5012A02D1002100201BE0FD
:10285000091A0F4841F288344268436A0A44A24286
:10286000B8BF14460B4A9442D8BF144644600A4885
:1028700000EE104AB8EEC00A90ED042A90ED031A5B
:1028800090ED053AFFF75AFE014A516210BD00BFB4
:102890003801002078ECFFFF080000207047FEF7A9
:1028A00021B8000070B592B006AC30212046FDF78B
:1028B0006FFD01A81421FDF76BFD00251D480226C0
:1028C0000095016841F080510160006800F080507F
:1028D0000090009800951848016866F38F310160F8
:1028E000006800F4404000900420CDE90C65069695
:1028F000CDE9106054200F9008200E9010200A900F
:102900000120099000982046FEF766F908B172B6DA
:10291000FEE74FF4805005950221CDE903500F20CA
:10292000CDE9010601A8FEF781F808B172B6FEE70D
:1029300012B070BD4038024000700040024801688B
:1029400041F470010160704788ED00E00148FEF736
:1029500015BD00BF3802002070B57C4B026898425C
:102960001FD000F140444FEAB424032C03D84C6834
:1029700022F070022243B0F1804F16D0174CA042D3
:1029800013D0174CA04210D0164CA0420DD0164CBC
:10299000A0420AD0154CA04207D0154CA04204D04A
:1029A00007E04C6822F070022243CC6822F44072A7
:1029B00022430D688E684C699842C662856201D1D7
:1029C00009691963016841F0040101600121416155
:1029D00022F080012143016070BD00BF000400406F
:1029E00000080040000C0040004001400048014049
:1029F0000044014010B501F01F010123046A8B401F
:102A000002FA01F124EA03030362026A114301623C
:102A100010BD0000F0B5036A026A4C4E22F00102BC
:102A200023F0020302628C680A68456823438469C4
:102A3000B0420CD1D1E9057625F44075D1F80CC02F
:102A400023F00C033D4335432CF00406334324F0BC
:102A50007304456022438261496841630362F0BDAB
:102A6000F0B5036A026A394E22F0100223F0200307
:102A7000B04202628C680A68456843EA04138469BC
:102A80000FD1D1E9057625F44065D1F80CC023F0CB
:102A9000C0033E4345EA86056FF0400606EA0C1681
:102AA000334324F4E644456044EA022282614968E3
:102AB00081630362F0BD00BFF0B5036A026A234E72
:102AC00022F4807223F40073B04202628C680A68B8
:102AD000456843EA0423C4690ED1CE6825F4405CFE
:102AE000D1E9057523F440633D43360240F2FF47C8
:102AF000BE434CEA0515334324F07304456022437A
:102B0000C2614968C1630362F0BD00BFF0B5026AEB
:102B1000036A0E4F23F48053B842036245680C6881
:102B20008B68C66904D14F6925F4804545EA87154D
:102B3000456026F4E64545EA0424C4614968016419
:102B400022F4005141EA03310162F0BD000001406E
:102B500010B5036A046A24F001040462846924F055
:102B6000F00444EA0212826123F00A021143016276
:102B700010BD10B5036A046A24F01004046284696D
:102B800024F4704444EA0232826123F0A00242EA53
:102B90000111016210BD806B0021C185FEF7E8BF05
:102BA000016851E8031F026821F4907142E80313A1
:102BB000002BF5D14DF808EDFFF720FD5DF808EB8F
:102BC000F8D1016B012906D14DF808EDFFF725FD7D
:102BD0005DF808EBF8D1202180F842100021016354
:102BE000704790F84210222920D183680246B3F53D
:102BF000805F08D152F8281F52F8183C002B45D0AE
:102C000003685B6809E052F8281F13B90369002BB9
:102C1000F6D003685B6803F07F030B701168013125
:102C20001160C18D0139C185090400D07047016868
:102C3000CA6822F02002CA60CA6822F48072CA60A0
:102C40004A6922F001024A61202180F842100021E5
:102C50004163026B012A18BFFFF710B981B001630D
:102C60004DF808EDFFF7D9FC5DF808EBF8D10168E5
:102C70000A68D20606D5002200920A6800924968C6
:102C800000910099818D01B0FEF771BF0268526812
:102C90006FF35F2221F8022B8162C2E7B0B50446D0
:102CA000006804F108030ECB056925F4405519436B
:102CB0002A4349F20C650261C26863691943E369FA
:102CC000AA4319431143C1604169A26921F44071CB
:102CD00011434161204940F48060884202D1FDF7F0
:102CE0003BFF01E0FDF72EFFE269192163681B4DF0
:102CF000A0FB0101B2F5004F16D15A00DB0FFDF722
:102D0000CFFA642105F18053B0FBF1F202FB03001E
:102D1000322303EBC000B0FBF1F04FF4F87101EA8D
:102D2000400100F0070011E09A009B0FFDF7B8FA90
:102D300064213223B0FBF1F202FB050003EB00102B
:102D4000B0FBF1F000F0F00100F00F0001EB021118
:102D5000084421688860B0BD001401409CFFFF0F4B
:102D60000023C285436481622221828580F842105B
:102D70000168006918B1C86840F48070C86048698B
:102D800040F001004861C86840F02000C8600020A1
:102D9000704700006548FEF7EDBE00BFFEE700008B
:102DA0002B490A7852B10A78012A0FD153284DD104
:102DB0004878532208440274022045E0552845D142
:102DC000487855220844027401203DE00A78022A1E
:102DD0003CD14A788B181874501C4870C0B20B282C
:102DE00034D1002000220A2804D00B1801301B7CAB
:102DF0001A44F8E7887ED2B2824224D1488A9FEDF5
:102E0000151A9FED152A00EE100A888AB8EE400ABE
:102E100003EE100AC88A20EE010AB8EE433A20EE0B
:102E2000020A04EE100A23EE013A81ED010AB8EE1F
:102E3000444A23EE023A24EE011A81ED023A21EED1
:102E4000021A81ED031A002048700870704700BF15
:102E50001C0100200000003800003443FDF74CFD49
:102E6000FFF720FDFFF7E0F8FFF782F9FFF7D4F94D
:102E7000FFF7EEF9FFF708FAFFF722FAFFF73CFA3F
:102E8000FFF782FAFFF756F9DFF87C801F4C3C21F0
:102E90004046A047DFF878903C214846A047DFF83D
:102EA00074A03C215046A0471B4F3C213846A04708
:102EB0001A4C1B4E00212046B04720460C21B0473B
:102EC000184D00212846B04728460421B047164E29
:102ED0002846B0474046B0474846B0475046B047FE
:102EE0003846B0472046B04710480168CA6842F0EB
:102EF0002002CA600E490122FEF7AEFF0D480E49BE
:102F000000680860FEE700BF80020020211300086F
:102F1000C8020020100300205803002038020020BF
:102F2000E9150008A003002035100008D400002097
:102F3000D000002028010020E8030020F1EE100A54
:102F40004FF6FF71C0F2C03120EA010040F040703E
:102F5000E1EE100A704700000000000000000102CE
:102F60000304060708090000000001020304000032
:102F7000902F00080000002070000000F8010008F9
:102F800000300008700000208009000018020008CE
:102F90000100000010000000B81E053EF7CC923A78
:102FA000C520803FB81E053EF7CC923AC520803F31
:102FB0003333D33FCDCC8C3ECDCCCC3D3333D33F1C
:102FC000CDCC8C3ECDCCCC3D0000A041CDCCCC3D79
:102FD000000020420A00000039000000AAFFF100B2
:102FE00000000000000000000000000000000000E1
:102FF0000000000000000000000000000024F400B9
:040000050800019559
:00000001FF
