:020000040800F2
:10000000F00900206102000829250008031F0008EC
:100010002524000857040008ED2D0008000000000A
:10002000000000000000000000000000ED280008B3
:10003000D10400080000000047280008EF2800084D
:100040007B0200087B0200087B0200087B0200089C
:100050007B0200087B0200087B0200087B0200088C
:100060007B0200087B0200087B0200087B0200087C
:100070007B0200087B0200087B0200087B0200086C
:100080007B0200087B0200087B02000800000000E1
:100090000000000000000000000000007B020008DB
:1000A0007B0200089D2900087B0200087B020008F3
:1000B0007B0200087B0200087B0200087B0200082C
:1000C0007B0200087B0200087B0200087B0200081C
:1000D0007B020008E52D00087B02000800000000FC
:1000E000D30400087B0200087B0200080000000027
:1000F0000000000000000000000000007B0200087B
:10010000000000007B0200087B0200087B02000860
:1001100000000000000000000000000000000000DF
:100120007B0200087B0200087B0200087B020008BB
:100130007B0200080000000000000000000000003A
:100140000000000000000000000000007B0200082A
:100150007B0200087B0200087B0200087B0200088B
:100160007B0200087B020008000000000000000085
:10017000000000000000000000000000000000007F
:10018000000000007B0200080000000000000000EA
:100190007B02000800F002F800F052F814A696E87E
:1001A000000CB244B344DA4501D100F049F8BAE892
:1001B0000F000FA696E83000A5EB040504EB060738
:1001C000AAEB0704A7F101074FEA15154FEA34140B
:1001D000A4F10104AC4201D300F032F813F0010F96
:1001E00018BFFB1A43F0010300F001F8DBE71847E2
:1001F000D82D0000F82D0000103A24BF78C878C12F
:10020000FAD8520724BF30C830C144BF04680C601C
:1002100070470000704700000023002400250026DE
:10022000103A28BF78C1FBD8520728BF30C148BF59
:100230000B6070471FB502F0ADFE1FBD10B510BDBD
:1002400000F0D0F81146FFF7F5FF02F03BFE00F09A
:10025000EEF803B4FFF7F2FF03BC00F0F5F800007E
:100260000948804709480047FEE7FEE7FEE7FEE74A
:10027000FEE7FEE7FEE7FEE7FEE7FEE70448054986
:10028000054A064B704700008D29000895010008BB
:10029000F0030020F0090020F0050020F005002008
:1002A00053EA020C00F069802DE9F04B4FF0000694
:1002B000002B1FBFB3FA83F503FA05F424FA05F601
:1002C0005E4012BF1643B2FA82F502FA05F4C5F198
:1002D00020051EBF22FA05FC44EA0C04203556EA2C
:1002E000044C4FEA144418BF641C4FF000084FF050
:1002F0000009904271EB030C39D3002919BFB1FA00
:1003000081F701FA07F6B0FA80F700FA07F6C7F1AD
:1003100020071EBF20FA07FC46EA0C062037B6FB72
:10032000F4FCA7EB0507103F07F01F0BCBF12006ED
:100330002CFA06F60CFA0BFB44BFB3460026202F1E
:10034000A4BF5E464FF0000B5BEA060C08BF4FF0FF
:10035000010B19EB0B0948EB0608ABFB027C06FB13
:1003600002CC0BFB03CCC01B71EB0C01C1E70B46AD
:10037000024641464846BDE8F08B13B5084318BF16
:100380004FF0FF300146AFF30080BDE81C407047DE
:100390004FF0000200B5134694469646203922BF1E
:1003A000A0E80C50A0E80C50B1F12001BFF4F7AF69
:1003B000090728BFA0E80C5048BF0CC05DF804EB4B
:1003C000890028BF40F8042B08BF704748BF20F8B9
:1003D000022B11F0804F18BF00F8012B70477047B7
:1003E00070477047754600F02BF8AE460500694629
:1003F000534620F00700854618B020B5FFF73EFFB2
:10040000BDE820404FF000064FF000074FF0000815
:100410004FF0000BAC46ACE8C009ACE8C009ACE852
:10042000C009ACE8C00921F007018D46704710B53E
:100430000446AFF300802046BDE81040FFF709BF37
:10044000004870476800002001491820ABBEFEE755
:10045000260002007047FEE7B0B51B4C1025E57082
:100460001D0E2374227321722071E5741D0C1B0A6A
:100470006374130EA574E373130C120A62730A0EED
:10048000A373E2720A0C090A6172010EA2720022C1
:10049000E171010C000AA171607100200021142893
:1004A00004D0235C013019440A44F8E72175074958
:1004B00000206275162808BFB0BD0A685206FCD538
:1004C000225C01304A60F5E7400000200010014046
:1004D00070474FF4805000F053B872B6FEE770B525
:1004E000866D044600F030F9054694F83500022880
:1004F00021D12068216C026822F016020260426954
:1005000022F08002426109B9A16C19B1016821F0A1
:100510000801016002F011F920680068C0070ED0E0
:1005200000F012F9401B0628F6D320206065032056
:1005300084F835000CE080206065012008E0E06D63
:100540003F2101FA00F0B060012084F8350000205E
:10055000002184F8341070BD90F83510022909D1BB
:10056000052180F835100068724602F0E6F89646DC
:1005700000207047802141650120704770470000CE
:1005800003490A68024208BF70470860FFF7F6BFD8
:10059000143C01402DE9FE4F5E4A07244FF0010B49
:1005A0004FF0000C90425C4A08BF042402444FEA1A
:1005B000B223042B38BF4FEAB22400F12002019489
:1005C000009200250022102A08BFBDE8FE8F0C68AB
:1005D0000BFA02FA14EA0A0900F09780D1F804E055
:1005E000032303FA0CF40EF00308E643A8F1010418
:1005F000012C12D88468D1F80CB00BFA0CF73440F7
:100600004FF0010B3C438460CEF3001447689440E4
:1006100027EA0A073C43446005E0B8F1030F02D122
:100620004FF0030823E0C4688F68344007FA0CF7E2
:100630003C43B8F1020FC46019D105F01C040F232C
:10064000A84603FA04F76FF0030303EA520E009B77
:100650001D4653F80E30BB430F6907FA04F42343D9
:1006600045F80E304546D1F804E00EF00308046862
:1006700008FA0CF3344023431EF4403F036044D097
:100680000023284C254EA8460293236843F4804358
:10069000236023680F2403F48043029305F00C03C6
:1006A00022F00305029F35449C401F4FBE46EF5980
:1006B00027EA0404019F07FA03F3234345F80E30A9
:1006C000B3684D6843EA0904EF0258BF23EA0904FE
:1006D000134BB460AF029E461B6843EA090458BF3F
:1006E00023EA0904CEF80040AF03736843EA090423
:1006F00058BF23EA09047460ED033368454643EAB2
:10070000090458BF23EA090434600CF1020C0435D3
:10071000013258E7001002400000FEBF003C0140DB
:100720000C3C01404438024008FCFFFF426902EAE9
:100730000103914341EA034181617047002A08BFE8
:1007400009048161704700006A480068704700BF73
:1007500030B3F8B5044690F83D0020B902F044F8F3
:10076000204600F087F8242084F83D00206801F03E
:10077000F3FF016841F400410160016821F4004188
:10078000016000F0DFF96368364A374993423CBFA5
:1007900048F28041C0F21E01884203D20120F8BD18
:1007A0000120704731494FF47A77B0FBF1F52168A9
:1007B0004E6826F03F062E434E604FF496766E4309
:1007C000934228BFB6FBF7F56A1C0D6A25F03F057A
:1007D0002A434CF6FF750A62CA69AA43244DAB420C
:1007E00007D85B00013802F013F8042898BF0420F2
:1007F00013E0A56801383DB119256B4302F008F8F4
:1008000050B100F5804004E003EB430302F000F830
:1008100010B100F5004000E00120104304F10C0687
:10082000C861E0690A6822F0C0021043226A1043DE
:1008300048F2FF320860886890436CCE184310433A
:100840008860C86820F0FF0028433043C86001F08A
:10085000EAFF00202021206484F83D10206384F802
:100860003E00F8BDA186010000093D0040420F0096
:10087000A0860100B0B586B0044601A81421FFF798
:1008800087FD21681548814225D10025144C00F5CB
:10089000D8300095216841F002012160216801F003
:1008A000020100910421059103210491012103918A
:1008B000122102914FF440710191009901A9FFF7B3
:1008C00069FE0095206940F400102061206900F461
:1008D00000100090009806B0B0BD00BF005400406A
:1008E000303802401F48034900780A681044086005
:1008F000704700BFEC03002080B50B48016841F44D
:1009000000710160016841F480610160016841F497
:1009100080710160032000F079F80F2000F006F8E4
:1009200000F022F8002080BD003C024070B50D4E62
:1009300004464FF47A713078B1FBF0F08B490968C6
:10094000B1FBF0F000F0DEFA01250F2C08D838B921
:100950004FF0FF3021460022002500F031F874608E
:10096000284670BD0000002082B000200B49019095
:100970004A6842F480424A604A6802F48042019226
:10098000019A0090086840F080500860086800F004
:1009900080500090009802B0704700BF403802407D
:1009A000002809D41C21012201EAD00100F01F0017
:1009B00002FA00F0014A8850704700BF00E100E0F1
:1009C000F0B5184B4FF0FF361C68C4F30224E51E47
:1009D00084F0070438BF002506FA05F7BA43042C53
:1009E00028BF042406FA04F4A14300F00F04A94030
:1009F000043C1143044A234409010244002848BF2F
:100A000003F10C021170F0BD00E400E005494FF65F
:100A1000FF030A681A4060F30A2203481043086083
:100A2000704700BF0CED00E00000FA05002853D02D
:100A30002DE9F041404B0446884601F08FFD81428C
:100A400005D983F8008401F089FD40454DD1206827
:100A5000810711D5410703D5996841F4E0519960A8
:100A6000010703D5996841F460419960A1689A68CB
:100A700022F0F00211439960C0072FD101F06EFD02
:100A8000804505D283F8008401F068FD40452CD1F3
:100A90002068410705D5E1689A6822F4E0521143C5
:100AA0009960000706D52069996821F4604141EA00
:100AB000C00098601C4600F05FF8A1681F4AC1F3AF
:100AC0000311515CC840294908601D480068FFF7C0
:100AD0002DFF0020BDE8F081012070476068811E75
:100AE000022905D21968890107D40120BDE8F081E7
:100AF00001281DD119688903F7D599681D4621F091
:100B0000030108439860FFF71FFE064641F288374D
:100B10006068A9682B4601F00C01B1EB800FADD0E5
:100B2000FFF712FE801BB842F2D90320BDE8F08126
:100B300019688907D9D5E0E700380240AE2F0008D0
:100B40000400002009480A490A4A00680968C1F3FC
:100B50008221515CC840704704480549054A006835
:100B60000968C1F34231515CC84070476000002001
:100B700008380240BE2F000810B5144C6068C0F35E
:100B800081011348DFE801F00203050210BD11489E
:100B900010BD226820680023400202F03F020D4889
:100BA0005CBF42F20040C0F2F4002168C1F388113A
:100BB000A0FB0101FFF774FB21680222C1F3014190
:100BC00002EB4101B0FBF1F010BD00BF0438024060
:100BD0000024F40040787D01002864D02DE9FC4118
:100BE00004460078C44EC0070CD0B06800F00C007A
:100BF000042840F090803068800303D560680028A6
:100C000000F0A1802078800719D5B06810F00C0F93
:100C100007D001F04CFD40F099807068400200F16F
:100C200095803068800703D5E068012840F08B800C
:100C30002069316821F0F80141EAC0003060207875
:100C4000000732D42078400742D4A76947B301F0A7
:100C50002EFD40F0AD80012F75D0E169706800F481
:100C600080028A426FD1216A00F03F028A426AD133
:100C700047F6C071626A0140B1EB821F63D1A16A7D
:100C80004FF6FF72C903914300F44032A1F5803161
:100C90008A4258D1E16A00F07060B0EB016F52D126
:100CA0000020BDE8FC8101207047606900286ED0FB
:100CB00092480121C0F8801EFFF746FD0546706F7F
:100CC0008007BFD4FFF740FD401B0228F7D9C9E0D9
:100CD000306C5FEAC0080AD400200190306C40F00C
:100CE00080503064306C00F0805001900198844F47
:100CF0003868C0053DD4386840F480703860FFF72C
:100D000023FD05463868C00533D4FFF71DFD401BA1
:100D10000228F7D9A6E001F0CAFC03D170684002AE
:100D20003FF569AF30686168B1F5803F07D0B1F534
:100D3000A02F40F0828040F480203060306840F482
:100D40008030306082E00120BDE8FC81E1686B48C2
:100D500000294BD001210160FFF7F6FC0546306801
:100D600080073FF565AFFFF7EFFC401B0228F6D97F
:100D700078E0306FA168012905D0052946D140F0FF
:100D800004003067306F40F00100306747E05B4897
:100D90000021C0F8801EFFF7D7FC0546706F800762
:100DA0007FF550AFFFF7D0FC401B0228F6D959E081
:100DB0005249002088460866FFF7C6FC0546022F08
:100DC00009D13068800150D5FFF7BEFC411B0320DC
:100DD0000229F6D965E7306880017FF561AFFFF73A
:100DE000B3FC411B03200229F5D95AE70021016019
:100DF000FFF7AAFC0546306880077FF520AFFFF7B4
:100E0000A3FC411B03200229F5D94AE720F0010089
:100E100000293067306F20F00400306745D0FFF7BD
:100E200093FC054641F28837306F80074CD4FFF7BA
:100E30008BFC401BB842F7D914E020F48030002925
:100E40003060306820F48020306046D0FFF77CFCB2
:100E50000546306880033FF5D5AEFFF775FC401BB3
:100E60006428F6D90320BDE8FC811C341FCC08435C
:100E7000D90340EA82104FF6FF72914340EA0460C2
:100E8000A1F58031084370600120C8F86000FFF7C9
:100E90005BFC0446306880013FF502AFFFF754FC6D
:100EA000011B03200229F5D9FBE6FFF74DFC05469F
:100EB00041F28837306F800706D5FFF745FC411BAC
:100EC0000320B942F6D9ECE6B8F1000F3FF5BDAE0C
:100ED000306C20F080503064B7E6FFF735FC0546F3
:100EE000306880037FF58EAEFFF72EFC411B032098
:100EF0006429F5D9D5E600BF00380240000047421A
:100F000000700040411E0020B0EB116F1CBF01209B
:100F10007047044AF023516003490B700721906029
:100F20001160704710E000E023ED00E0704770476B
:100F3000024690F83C00012804BF02207047F0B53B
:100F400001F10807D1E900C44B690020C969E0CF6D
:100F500082F83C00126826F47C5624F4F04425F410
:100F6000705535432C432CF4E0452C4327F4C04501
:100F70002C43234323F4804319435164F0BD000004
:100F800090F83C300222012B29D010B580F83D208A
:100F900002680B68546824F070041C439368B2F133
:100FA000804F54600ED0394CA2420BD0384CA24234
:100FB00008D0384CA24205D0374CA24202D0374C60
:100FC000A24204D1496823F08003194391600022B2
:100FD000012180F83C2080F83D10BDE8104010460B
:100FE000704700BF70B110B501F0EBFB03D101F009
:100FF0009FFB00F009F801F0C8FB012001F0B3FAF3
:1010000001F088BB0120704700682349884200D066
:10101000704781B0002000900548016841F480319C
:101020000160006800F480300090009801B07047C3
:101030004438024090F83D1001291CBF0120704740
:10104000022180F83D100068C168B0F1804F41F086
:101050000101C1600ED00D4988420BD00C49884275
:1010600008D00C49884205D00B49884202D00B4970
:10107000884204D1724601F051FB964603D0724675
:1010800001F034FB96460020704700BF000400408A
:1010900000080040000C00400040014000000140FA
:1010A00010B501F083FB61D084F83D0001204FF6BC
:1010B000777384F83C00206882689A4382600A68EB
:1010C000EAB1102A1BD0202A19D0302A17D0402A82
:1010D0003DD0502A32D0602A18D0B2F5005F21D01E
:1010E000B2F5805F3CD0702A26D1D1E90123C968CE
:1010F00001F004FB8160816841F077012FE0816895
:1011000021F07001114341F0070128E04B68CA68E3
:10111000194601F056FD2068816841F0670121F011
:1011200010011CE0D1E90123C96801F0E7FA8160F0
:10113000816841F4804112E0012012E001F063FB7C
:101140002068816841F0570121F0200107E001F09B
:101150005AFB2068816841F0470121F0300181602D
:10116000002001F03DFB012184F83D1010BD002856
:1011700046D0F8B5044690F83D000D4618B901F088
:10118000D7FA00F03FF8022044F2070284F83D004D
:101190002068816891438160211D01F005FC26686B
:1011A000D5E9000CD5E90223B7683843B769316A3D
:1011B000B060A86942EA00204FF6FC4290434FF627
:1011C000FF7227EA02021A431043EA6940EA02204A
:1011D0002A6940EA02102A6A40EA0230B06121F02E
:1011E000AA00696940EA0C0040EA0110306201205F
:1011F00001F062FA01F02FFA84F83D000020F8BDFA
:1012000001207047F0B587B0044602A81421FFF70B
:10121000BFF8206800F140404FEAB020032800F2F8
:101220007B80DFE800F0026536440025B1483B4C86
:10123000012602270195016941F00101016101695F
:1012400001F0010101910199019501F02BFA01686A
:1012500001F00101019101990195016841F002013C
:101260000160006800F00200019001980696CDE947
:10127000045503974FF400400290A4F5806002A942
:10128000FFF788F90820CDE90556CDE903750290EE
:101290003EE00020974901900A6942F004020A6189
:1012A0000A6902F0040201F09CF9C0202DE0002040
:1012B000904901900A6942F008020A610A6902F045
:1012C00008020192019A01900A6842F001020A6044
:1012D000096801F0010101910221CDE90501CDE983
:1012E00003100320029001980C48A0F580640FE0E1
:1012F0000020804901900A6942F002020A610A69ED
:1013000002F0020201F06DF930200290034C0198C6
:1013100002A92046FFF73EF907B0F0BD00040240E5
:1013200070B501F01EFA05D061B9012E08BF012B7E
:1013300017D070BD012D08BF012AFAD1022001F09B
:101340003BFA0CE0012E08BF012DF2D1012BF0D1A8
:10135000012AEED101F069F906D001F00EFA04215C
:1013600003E0022001F086F90021206801F00AFA6A
:10137000206801F0BBF9002070BD704770B50446CD
:101380000068C5680669B10710D5A9070ED56FF0CA
:1013900002010161012121778069800702D001F0FB
:1013A0002FFA01E001F0F8F900202077700712D53C
:1013B000680710D520686FF00401016102212177D0
:1013C000806910F4407F02D001F01AFA01E001F0C8
:1013D000E3F900202077300711D528070FD52068C2
:1013E0006FF00801016104212177C069800702D0F4
:1013F00001F006FA01E001F0CFF900202077F006B5
:1014000012D5E80610D520686FF01001016108219F
:101410002177C06910F4407F02D001F0F1F901E0BA
:1014200001F0BAF900202077F00708D0E80706D0CD
:1014300020686FF001010161204600F025F93006B7
:1014400008D5280606D520686FF080010161204686
:10145000FFF76CFD700608D5680606D520686FF0AA
:1014600040010161204600F0ABFBB00601D5A806A3
:1014700000D470BD20686FF0200101612046BDE8F6
:101480007040FFF754BD000010B586B0044601A8B7
:101490001421FEF77DFF20687A49884210D07549F3
:1014A000884224D100200090124801F0FBF801216D
:1014B000006800F00100009000984FF410600BE00D
:1014C000002000900B4801F0EDF80321006800F0C7
:1014D0000100009000980C2005910021CDE9031136
:1014E0000221CDE90101044801A9FFF753F806B034
:1014F00010BD00BF303802400000024070470000BD
:10150000B0B501F08BF904BF0220B0BD01F070F955
:1015100037D8DFE801F002220A1A2068294601F0D4
:10152000A1FA206850F8181F06E02068294601F04B
:10153000EBFA206850F81C1F41F0080101600168B7
:1015400021F004010160296917E02068294601F0B3
:1015500005FB206850F81C1F06E02068294601F0B2
:10156000A7FA206850F8181F41F400610160016873
:1015700021F4806101602969090202681143016058
:10158000002001F02DF9B0BD70B110B501F019F9CE
:1015900003D101F0CDF800F009F801F0F6F80120D0
:1015A00000F0E1FF01F0B6B8012070470068314952
:1015B000884218BF7047E0B500200022019008481B
:1015C00001F070F80021006800F00100019001981E
:1015D0001920FFF7F5F91920BDE88C40FFF7E0B9B5
:1015E000443802407047000010B50446A1B10429F8
:1015F00004D0082914BF4120402000E03F20205C97
:10160000012811D10220082910D0042914BF84F820
:10161000410084F83F000BE094F83E00012803D11C
:10162000022084F83E0003E0012010BD84F8400051
:10163000206801F0A7F820680E49884201D101F026
:1016400072F8B0F1804F0DD00B4A90420AD00B4A8D
:10165000904207D00A4A904204D00A4A904201D0F0
:10166000884202D101F05AF801D001F03FF8002081
:1016700010BD00BF00000140000400400008004011
:10168000000C004000400140DFF81C15884218BFE4
:1016900070472DE9F0472DED048BDFF810A5DAF83F
:1016A0002C0001306428CAF82C0007D374484FF48A
:1016B0000051FFF73BF80020CAF82C00DFF8F08457
:1016C0009FED708A9FED709A9AF8000098ED011ACC
:1016D00098ED000A0128B8EEC11AB8EEC00A21EE52
:1016E000081A20EE080A81EE091ABDEEC00A8AED3A
:1016F0000D0ABDEEC11A8AED0C1A25D10020002179
:101700000122002601F0A0F8DFF8A8040021012240
:101710000660002001F0BEF8DFF89C0400210122E1
:101720000660002000F0EEFB00200021012200F006
:1017300027FC9FED560A0120F0EE400A00F062FC03
:10174000CAE90E668AF80060DFF8700490ED000ABE
:1017500000F094FCDFED4D0A00204FF0000900F08E
:1017600051FCDFF84C1BDFF8B42B00EE100AB8EE8A
:10177000C00A0B68DFF86C1B00F052FF5F6A0D684F
:10178000696A1668DFF8CC2B746AD2F800C0DCF8FE
:101790002420C3F82490C5F82490C6F824907B42F6
:1017A000AAF806406442AAF80270AAF80410AAF83F
:1017B0000C10AAF80A30AAF80E4010F1280FAAF867
:1017C0000820AAF81020D8BF6FF027002828A8BF4B
:1017D000282000EE100A0225B8EEC00A8AED100A91
:1017E000CCF82490DAF8440000FA83F3DAF84800E1
:1017F000CAF8443000FA81F1DAF84C00CAF848100F
:1018000000FA84F0DAF85040CAF84C00184404FAA0
:1018100082F490FBF5F26018CAF850404FF443642C
:1018200091FBF4F193FBF4F390FBF5F001EE101A49
:10183000DAF8341000EE103ACAE90E02B8EEC00A27
:10184000B8EEC11A431A8AED051A8AED060A48BF96
:101850005B42092B1CD8521A48BF5242092A17D89A
:10186000002000F0E1FD002000F0FEFD002000F06F
:101870001FFE002000F038FE01208AF8000088E1F9
:1018800000080240000043450080BB450000000006
:10189000002200F0D9FF00EE100ADAE90D10002254
:1018A000B8EEC00A8AED070A00F0CEFF00F08FFE06
:1018B0008AED080A00F0EEFF00F089FE8AED090AC1
:1018C00000F0E8FF98ED010A9AED093A9AED151A31
:1018D000B8EEC00A20EE080A80EE090A00F0A0FE69
:1018E0009AED070A4142BDEEC00A10EE102A8A4264
:1018F000D8BF0A468242A8BF024600EE102AB8EEC0
:10190000C00A6FF05802BDEEC00A10EE103A13F193
:10191000590FD8BF13465924592BA8BF234600EEB0
:10192000103AB8EEC00A30EE412ABDEEC30A10EEFE
:10193000103A8B42C8BF19468142A8BF014600EE4B
:10194000101AB8EEC00A00F06BFEB0EE080A10F1F3
:10195000590FC8BF0246B4EE402AB0EE404A592A99
:10196000A8BF224603EE102AF1EE10FA0ADCB8EE08
:10197000085AB0EE424AB4EE452AF1EE10FAB8BF6A
:10198000B0EE454A9AED162A31EE041AB8EEC33A83
:10199000B0EE405A8AED071A31EE424AB4EE404AA0
:1019A000F1EE10FA0ADCB8EE086AB0EE445AB4EE72
:1019B000464AF1EE10FAB8BFB0EE465A9AED174A11
:1019C00032EE052AB0EE405A8AED082A33EE443A48
:1019D000B4EE403AF1EE10FA0ADCB8EE086AB0EE66
:1019E000435AB4EE463AF1EE10FAB8BFB0EE465A9A
:1019F00034EE053A9AED184A8AED093A33EE445A24
:101A0000B4EE405AF1EE10FA0ADCB8EE086AB0EE15
:101A1000450AB4EE465AF1EE10FAB8BFB0EE460AE7
:101A200034EE000ABAF90C0000228AED151A8AED8C
:101A3000162A8AED173A8AED180A8AED0A0ABDEECF
:101A4000C10A10EE101A00F05DFA00EE100ABAF9A1
:101A500010000022B8EEC00A8AED190A9AED080AB1
:101A6000BDEEC00A10EE101A00F04CFA00EE100A9B
:101A7000BAF90A000022B8EEC00A8AED1A0A9AEDF5
:101A8000090A00F02DFE00EE100ABAF90E0000223D
:101A9000B8EEC00A8AED1B0A9AED0A0A00F020FE91
:101AA0009AED191A9AED100A9AED1A2A9AED1B3A34
:101AB0006FF06201BDEEC11A11EE103A13F1630F1F
:101AC000D8BF0B466322632BA8BF134601EE103A22
:101AD000B8EEC11A8AED191ABDEEC21A02EE100A4A
:101AE00011EE103AB8EEC22A13F1630FD8BF0B46BD
:101AF000BDEEC22A632BA8BF134601EE103A12EEC8
:101B0000100AB8EEC11A8AED1A1ABDEEC31A11EE08
:101B1000103A13F1630FD8BF0B46632BA8BF1346CF
:101B200001EE103AB8EEC11A10F1630F30EE010A5F
:101B30008AED1B1AC8BF01466329A8BF114602EEF1
:101B4000101ABDEEC00AB8EEC22A10EE100A8AEDD5
:101B50001C2A00F069FC9AED100A9AED191A31EE70
:101B6000400A00F05DFD00F07FFC9AED100A9AED4E
:101B70001C1A31EE000A00F053FD00F099FC9AEDBA
:101B8000100A9AED1A1A31EE400A00F049FD00F0F1
:101B9000ABFC0AF13402BAF9023007CABDEC048B7F
:101BA000BDE8F047FEF758BC3C0200207001002061
:101BB00038000020300100203401002020010020E6
:101BC0007047704770470000F8B504460068026827
:101BD000C168466915074FEA82633FD001F49077E8
:101BE00006F00106BF193DD0D70705D0CF0503D5B4
:101BF000676C47F001076764570704D51EB1676C2F
:101C000047F002076764920704D51EB1626C42F088
:101C100004026264002D07D501F02002921903D05E
:101C2000626C42F008026264626C002A00F0E58097
:101C3000002B05D5890603D5204600F0FAFF206861
:101C40004069616C00F0400001F00801401847D184
:101C50002046FFF7B7FF00206064CEE0002B01D5DF
:101C60008B0653D4236B012B03D1D30601D5CB06AE
:101C700051D4130601D50B0611D4520640F1BD8094
:101C8000490640F1BA80C16821F04001C1602020BE
:101C900084F841002046BDE8F84000F031B994F8DE
:101CA0004110212940F0A980A168B1F5805F03D1DE
:101CB0002169002900F0A280216A4A1C2262097869
:101CC0004160E18C0139E184090440F09680C168EB
:101CD00021F08001C160C16841F04001C160F8BDE0
:101CE00000F009FD00F012FD49D500F04FFCFCD1D9
:101CF000E06B002843D045490165FEF72DFC002824
:101D00007BD0E06B016DBDE8F84008472046BDE898
:101D1000F84000F08EBF00210091016800914168F9
:101D200000910099406940062ED4E08DA18DE28D8E
:101D3000002A62D0814260D0081A00F0AEFC21F483
:101D4000907142E80313002BF7D1216851E8051F79
:101D5000226821F0010142E80513002BF5D1202172
:101D600084F842100021216300F097FC21F010015B
:101D700042E80313002BF7D1022161632EE02046D5
:101D8000BDE8F840FFF71EBFE06BA28D01684B680D
:101D900099B249B3914227D2E385C069B0F5807FFB
:101DA00017D000F04BFD20F4807000F050FCF8D10B
:101DB00000F00CFDFCD100F0E9FBFCD1202084F800
:101DC00042000020206300F0BDFCFCD1E06BFEF778
:101DD00086FB02206063A08DE18D401A81B220460F
:101DE000BDE8F840FFF7EDBE8A4206D1C069B0F504
:101DF000807F02D102206063F1E7F8BD216A31F8EB
:101E0000022B6FF35F22216242605AE7E72B000842
:101E100078B110B500F03DFC08B900F009FD00F004
:101E2000F1FB00F00DFC21F02A01416100F04BFCB8
:101E300010BD01207047000010B586B0044601A80F
:101E40001421FEF7A5FA21682B4881422CD10021EC
:101E5000CD4A00F570400091536943F0100353617F
:101E6000536903F010030093009B0091136843F043
:101E700001031360126802F001020092072205922A
:101E80000322CDE90312022102914FF4C0610191B6
:101E9000009901A9FEF77EFB252002210022FEF712
:101EA0008FFD2520FEF77CFD06B010BD10B590F823
:101EB0004230202B06D139B132B10024046300F046
:101EC00077FF02E0022400E00124204610BD00005C
:101ED00000680949884218BF7047B0B5074C2546CD
:101EE00015F8040B00F084FF284621460122BDE8C6
:101EF000B040FFF7DBBF00BF00100140C80000206A
:101F00007047FEE7012A07D19FED1C2A0020B0EEA2
:101F1000420AB0EE421A26E0081A00EE100A5348B0
:101F2000B8EEC00A90ED031A90ED042A90ED0C3A39
:101F3000324890ED076A90ED065A30EE414A90ED36
:101F4000087A26EE006A05EE046A31EE014A30EEA8
:101F5000444A34EE022A07EE026A33EE062ABDEE48
:101F6000C23A13EE100A414981ED020A81ED030ADB
:101F700081ED041A81ED0C2A704700BF00000000BB
:101F8000012A07D11C4900209FED1D0AC1E902006A
:101F900008612CE0081A184A03EE100A174892ED5F
:101FA000060AB8EEC33A92ED071A92ED0D2A90EDAB
:101FB0000A6A90ED095A90ED0B7A82ED053A82EDAE
:101FC000063A33EE404A82ED070A30EE000A26EE6A
:101FD000036A33EE400A05EE046A30EE010A07EEAA
:101FE000006A32EE060ABDEEC01A11EE100A02496E
:101FF00081ED0D0A704700BF30010020080000206D
:1020000000000000194830EEC00A9FED195A90ED0B
:102010000E3A90ED0F4A90ED081A90ED092A80EDE6
:102020000F0A30EE033AB4EE453AF1EE10FAC8BFAB
:10203000B0EE453A9FED0F5AB4EE453AF1EE10FA84
:10204000B8BFB0EE453A80ED0E3A0B4821EE031AC8
:1020500090ED003A03EE001A30EE440A02EE001A48
:10206000BDEEC10A10EE100A704700BF300100201B
:102070000080BB440080BBC464000020024890ED97
:10208000001A30EE410A7047E40100202DE9F04FBC
:1020900087B00DF1080814214046FEF779F90024B5
:1020A00039483A4F3A4D01224FF4005A4FF0010996
:1020B0000194016807F5006641F0040101600168C0
:1020C00001F0040100F031FA41F080010160016883
:1020D00001F0800100F029FA41F00101016001687E
:1020E00001F0010100F021FA41F0020101604FF41A
:1020F0000051006800F00200019001983046A847A6
:10210000384650210022A8473846A0210122BB466C
:10211000A84707F580674FF4A04100223846A8473A
:1021200038464FF420410122A8471A4D3046414617
:10213000CDE90444CDE902A9A847F0204146059421
:10214000CDE9039402905846A8474FF470404146A9
:102150000594CDE9039402903846A8474FF48810BF
:102160004146CDF8109003904FF4805002905846AD
:10217000A847282000210022FEF722FC2820FEF795
:102180000FFC07B0BDE8F08F30380240000002407D
:102190003D0700089505000810B50B480B4B0C4C8B
:1021A00000214FF48042C0E90043C0E90211C0E9B8
:1021B0000421C0E906110162FEF7CAFA18B1BDE8B0
:1021C0001040FEF78AB910BDE8010020A08601008A
:1021D00000540040B0B592B000251C21CDE9105547
:1021E00009AC2046FEF7D4F801A82021FEF7D0F86C
:1021F000AE48214B632142F2CF02C0E90032C0E970
:102200000251C0E904558561FFF7BEF908B1FEF738
:1022100064F9A64810A9FEF7B3FE08B1FEF75DF910
:10222000602018210990201DFEF7B2F89F48214632
:102230000022FFF765F908B1FEF74FF99B4809A99D
:102240000C22FFF75DF908B1FEF747F901AC142144
:102250002046FEF79DF80020214608904FF40050DC
:1022600006909248FEF764FE08B1FEF736F98F48F3
:10227000FFF70AF912B0B0BD0000014080B58CB084
:102280000B4800214FF6FF724FF0804300F052F9E7
:1022900003A9FEF76CFF08B1FEF71FF90448694671
:1022A000FEF76EFE08B1FEF718F90CB080BD00BF56
:1022B0008402002080B58CB00A4800214FF6FF72DE
:1022C000094B00F037F903A9FEF751FF08B1FEF7FB
:1022D00004F904486946FEF753FE08B1FEF7FDF81D
:1022E0000CB080BDCC0200200004004080B58CB052
:1022F0000A4800214FF6FF72094B00F01BF903A9B1
:10230000FEF735FF08B1FEF7E8F804486946FEF726
:1023100037FE08B1FEF7E1F80CB080BD14030020D1
:102320000008004080B58CB00A4800214FF6FF72CB
:10233000094B00F0FFF803A9FEF719FF08B1FEF7FB
:10234000CCF804486946FEF71BFE08B1FEF7C5F855
:102350000CB080BD5C030020000C004010B58CB0B8
:1023600000241C210B94CDE9094401A8FEF710F8C4
:102370006C481D4B632142F2CF028461C0E90032F8
:10238000C0E902410461FEF72DFE08B1FEF7A5F891
:102390004FF480500890634808A9FEF781FE08B109
:1023A000FEF79BF85F48FFF7EFF808B1FEF795F8E6
:1023B000002000220590CDE90200602001905948DC
:1023C00001A9FFF79DF808B1FEF787F8554801A964
:1023D0000422FFF795F808B1FEF77FF85148FFF7A0
:1023E00053F80CB010BD00BF0040014080B50B4851
:1023F0000B490C224FF4E13340F8041F0021C0E9DF
:102400000131C0E90311C0E90521C161FFF700FDF9
:1024100018B1BDE88040FEF760B880BDC80000205C
:1024200000100140FEE70000B0B51F4D0446002833
:102430000AD428464FF4804100F0C6F828464FF4ED
:10244000004100F0EAF80AE028464FF4804100F02D
:10245000E4F828464FF4004100F0B6F8644213480F
:1024600000684463B0BD00BFB0B50F4D04460028FE
:102470000AD428464FF4005100F0A6F828464FF43D
:10248000805100F0CAF80AE028464FF4805100F06D
:10249000C4F828464FF4005100F096F8644203480F
:1024A00000680464B0BD00BF000402403C0200208C
:1024B000B0B51B4D0446002808D42846102100F072
:1024C00083F82846202100F0A8F808E028462021BB
:1024D00000F07AF82846102100F09FF86442114875
:1024E00000684463B0BD00BFB0B50D4D0446002880
:1024F00008D42846402100F067F82846802100F0E3
:102500008CF808E02846402100F087F82846802112
:1025100000F05AF86442034800688463B0BD00BF0D
:1025200000000240A4030020FEE7019101990194FC
:1025300001687047CDE90A11CDE90611CDE9001116
:10254000C0E9021201228161C0E900310161CDE9D7
:102550000812CDE90412032203927047D3F8000455
:1025600000F00700704784F8460084F83E0084F8C5
:102570003F0084F8400084F8410084F8420084F869
:10258000430084F8440084F845007047206850E810
:10259000050F216820F0400041E80502002A70473D
:1025A000C81A22EE000A02EE101AB8EEC22A01EE94
:1025B000020A01EE100AB8EEC11A03EE010ABDEEDE
:1025C000C00A10EE100A70470122FEF7B7B800EEFD
:1025D000100ADAF83410DAF83C000022B8EEC00A2B
:1025E00070470192019A01900A6842F002020A6063
:1025F000096801F0020101910221CDE90501CDE94F
:1026000003107047242084F841002068C16821F439
:102610000051C160204600F069BB0022FEF78EB871
:10262000BDEEC00A10EE100A70470220002984F89F
:102630003E0084F83F0084F8420084F8430070476D
:102640002068016921F4904101614169704741E8C6
:102650000302002A704784F8420084F84300704760
:10266000016851E8051F026821F0010142E80513E5
:10267000002B704784F83E0084F8420070470168E0
:1026800051E8031F026821F0100142E80313002BF8
:102690007047044690F841007047216851E8031FD5
:1026A00022687047016841F0010101607047B0681D
:1026B00000F00C000828704784F8460084F83E00BB
:1026C00084F83F007047C16841F40051C1600020A8
:1026D0002021606484F8411084F8421060637047E0
:1026E000BDEEC00A10EE101AFFF74ABC016841F0B7
:1026F000010101607047204600F07ABA1A4342EAAD
:102700000121826822F47F421143704720684069AA
:102710004006704784F83D00002010BD816801F03C
:102720000701062970474A6C42F400424A64704728
:10273000002084F83C0020467047016821F0010128
:1027400001607047206850E8030F216820F01000F6
:1027500041E80302002A7047016821F0010101608D
:10276000704790F83E6090F83F5090F84230044631
:1027700090F843200120042970472068002101229D
:1027800000F060B9012200F05DB90220211D84F83B
:102790003D00206800F008B94DF808ED2046FEF72E
:1027A000ADFE20465DF808EBFEF71CBF90F83C201C
:1027B00004460220012A704784F83F0084F8430051
:1027C0007047044690F83D0000287047206850E8A4
:1027D000050F216820F0010041E80502002A70473A
:1027E000002184F83C107047002084F83C007047BA
:1027F0000D4601204FEAB201032984F83C007047DE
:102800002046FEF7BABD4B68CA68194600F0C8B941
:10281000B0FBF3F001306FF31F307047044690F8BF
:102820003C0001287047086840F0010008607047CC
:10283000002084F840002046FFF7FEBA206850E8E8
:10284000030F21687047704710B5012A02D100219B
:1028500000201BE0091A224841F288340268836A8A
:102860000A44A242B8BF14461E4A9442D8BF144636
:1028700004601D4800EE104AB8EEC00A90ED012A2F
:1028800090ED001A90ED023AFFF78AFE144A916229
:1028900010BD00BF10B5012A02D1002100201BE0AD
:1028A000091A0F4841F288344268C36A0A44A242B6
:1028B000B8BF14460B4A9442D8BF144644600A4835
:1028C00000EE104AB8EEC00A90ED042A90ED031A0B
:1028D00090ED053AFFF764FE014AD16210BD00BFDA
:1028E0003001002078ECFFFF080000207047FDF762
:1028F000F9BF000070B592B006AC30212046FDF75C
:1029000047FD01A81421FDF743FD00251D480226BF
:102910000095016841F080510160006800F080502E
:102920000090009800951848016866F38F310160A7
:10293000006800F4404000900420CDE90C65069644
:10294000CDE9106054200F9008200E9010200A90BE
:102950000120099000982046FEF73EF908B172B6B2
:10296000FEE74FF4805005950221CDE903500F207A
:10297000CDE9010601A8FEF759F808B172B6FEE7E5
:1029800012B070BD4038024000700040024801683B
:1029900041F470010160704788ED00E00148FEF7E6
:1029A000EDBC00BF3C02002070B57C4B0268984231
:1029B0001FD000F140444FEAB424032C03D84C68E4
:1029C00022F070022243B0F1804F16D0174CA04283
:1029D00013D0174CA04210D0164CA0420DD0164C6C
:1029E000A0420AD0154CA04207D0154CA04204D0FA
:1029F00007E04C6822F070022243CC6822F4407257
:102A000022430D688E684C699842C662856201D186
:102A100009691963016841F0040101600121416104
:102A200022F080012143016070BD00BF000400401E
:102A300000080040000C00400040014000480140F8
:102A40000044014010B501F01F010123046A8B40CE
:102A500002FA01F124EA03030362026A11430162EC
:102A600010BD0000F0B5036A026A4C4E22F001026C
:102A700023F0020302628C680A6845682343846974
:102A8000B0420CD1D1E9057625F44075D1F80CC0DF
:102A900023F00C033D4335432CF00406334324F06C
:102AA0007304456022438261496841630362F0BD5B
:102AB000F0B5036A026A394E22F0100223F02003B7
:102AC000B04202628C680A68456843EA041384696C
:102AD0000FD1D1E9057625F44065D1F80CC023F07B
:102AE000C0033E4345EA86056FF0400606EA0C1631
:102AF000334324F4E644456044EA02228261496893
:102B000081630362F0BD00BFF0B5036A026A234E21
:102B100022F4807223F40073B04202628C680A6867
:102B2000456843EA0423C4690ED1CE6825F4405CAD
:102B3000D1E9057523F440633D43360240F2FF4777
:102B4000BE434CEA0515334324F073044560224329
:102B5000C2614968C1630362F0BD00BFF0B5026A9B
:102B6000036A0E4F23F48053B842036245680C6831
:102B70008B68C66904D14F6925F4804545EA8715FD
:102B8000456026F4E64545EA0424C46149680164C9
:102B900022F4005141EA03310162F0BD000001401E
:102BA00010B5036A046A24F001040462846924F005
:102BB000F00444EA0212826123F00A021143016226
:102BC00010BD10B5036A046A24F01004046284691D
:102BD00024F4704444EA0232826123F0A00242EA03
:102BE0000111016210BD806B0021C185FEF7EABFB3
:102BF000016851E8031F026821F4907142E8031351
:102C0000002BF5D14DF808EDFFF72AFD5DF808EB34
:102C1000F8D1016B012906D14DF808EDFFF72FFD22
:102C20005DF808EBF8D1202180F842100021016303
:102C3000704790F84210222920D183680246B3F5EC
:102C4000805F08D152F8281F52F8183C002B45D05D
:102C500003685B6809E052F8281F13B90369002B69
:102C6000F6D003685B6803F07F030B7011680131D5
:102C70001160C18D0139C185090400D07047016818
:102C8000CA6822F02002CA60CA6822F48072CA6050
:102C90004A6922F001024A61202180F84210002195
:102CA0004163026B012A18BFFFF712B981B00163BB
:102CB0004DF808EDFFF7E3FC5DF808EBF8D101688B
:102CC0000A68D20606D5002200920A680092496876
:102CD00000910099818D01B0FEF773BF02685268C0
:102CE0006FF35F2221F8022B8162C2E7B0B5044680
:102CF000006804F108030ECB056925F4405519431B
:102D00002A4349F20C650261C26863691943E369A9
:102D1000AA4319431143C1604169A26921F440717A
:102D200011434161204940F48060884202D1FDF79F
:102D300013FF01E0FDF706FFE269192163681B4DEF
:102D4000A0FB0101B2F5004F16D15A00DB0FFDF7D1
:102D5000A7FA642105F18053B0FBF1F202FB0300F6
:102D6000322303EBC000B0FBF1F04FF4F87101EA3D
:102D7000400100F0070011E09A009B0FFDF790FA68
:102D800064213223B0FBF1F202FB050003EB0010DB
:102D9000B0FBF1F000F0F00100F00F0001EB0211C8
:102DA000084421688860B0BD001401409CFFFF0FFB
:102DB0000023C285436481622221828580F842100B
:102DC0000168006918B1C86840F48070C86048693B
:102DD00040F001004861C86840F02000C860002051
:102DE000704700006948FEF7EFBE00BFFEE7000035
:102DF00030494A7852B14A78012A0FD1532857D125
:102E0000887853220844027402204FE055284FD19D
:102E10008878552208440274012047E04A78022A43
:102E200046D18A788B181874501C8870C0B20B2851
:102E30003ED1002000220A2804D00B1801301B7C50
:102E40001A44F8E7887ED2B282422ED1B1F912003C
:102E50009FED191A9FED192A00EE100AB1F914001E
:102E6000B8EEC00A20EE010A20EE023A00EE100A87
:102E7000B1F91600B8EEC00A81ED013A20EE010A60
:102E800020EE024A00EE100A0878B8EEC00A81ED82
:102E9000024A20EE010A20EE020A81ED030A20B95F
:102EA00001200870064880ED000A002088704870F4
:102EB000704700BF140100200000003800003443B8
:102EC000E4010020FDF718FDFFF714FDFFF7DEF821
:102ED000FFF780F9FFF7D2F9FFF7ECF9FFF706FAF1
:102EE000FFF720FAFFF73AFAFFF780FAFFF754F9F5
:102EF000DFF874801D4C3C214046A047DFF87090FD
:102F00003C214846A047DFF86CA03C215046A04732
:102F1000194F3C213846A047184C194E0021204635
:102F2000B04720460C21B047164D00212846B04737
:102F300028460421B047144E2846B0474046B047C3
:102F40004846B0475046B0473846B0472046B0479D
:102F50000E480168CA6842F02002CA600C4901228A
:102F6000FEF7A4FFFEE700BF840200202113000843
:102F7000CC020020140300205C0300203C0200204F
:102F8000E9150008A403002035100008CC0000203B
:102F9000C8000020F1EE100A4FF6FF71C0F2C031F8
:102FA00020EA010040F04070E1EE100A7047000096
:102FB00000000000000001020304060708090000E9
:102FC0000000010203040000E82F000800000020B8
:102FD00068000000F8010008503000086800002078
:102FE000880900001802000801000000100000001D
:102FF000B81E053EF7CC923AC520803FB81E053E6C
:10300000F7CC923AC520803F3333D33FCDCC8C3EB2
:10301000CDCCCC3D3333D33FCDCC8C3ECDCCCC3D91
:103020000A00000039000000AAFFF10000000000C3
:103030000000000000000000000000000000000090
:1030400000000000000000000024F4000000D8414F
:040000050800019559
:00000001FF
